:100000000C9470030C94330C0C948A0C0C948D0398
:100010000C948D030C948D030C948D030C94AF0CF5
:100020000C948D030C948D030C948D030C948D0310
:100030000C948D030C948D030C948D030C948D0300
:100040000C948D030C948D030C948D030C948D03F0
:100050000C948D030C948D030C948D030C948D03E0
:100060000C948D030C948D030C948D030C948D03D0
:1000700000000000005C00000C000C007C287C28C4
:1000800058DC68002410480028542840000C000068
:10009000007884008478000054385400107C1000EC
:1000A00080400000101010000040000060100C00A4
:1000B00038543800487C40004864580044542C00B0
:1000C0001C107C005C5424003854240064140C0080
:1000D00068542C0048543800004800008048000054
:1000E0001028440028282800442810000454080040
:1000F00038445C00781478007C5428003844280088
:100100007C4438007C5444007C140400384474005F
:100110007C107C00447C440020403C007C106C003F
:100120007C4040007C187C0078103C00384438004B
:100130007C1408003844B8007C146800485424003B
:10014000047C04007C407C003C603C007C307C00F3
:100150006C106C000C700C0064544C00007C44006B
:100160000C106000447C00000804080080808000BF
:1001700000040800304878007C48300030484800CF
:1001800030487C00306850001078140090A8780047
:100190007C08700050744000808074007C106800FF
:1001A000447C4000781078007808700030483000B7
:1001B000F82810003048F80078100800505828003F
:1001C000083C4800384078003840380078207800F3
:1001D0004830480098A0780048685800107884009B
:1001E000007C00008478100008040804000000006F
:1001F0000000005F00000007000700147F147F1458
:10020000242A7F2A1223130864623649552250009B
:1002100005030000001C2241000041221C00082AA6
:100220001C2A0808083E080800503000000808088A
:100230000808006060000020100804023E51494593
:100240003E00427F400042615149462141454B31C9
:100250001814127F1027454545393C4A4949300159
:10026000710905033649494936064949291E0036B0
:100270003600000056360000000814224114141401
:10028000141441221408000201510906324979412F
:100290003E7E1111117E7F494949363E414141223E
:1002A0007F4141221C7F494949417F090901013EA3
:1002B000414151327F0808087F00417F41002040C2
:1002C000413F017F081422417F404040407F0204AB
:1002D000027F7F0408107F3E4141413E7F090909AA
:1002E000063E4151215E7F09192946464949493157
:1002F00001017F01013F4040403F1F2040201F7F00
:100300002018207F631408146303047804036151E8
:1003100049454300007F4141020408102041417FCC
:100320000000040201020440404040400001020479
:100330000020545454787F4844443838444444207E
:10034000384444487F3854545418087E0901020840
:100350001454543C7F0804047800447D400020403D
:10036000443D00007F10284400417F40007C041879
:1003700004787C0804047838444444387C14141409
:1003800008081414187C7C080404084854545420A9
:10039000043F4440203C4040207C1C2040201C3C2A
:1003A0004030403C44281028440C5050503C446499
:1003B000544C44000836410000007F0000004136E4
:1003C000080002010302010000000000000000001C
:1003D000065F5F0600000000070700070700001423
:1003E0007F7F147F7F1400242E6B6B3A120000462F
:1003F0006630180C666200307A4F5D377A48000428
:1004000007030000000000001C3E634100000000E4
:1004100041633E1C000000082A3E1C1C3E2A0808BE
:10042000083E3E0808000000A0E060000000000850
:100430000808080808000000006060000000006074
:1004400030180C060301003E7F594D7F3E000042EC
:10045000427F7F40400000627359496F660000226E
:100460006349497F360000181C16137F7F10002750
:100470006745457D3900003C7E4B497930000003DB
:100480006371190F070000367F49497F3600000667
:100490004F49693F1E000000006C6C000000000026
:1004A000A0EC6C00000000081C3663410000001442
:1004B00014141414140000004163361C08000002D8
:1004C0000351590F0600003E7F415D5D1F1E007CF9
:1004D0007E13137E7C0000417F7F49497F36001CDC
:1004E0003E634141632200417F7F41637F1C0041A5
:1004F0007F7F495D416300417F7F491D0103001CEF
:100500003E6341517372007F7F08087F7F000000C7
:10051000417F7F41000000307040417F3F0100413A
:100520007F7F081C776300417F7F41406070007FC0
:100530007F060C067F7F007F7F060C187F7F001CE4
:100540003E6341633E1C00417F7F49090F06001E48
:100550003F21717F5E0000417F7F19396F46002681
:10056000674D597B32000003417F7F410300007FCC
:100570007F40407F7F00001F3F60603F1F00007F83
:100580007F3018307F7F0063771C081C776300077B
:100590004F78784F0700006773594D47637100002B
:1005A0007F7F41410000000103060C18306000000D
:1005B00041417F7F000000080C0603060C08008004
:1005C000808080808080800000030704000000207D
:1005D0007454543C784000413F7F44447C38003898
:1005E0007C44446C280000307848493F7F40003804
:1005F0007C54545C180000487E7F49030200009838
:10060000BCA4A4F87C0400417F7F08047C7800002F
:10061000447D7D4000000040C484FD7D0000004119
:100620007F7F10386C440000417F7F400000007CD9
:100630007C0C180C7C78007C7C04047C78000038EE
:100640007C44447C38000084FCF8A4243C18001846
:100650003C24A4F8FC8400447C78441C1800004826
:100660005C54547424000000043E7F442400003C89
:100670007C40403C7C40001C3C60603C1C00003CDA
:100680007C6030607C3C00446C3810386C44009CCA
:10069000BCA0A0FC7C00004C64745C4C64000008AE
:1006A000083E7741410000000000777700000041DC
:1006B00041773E0808000002030103020301000025
:1006C00004067F7F0604000010307F7F3010001882
:1006D0003C7E1818181800181818187E3C180000CE
:1006E00011241FBECFEFD4E0DEBFCDBF13E0A0E0EA
:1006F000B1E0E8EBF8E202C005900D92A033B1073B
:10070000D9F723E0A0E3B3E001C01D92A335B207FF
:10071000E1F70E9490030C945A140C94D60C08959F
:10072000CF93DF9300D0CDB7DEB72FE382E49FE015
:10073000215080409040E1F700C000000E94420636
:100740000E9411060E94BD070E94C3080E94E70B89
:100750008FE893E00E94EE0A0E94500D0E94DE0C8A
:1007600088EE93E09A83898308EE13E00AC00E9422
:10077000D5060E94B60609C089819A8101979A839D
:1007800089830E94C306892B91F70E94100C8981EE
:100790009A8189819A81892B79F71A8309838091BB
:1007A00030038F5F80933003E7CF009769F081308B
:1007B0009105E1F08230910559F183309105D1F135
:1007C000049709F449C00895E0911201F0911301D2
:1007D0002081318181E090E002C0880F991F6A95E5
:1007E000E2F7822B932B918380830895E09110018F
:1007F000F09111012081318181E090E002C0880FE9
:10080000991F6A95E2F7822B932B91838083089539
:10081000E0910E01F0910F012081318181E090E0A3
:1008200002C0880F991F6A95E2F7822B932B918360
:1008300080830895E0910C01F0910D0120813181B8
:1008400081E090E002C0880F991F6A95E2F7822B41
:10085000932B918380830895E0910A01F0910B011D
:100860002081318181E090E002C0880F991F6A9554
:10087000E2F7822B932B91838083A5CF009741F5DC
:10088000452B91F0E0911C01F0911D0120813181F7
:1008900081E090E002C0880F991F6A95E2F7822BF1
:1008A000932B918380830895E0911C01F0911D01A9
:1008B0002081318181E090E002C0880F991F6A9504
:1008C000E2F7809590958223932391838083089506
:1008D0008130910559F08230910581F18330910585
:1008E00009F454C0049709F479C00895452B91F098
:1008F000E0911A01F0911B012081318181E090E0AB
:1009000002C0880F991F6A95E2F7822B932B91837F
:1009100080830895E0911A01F0911B0120813181BB
:1009200081E090E002C0880F991F6A95E2F78095F8
:10093000909582239323918380830895452B91F092
:10094000E0911801F09119012081318181E090E05E
:1009500002C0880F991F6A95E2F7822B932B91832F
:1009600080830895E0911801F0911901208131816F
:1009700081E090E002C0880F991F6A95E2F78095A8
:10098000909582239323918380830895452B91F042
:10099000E0911601F09117012081318181E090E012
:1009A00002C0880F991F6A95E2F7822B932B9183DF
:1009B00080830895E0911601F09117012081318123
:1009C00081E090E002C0880F991F6A95E2F7809558
:1009D000909582239323918380830895452BA1F4DE
:1009E000E0911401F09115012081318181E090E0C6
:1009F00002C0880F991F6A95E2F78095909582232F
:100A000093239183808371CFE0911401F0911501BC
:100A10002081318181E090E002C0880F991F6A95A2
:100A2000E2F7822B932B918380830895009719F12D
:100A300081309105C9F18230910509F44AC08330B3
:100A4000910509F45BC08430910549F5E0910A01F4
:100A5000F0910B014081518121E030E0062E02C06F
:100A6000220F331F0A94E2F7209530952423352373
:100A70003183208314C0E0911201F0911301408171
:100A8000518121E030E0062E02C0220F331F0A946C
:100A9000E2F720953095242335233183208341E0EC
:100AA00050E00E943E040895E0911001F091110180
:100AB0004081518121E030E0062E02C0220F331F19
:100AC0000A94E2F72095309524233523318320833F
:100AD000E6CFE0910E01F0910F014081518121E0BC
:100AE00030E0062E02C0220F331F0A94E2F7209551
:100AF00030952423352331832083D1CFE0910C011D
:100B0000F0910D014081518121E030E0062E02C0BC
:100B1000220F331F0A94E2F72095309524233523C2
:100B200031832083BCCF009771F08130910509F1AA
:100B300082309105A1F18330910509F446C00497F4
:100B400009F459C00895E0910801F091090120814C
:100B5000318181E090E0062E02C0880F991F0A942F
:100B6000E2F78223932302C0959587956A95E2F771
:100B70000895E0910601F09107012081318181E023
:100B800090E0062E02C0880F991F0A94E2F7822394
:100B9000932302C0959587956A95E2F70895E091B1
:100BA0000401F09105012081318181E090E0062E61
:100BB00002C0880F991F0A94E2F78223932302C090
:100BC000959587956A95E2F70895E0910201F09175
:100BD00003012081318181E090E0062E02C0880F60
:100BE000991F0A94E2F78223932302C09595879573
:100BF0006A95E2F70895E0910001F09101012081EA
:100C0000318181E090E0062E02C0880F991F0A947E
:100C1000E2F78223932302C0959587956A95E2F7C0
:100C20000895E0912A01F0912B01808121E030E0CC
:100C3000A9010090260102C0440F551F0A94E2F753
:100C4000842B8083E0912401F0912501408183E091
:100C500090E00090220102C0880F991F0A94E2F7E9
:100C6000809584238083E0912401F0912501808187
:100C700000901E0102C0220F331F0A94E2F7282BB6
:100C80002083089561E070E083E090E00E94D50346
:100C900070E060E083E090E00E941605E09144017E
:100CA000F09145011082E0914201F09143018FE102
:100CB0008083E0914801F091490181E090E09C013E
:100CC0000090580102C0220F331F0A94E2F7AC01D2
:100CD00000905A0102C0440F551F0A94E2F7242BDA
:100CE0002083E0914601F09147019C0100904C0166
:100CF00002C0220F331F0A94E2F700904E0102C097
:100D0000880F991F0A94E2F7822B23E030E00090CD
:100D1000500102C0220F331F0A94E2F7822B808316
:100D200065ED76E086EB96E00E94CA0F0895E091AB
:100D30004A01F0914B01208181E090E00090560142
:100D400002C0880F991F0A94E2F730E082239323B0
:100D50000895CF93C82F0E949706892B29F0E09120
:100D60004001F0914101C083CF910895CF93C82FE6
:100D70000E949706892BE1F3E0914001F091410137
:100D8000C083CF910895E0914A01F0914B012081F9
:100D900081E090E00090520102C0880F991F0A94F0
:100DA000E2F730E08223932308950E94C306892B43
:100DB00031F0E0914001F09141018081089580E09F
:100DC00008950F931F93CF93DF93CDB7DEB7289786
:100DD0000FB6F894DEBF0FBECDBFE0913803F0E050
:100DE0000091370310E090913A0380913603891700
:100DF00008F040C020913A0380913603609133039C
:100E000070913403281B330B44E6429FC001439F7B
:100E1000900D11240E94A20F9B01909139038091A3
:100E200035038917B0F1809139036091350344E6A9
:100E3000849FC001112470E00E94A20F64567109C2
:100E40003A8329837C836B83FE83ED8318870F832A
:100E50003A81462F5C816E2F7E81802F988528965F
:100E60000FB6F894DEBF0FBECDBFDF91CF911F91BB
:100E70000F91089580913A036091360324E6829F92
:100E8000C001112470E00E94A20F9B012456310979
:100E9000C4CF409139038091350360913103709143
:100EA0003203481B550BA4E6A49FC001A59F900DDB
:100EB00011240E94A20FC4CFCF93DF93CDB7DEB72A
:100EC00028970FB6F894DEBF0FBECDBF29833A83B3
:100ED0004B835C8389819A812B813C81BC0199235E
:100EE000BCF0A9013323CCF046175707DCF4833359
:100EF00091051CF58E3C9F4F1CF190E080E02896F8
:100F00000FB6F894DEBF0FBECDBFDF91CF9108952D
:100F100066277727681B790BE4CF44275527421BA8
:100F2000530BE2CF81E090E02333310544F72E3CB0
:100F30003F4F4CF090E080E0E2CF84E090E0DFCFE4
:100F400083E090E0DCCF82E090E0D9CFE0913A01FD
:100F5000F0913B0110820895E0913A01F0913B013C
:100F6000808180933903808180933A0380818093CC
:100F7000380380818093370308950F931F93CF9395
:100F8000DF9300D0CDB7DEB761E070E081E090E0A4
:100F90000E94160562E070E081E090E00E94160574
:100FA00065E070E083E090E00E9416058FB58E7FCB
:100FB0008FBD8FB582688FBD8EB588618EBD1BBC1D
:100FC00081E08ABD15BC83E084BD8EB58A7F8EBD6D
:100FD0008EB582608EBD65E070E083E090E00E9497
:100FE000D5038FEF9FEF9A838983E0913A01F091C7
:100FF0003B01108289EF90E00197F1F700C00000FB
:101000000AE010E009C01A83098389819A81019757
:101010009A838983892BC9F765E070E083E090E0CB
:101020000E949305892B79F3E0913A01F0913B01FD
:101030008081809335038081809336038081809303
:1010400038038081809337038091360380933A037D
:101050008091350380933903209136038FEF90E020
:10106000AC01421B51095093340340933303209148
:101070003503821B910990933203809331030F90C3
:101080000F90DF91CF911F910F910895E091600132
:10109000F091610180830895E0915E01F0915F011C
:1010A0008083089520913D0330913E033695322F81
:1010B00022273795279540913B0350913C03240FFD
:1010C000351F40915C0150915D01240F351FF901DE
:1010D000808380913B0390913C0301968038910579
:1010E00029F090933C0380933B03089510923C03B6
:1010F00010923B03089508958830910528F4909349
:101100003E0380933D03089581E290E00E942B10FE
:1011100008958038910528F490933C0380933B0315
:10112000089581E290E00E942B100895CF93DF9301
:101130000E947C08C0E8D0E080E00E94520821971D
:10114000D9F7DF91CF910895CF93DF93EB010E9400
:101150007C08CE010E948908DF91CF910895CF933A
:10116000DF93D0E0C0E0CE010E9496082196C830FF
:10117000D105C9F770E060E090E080E00E94A4082B
:10118000DF91CF910895E0916001F09161018EEAC5
:101190008083E0916001F091610181EA8083E091B8
:1011A0006001F09161018AED8083E0916001F0912E
:1011B000610182E18083E0916001F091610188EC3E
:1011C0008083E0916001F091610188EA8083E09181
:1011D0006001F09161018FE38083E0916001F09103
:1011E000610185ED8083E0916001F091610180E80B
:1011F0008083E0916001F091610181E88083E0915A
:101200006001F091610180E58083E0916001F091DF
:10121000610189ED8083E0916001F091610181E2DB
:101220008083E0916001F091610180E28083E09130
:101230006001F091610182E08083E0916001F091B2
:1012400061018BED8083E0916001F091610180E3A9
:101250008083E0916001F09161018DEA8083E091EB
:101260006001F09161011082E0916001F0916101F3
:1012700084EA8083E0916001F091610186EA8083D5
:10128000E0916001F09161018FEA80830E94AF08D4
:1012900008950F931F93CF93DF9384309105A4F4A7
:1012A0008C01000F111F000F111F000F111FE8010B
:1012B000C154D94F0953194FFE0184910E9452081D
:1012C0002196C017D107C1F7DF91CF911F910F91E0
:1012D00008950F931F93CF93DF938D3091F08A3051
:1012E000A9F0893019F5C0913B03D0913C03CF712F
:1012F000DD2780E00E9452082196C032D105C9F74F
:101300002DC090E080E00E94890828C080913D03B4
:1013100090913E038730910521F001960E947C0850
:101320001DC090E080E00E947C0818C080528F357C
:10133000A8F4082F10E0000F111F000F111F000F5D
:10134000111FE801C953DC4F01531C4FFE0184916A
:101350000E9452082196C017D107C1F7DF91CF91A3
:101360001F910F9108959B0122953295307F32276E
:10137000207F322720783F77820F931FE0915C0116
:10138000F0915D01E80FF91F80816770772721E0F8
:1013900030E002C0220F331F6A95E2F7822B808370
:1013A00008958F929F92AF92BF92CF92DF92EF9269
:1013B000FF920F931F93CF93DF938C01EB014A01B0
:1013C00079015A01A81AB90A6901C61AD70AA114E3
:1013D000B10499F4C114D10469F0D4F1EC16FD06FE
:1013E0001CF1BE01C8010E94B3092196EC16FD064E
:1013F000C4F71AC00E94B30917C0BB2014F18016AD
:10140000910694F0F12CE12CC701B5010E94A20FC6
:101410006C0F7D1FC8010E94B3090F5F1F4FEC0CBA
:10142000FD1C8016910684F7DF91CF911F910F91DB
:10143000FF90EF90DF90CF90BF90AF909F908F90F4
:101440000895E901982F812F8A01892E982ED7CFF0
:101450008D2FE901E62EF82E8A01C0CFCF92DF92C0
:10146000EF92FF920F931F93CF93DF936A01C81AF5
:10147000D90A8A01080F191F7901E61AF70AE9014A
:10148000C60FD71FBE01C8010E94B309BE01C60125
:101490000E94B309B701C8010E94B309B701C60190
:1014A0000E94B309B801CE010E94B309B801C70177
:1014B0000E94B309B601CE010E94B309B601C7016B
:1014C0000E94B309DF91CF911F910F91FF90EF9090
:1014D000DF90CF900895AF92BF92CF92DF92EF92BC
:1014E000FF920F931F93CF93DF93262F372F8A01FD
:1014F00041E050E07A01E01AF10AD62EC72EB82E4C
:10150000A92E482F592F70E060E0C8010E942E0AD2
:101510001016110674F5D0E0C0E016C0CE01880F99
:10152000991FE80EF91E2FEFE21AF20A0C171D0799
:1015300004F12D2D3C2D4B2D5A2DBE01C8010E94CA
:101540002E0AC017D107ACF421961E141F0434F7DD
:1015500001501109CE01880F991F8E0D9F1D980112
:10156000220F331F821B930B7C012FEFE21AF20A2A
:10157000DDCFDF91CF911F910F91FF90EF90DF9022
:10158000CF90BF90AF900895E0916001F09161011C
:101590001082E0916001F091610180E1808390E030
:1015A00080E030EBE0916001F09161013083AC01AB
:1015B00040585F4FE0915C01F0915D01E80FF91F29
:1015C0002081E0915E01F0915F0120830196481730
:1015D000590781F73F5F383B29F7089590934003FF
:1015E00080933F0308950F931F93CF93DF93CDB75D
:1015F000DEB728970FB6F894DEBF0FBECDBF0091BF
:101600004303109144030E94E1060E945C0720916D
:101610004503309146032817390799F08130910529
:1016200001F18230910569F4209143033091440324
:101630002730310559F12F5F3F4F309344032093FA
:1016400043039093460380934503C80128960FB641
:10165000F894DEBF0FBECDBFDF91CF911F910F91E8
:10166000089520914303309144032115310539F049
:10167000215031093093440320934303E2CF27E004
:1016800030E03093440320934303DBCF10924403B4
:1016900010924303D6CFCF92DF92EF92FF920F9337
:1016A0001F93CF93DF93CDB7DEB72C970FB6F89487
:1016B000DEBF0FBECDBF61E070E081E090E00E9430
:1016C0009305AC0121E090E04115510509F020E0BF
:1016D000C22ED92E8091620190916301892B11F065
:1016E000452B99F4C0926201D09263012C960FB6FB
:1016F000F894DEBF0FBECDBFDF91CF911F910F9148
:10170000FF90EF90DF90CF900895FE0133968AE02E
:10171000DF011D928A95E9F783E0E82EF12C0B8119
:101720001C812D813E814F81588569857A858B8505
:101730009C850E94740DD6CFCF92DF92EF92FF92DC
:101740000F931F93CF93DF93CDB7DEB78E01035F67
:101750001F4FD12CC12C68E070E0C6010E94A40884
:1017600078018FE0E80EF11CF80181918F010E9451
:1017700069090E151F05C1F7FFEFCF1ADF0A88E0D0
:10178000C816D10441F7DF91CF911F910F91FF90BF
:10179000EF90DF90CF900895209143033091440360
:1017A0002817390799F070E060E00E94A40880E2F1
:1017B0000E94690970E060E08091430390914403C6
:1017C0000E94A40883E090E00E944909089561E026
:1017D00070E081E090E00E9416058DB79EB78A57B1
:1017E00091090FB6F8949EBF0FBE8DBFADB7BEB7BF
:1017F00011968AE7E6EEF1E001900D928A95E1F705
:101800000E949C0B8DB79EB786589F4F0FB6F894D9
:101810009EBF0FBE8DBF8FEF9FEF0E94CC0B089530
:10182000CF93DF930E94F30AEC010E944B0BCE0191
:101830000E94CC0B60E470E084E090E00E94A40879
:1018400090E080E00E94490981E090E00E9449090F
:1018500082E090E00E94490983E090E00E944909FB
:10186000DF91CF9108951F920F920FB60F9211241E
:10187000EF92FF920F931F932F933F934F935F939A
:101880006F937F938F939F93AF93BF93EF93FF9348
:10189000CF93DF93CDB7DEB76497DEBFCDBFF894AB
:1018A0000E94AC070E94E10629834B836D838F83DE
:1018B0000E945C07198A1A8A1B8A1C8A94E0E92E06
:1018C00029813B814D815F81F12C05E0182F60E07B
:1018D0007A898B899C890E94740D64960FB6F8945E
:1018E000DEBF0FBECDBFDF91CF91FF91EF91BF91D2
:1018F000AF919F918F917F916F915F914F913F91A8
:101900002F911F910F91FF90EF900F900FBE0F90AE
:101910001F9018951F920F920FB60F9211242F93BC
:101920003F934F935F936F937F938F939F93AF9367
:10193000BF93EF93FF93F8940E94190EFF91EF91DC
:10194000BF91AF919F918F917F916F915F914F91D7
:101950003F912F910F900FBE0F901F9018951F92DF
:101960000F920FB60F9211242F933F934F935F93D3
:101970006F937F938F939F93AF93BF93EF93FF9357
:10198000F8940E94A6070E94C40AFF91EF91BF91AC
:10199000AF919F918F917F916F915F914F913F9107
:1019A0002F910F900FBE0F901F9018951F920F92BE
:1019B0000FB60F92112481E28CB9FECF04B600FC61
:1019C00032C004B601FC34C004B602FC36C004B612
:1019D00003FC38C004B604FC3AC014BEEBE8F0E0E7
:1019E00080818064808380818C7F8083EAE8F0E05E
:1019F00080818F7E808380818860808381E0809376
:101A000087001092860080818D7F80838081856031
:101A1000808385B78B6085BF80EC8BBF80E180932E
:101A20007D007894089580E692E00E943210C9CF3C
:101A300081E792E00E943210C7CF82E892E00E94D4
:101A40003210C5CF83E992E00E943210C3CF84EAFE
:101A500092E00E943210C1CF64E070E081E090E03B
:101A60000E94D50365E070E081E090E00E94D5031C
:101A700066E070E081E090E00E94160567E070E0AB
:101A800081E090E00E94D50381E58DB908958FB97A
:101A9000779BFECF089580E00E94470D8FB1089597
:101AA0000E949B0F60E88FE00E94D60E65E088E2FE
:101AB0000E94D60E6AEE89E20E94D60E61EC8AE29E
:101AC0000E94D60E60E08FE00E94D60E4FEF61E0DC
:101AD0008BE20E94000F60E080E20E94D60E60E080
:101AE00081E20E94D60E0895DF92EF92FF920F934B
:101AF0001F93CF93DF93CDB7DEB72C970FB6F89433
:101B0000DEBF0FBECDBFE982FA82D02E0B831C83CD
:101B10002D833E834F83588769877A878B879C877D
:101B200001EB12E015C08CE10E94C40EF82E8DE18D
:101B30000E94C40E1F928F931F92FF921F930F93C8
:101B40000E9415100F900F900F900F900F900F9014
:101B50000E94960F8111E7CF89819A810E94220FFE
:101B60006C858D2D0E94440FDD2071F07E0184E094
:101B7000E80EF11C10E0F70161917F01812F0E94B6
:101B8000400F1F5FD112F7CF0E94EA0E2C960FB6BE
:101B9000F894DEBF0FBECDBFDF91CF911F910F91A3
:101BA000FF90EF90DF900895CF92DF92EF92FF9237
:101BB0000F931F93CF93DF93CDB7DEB72C970FB65C
:101BC000F894DEBF0FBECDBF8C01CE0101967C0123
:101BD0008CE0F70111928A95E9F70E946E0F6C0173
:101BE0000E944D0F960137703A832983682F6F70DA
:101BF0006B83CE0104960E94520F8D2D881F88277B
:101C0000881F8C878CE0F701D80101900D928A958E
:101C1000E1F7C8012C960FB6F894DEBF0FBECDBF1A
:101C2000DF91CF911F910F91FF90EF90DF90CF90B8
:101C30000895EF92FF920F931F93CF93DF93CDB749
:101C4000DEB72C970FB6F894DEBF0FBECDBF03E50D
:101C500054C0CE0101960E94D40D89819A810597C6
:101C600031F040E061E08CE20E94000F4EC08091B4
:101C7000470390914803019690934803809347034C
:101C800068E070E082E090E00E94A4080F2EF4ED7E
:101C9000EF2EF2E0FF2EF02D802F0E946909F70150
:101CA00081917F018111F9CFDCCF8BED92E00E9411
:101CB000321040E062E08CE20E94000F28C040E059
:101CC00064E08CE20E94000F24C040E068E08CE2F7
:101CD0000E94000F20C040E060E18CE20E94000FF3
:101CE0001CC080EF92E00E94321040E060E28CE283
:101CF0000E94000F14C01123F4F08CE20E94C40E65
:101D0000182F882311F110FDA4CF11FDCECF12FDA5
:101D1000D6CF13FDDACF14FDDECF15FDE2CF16FFCF
:101D2000EACF85E093E00E94321040E060E48CE26C
:101D30000E94000FE0CF8AE193E00E94321040E061
:101D400060E88CE20E94000FD8CF2C960FB6F89472
:101D5000DEBF0FBECDBFDF91CF911F910F91FF90DE
:101D6000EF90089550E040E064E070E081E090E0A2
:101D70000E943E04089541E050E064E070E081E09C
:101D800090E00E943E040895CF93C82F0E94B20EA7
:101D900083E00E94470D8C2F0E94470D0E944B0D3F
:101DA000C82F0E94BB0E8C2FCF910895CF93DF9345
:101DB000D82FC62F0E94B20E82E00E94470D8D2FB1
:101DC0000E94470D8C2F0E94470D0E94BB0EDF9191
:101DD000CF9108950E94B20E81E80E94470D0E94A3
:101DE000BB0E0895CF930E94B20E80EA0E94470D69
:101DF0000E944B0DC82F0E94BB0E8C2FCF910895CF
:101E00001F93CF93DF93182FD62FC42F0E94B20EAB
:101E100085E00E94470D812F0E94470D8D2F0E9463
:101E2000470D8C2F0E94470D0E94BB0EDF91CF9172
:101E30001F9108950E94B20E80EC0E94470D0E94EF
:101E4000BB0E0895CF93DF93EC01BC0176956795A7
:101E5000769567957695679581E30E94D60EBE01CB
:101E6000660F771F62957295707F7627607F762761
:101E7000607E7F7182E30E94D60EDF91CF9108953C
:101E80008A5C0E94D60E08956295660F660F607C8C
:101E9000680F85E30E94D60E089585E60E94C40E61
:101EA0008F740895EF92FF920F931F93CF93662341
:101EB00079F07C018C01E60EF11CC6E68C2F0E94A5
:101EC000C40EF80181938F01CF5FEE15FF05B1F7C6
:101ED000CF911F910F91FF90EF900895CF9381E6DE
:101EE0000E94C40EC82F82E60E94C40E282F30E044
:101EF0008C2F90E0880F991F880F991F880F991FCA
:101F0000A90156954795529542954F7045275F70A8
:101F10004527840F951F322F2227330F330F330F9E
:101F200022273078820F931FCF91089580E30E947B
:101F3000C40E887008950E942C0D0E94BB0E0E9452
:101F40001A0F089597FB072E16F4009407D077FD1B
:101F500009D00E94B60F07FC05D03EF490958195FC
:101F60009F4F0895709561957F4F0895AA1BBB1BE5
:101F700051E107C0AA1FBB1FA617B70710F0A61B89
:101F8000B70B881F991F5A95A9F780959095BC01AA
:101F9000CD0108950F931F93CF93DF93009759F4CA
:101FA0006115710541F4F0E0E0E0CF01DF91CF91E0
:101FB0001F910F9108958B01EC016EE070E081E0BC
:101FC00090E00E943712FC01892B69F380E883833B
:101FD0000115110571F01387028781E883838091D1
:101FE000490390914A03892B21F4F0934A03E0932B
:101FF00049032097D1F2D187C08783818260838390
:1020000080914B0390914C03892B79F6F0934C030C
:10201000E0934B0380914D0390914E03892B29F659
:10202000F0934E03E0934D03C0CFB0E0A0E0EBE1AE
:10203000F0E10C943314AE014B5F5F4FFA016191F4
:102040007191AF0180914B0390914C030E945D1000
:10205000E2E00C944F1460914B0370914C030E948A
:10206000951308950F931F93CF93DF93E0914B0344
:10207000F0914C032381EC0110E000E021FD08C049
:102080000FEF1FEF14C00995892B11F00FEF1FEF11
:10209000899160914B0370914C03DB011896ED918F
:1020A000FC918111F0CF8AE00995892B49F7C8018D
:1020B000DF91CF911F910F910895ABE0B0E0E3E67F
:1020C000F0E10C9423147C013B018A01FC0117828E
:1020D0001682838181FFC8C1CE0101965C01F701A0
:1020E0009381F30193FD859193FF81913F018823B3
:1020F00009F453C1853239F493FD859193FF8191A1
:102100003F01853229F4B70190E00E949513E7CF93
:10211000912C212C312CFFE1F31538F08B3211F189
:1021200090F4803209F1833229F137FC3CC020ED74
:10213000280F2A3050F536FE20C08AE0989E200DE8
:102140001124922E06C08D3291F0803371F768947D
:1021500030F8F30193FD859193FF81913F01811147
:10216000DACF21C0689431F8689432F8F2CF6894DD
:1021700033F8EFCF689434F8ECCFEAE02E9E200DD0
:102180001124222E689435F8E4CF8E3229F436FCDF
:1021900004C1689436F8DDCF8C3619F4689437F8AA
:1021A000D8CF8836B1F2982F9F7D95549330E0F0C8
:1021B0008336A1F18337C1F1833509F063C028016B
:1021C000F2E04F0E511CF801C080D180692D70E003
:1021D00036FC02C06FEF7FEFC6010E9478134C01FE
:1021E000689437F882010AC00C5F1F4FFFE3F98340
:1021F00088248394912C6501E89437F833FE2DC030
:10220000522C8114910471F5552009F468CFB7015F
:1022100080E290E00E9495135A94F6CFF8018081F5
:1022200089830E5F1F4FE4CF2801F2E04F0E511C4F
:10223000F801C080D180692D70E036FC02C06FEFDC
:102240007FEFC6010E948A134C018201D5CFB701EE
:1022500080E290E00E9495132A942814190409F052
:10226000B0F7CECFF60137FC859137FE81916F0133
:10227000B70190E00E94951351105A94F1E08F1A23
:102280009108BFCF843619F0893609F077C0F8017C
:1022900037FE6BC060817181828193810C5F1F4F1B
:1022A000F32DFF763F2E97FF09C09095809570958E
:1022B00061957F4F8F4F9F4F689437F82AE030E049
:1022C000A5010E94C513C82ECA188C2C432C36FEBB
:1022D0000CC0E89440F8C91440F434FE05C032FC48
:1022E00003C0F32DFE7E4F2E892C44FE95C0FE01C7
:1022F000EC0DF11D8081803309F087C0242D297EEB
:10230000422E842D8870582E43FC95C040FE8FC00D
:102310009C2C821418F42C0C922C981844FE91C01A
:10232000B70180E390E00E94951342FE09C088E760
:1023300090E041FE02C088E590E0B7010E9495134D
:10234000C91408F48AC0CA94D12C9FEFC91AD90ABB
:10235000CA0CDB1CF60182916F01B70190E00E946C
:102360009513AC14BD04B1F74FCF60817181072E76
:10237000000C880B990B0E5F1F4F92CFD32CE89463
:10238000D4F82AE030E0853739F1232D297FD22E89
:102390008F3601F148F48835A9F0F70186819781DD
:1023A0002B96E2E10C943F14803749F08837A9F767
:1023B000D4FE02C06894D2F820E130E00DC06894E9
:1023C000D4F8F6CF34FE03C0822F8660D82E20E1E9
:1023D00032E002C028E030E0F801D7FE0FC0608193
:1023E0007181828193810C5F1F4FA5010E94C513EB
:1023F000C82ECA183D2CE89437F867CF60817181E8
:1024000090E080E00E5F1F4FF0CF42FC02C083944B
:1024100078CF8394839475CF842D867809F471CF17
:10242000F6CFB70180E290E00E9495138394821466
:10243000C0F3512C73CF522C5818821408F46ECF6D
:10244000F8CF842D867809F47BCF8BE241FE80E2C1
:1024500047FC8DE2B70190E071CFB70180E390E0D7
:102460000E9495139A946CCF8FEF9FEF99CF0F93A3
:102470001F93CF93DF93869F8001879F100D969FB8
:10248000100D1124C8010E945312EC01009729F08D
:10249000A80170E060E00E948313CE01DF91CF912C
:1024A0001F910F9108950F931F93CF93DF93823065
:1024B000910510F482E090E0E0915103F091520315
:1024C00030E020E0B0E0A0E0309799F4211531052C
:1024D00009F44AC0281B390B24303105D8F58A810C
:1024E0009B816115710589F1FB0193838283FE0154
:1024F00011C0408151810281138148175907E0F0D2
:102500004817590799F4109761F012960C93129797
:1025100013961C933296CF01DF91CF911F910F91AB
:1025200008950093510310935203F4CF2115310500
:1025300051F04217530738F0A901DB019A01BD01A0
:10254000DF01F801C1CFEF01F9CF909352038093DF
:102550005103CDCFFE01E20FF31F819391932250DF
:10256000310939832883D7CF20914F03309150030D
:10257000232B41F420916601309167013093500381
:1025800020934F032091640130916501211531059D
:1025900041F42DB73EB74091680150916901241B69
:1025A000350BE0914F03F0915003E217F307A0F4CD
:1025B0002E1B3F0B2817390778F0AC014E5F5F4F99
:1025C0002417350748F04E0F5F1F50935003409378
:1025D0004F03819391939FCFF0E0E0E09CCFCF93A6
:1025E000DF930097E9F0FC01329713821282A091E9
:1025F0005103B0915203ED0130E020E01097A1F4B7
:1026000020813181820F931F20914F03309150031D
:102610002817390709F061C0F0935003E0934F0386
:10262000DF91CF910895EA01CE17DF07E8F54A81DF
:102630005B819E0141155105B1F7E901FB83EA83F6
:1026400049915991C40FD51FEC17FD0761F48081A2
:1026500091810296840F951FE90199838883828175
:1026600093819B838A83F0E0E0E012968D919C91A8
:1026700013970097B9F52D913C911197CD010296D2
:10268000820F931F20914F03309150032817390771
:1026900039F6309751F51092520310925103B093CE
:1026A0005003A0934F03BCCFD383C2834081518199
:1026B000840F951FC817D90761F44E5F5F4F88815B
:1026C0009981480F591F518340838A819B8193834D
:1026D00082832115310509F0B0CFF0935203E093C6
:1026E00051039ECFFD01DC01C0CF13821282D7CFF0
:1026F000FC010590615070400110D8F780959095CD
:102700008E0F9F1F0895DC0101C06D934150504012
:10271000E0F70895FC016150704001900110D8F776
:10272000809590958E0F9F1F08950F931F93CF93C1
:10273000DF93182F092FEB018B8181FD09C01FEF5B
:102740000FEF812F902FDF91CF911F910F9108955F
:1027500082FF14C02E813F818C819D81281739070B
:102760003CF4E881F981CF01019699838883108335
:102770008E819F8101969F838E83E3CFE885F985C3
:10278000812F0995892BA1F3DACFFA01AA272830E6
:1027900051F1203181F1E8946F936E7F6E5F7F4F2E
:1027A0008F4F9F4FAF4FB1E03ED0B4E03CD0670FAA
:1027B000781F891F9A1FA11D680F791F8A1F911DFD
:1027C000A11D6A0F711D811D911DA11D20D009F44D
:1027D00068943F912AE0269F11243019305D31938F
:1027E000DEF6CF010895462F4770405D4193B3E078
:1027F0000FD0C9F7F6CF462F4F70405D4A3318F01F
:10280000495D31FD4052419302D0A9F7EACFB4E0CF
:10281000A6959795879577956795BA95C9F7009787
:102820006105710508959B01AC010A2E0694579528
:10283000479537952795BA95C9F7620F731F841F7F
:10284000951FA01D08952F923F924F925F926F9215
:102850007F928F929F92AF92BF92CF92DF92EF9230
:10286000FF920F931F93CF93DF93CDB7DEB7CA1BB1
:10287000DB0B0FB6F894DEBF0FBECDBF09942A88DC
:10288000398848885F846E847D848C849B84AA8484
:10289000B984C884DF80EE80FD800C811B81AA8111
:1028A000B981CE0FD11D0FB6F894DEBF0FBECDBFDC
:0828B000ED010895F894FFCF3B
:1028B800250030003300360039002600310034008E
:1028C80037003A0027003200350038003B00050089
:1028D800040003005000070006005500070006002A
:1028E8000500040001005600001800140020001024
:1028F8002C002900400040002A002B00070003009C
:10290800010007000600050004000300001C002267
:10291800002001000000530320000700E703000027
:10292800000000000000000000000000000000009F
:10293800000000000000000000000000000000008F
:10294800000000000000000000000000000000007F
:10295800000000000000000000000000000000006F
:10296800000000000000000000000000000000005F
:10297800000000000000000000000000000000004F
:10298800000000000000000000000000000000003F
:102998000000000000000000537461727420476159
:1029A8006D6500000000000000000000000000004D
:1029B800000000000000000000000000000000000F
:1029C80000000000000000000000000000000000FF
:1029D80000000000000000000000000000000000EF
:1029E80000000000000000000000000000000000DF
:1029F80000000000000000000000000000000000CF
:102A08000048656C6C6F20576F726C6421203A29FE
:102A1800506F7765722D6F6E2072657365742E0D19
:102A28000045787465726E616C2072657365742EEA
:102A38000D0042726F776E6F7574207265736574DE
:102A48002E0D005761746368646F67207265736543
:102A5800742E0D004A5441472072657365742E0D1B
:102A6800005772697465206572726F723A20257515
:102A78002C2052656164206572726F723A20257548
:102A88000D0A0053636F72653A2000525831494667
:102A980020626C6520616B7469766572743F0D0005
:102AA800455252494620626C6520616B74697665AF
:102AB80072743F0D0057414B494620626C65206196
:102AC8006B7469766572743F0D004D45525246200D
:102AD800626C6520616B7469766572743F0D0000E5
:00000001FF
