:100000000C9470030C94A50C0C94FC0C0C948D03B4
:100010000C948D030C948D030C948D030C94210D82
:100020000C948D030C948D030C948D030C948D0310
:100030000C948D030C948D030C948D030C948D0300
:100040000C948D030C948D030C948D030C948D03F0
:100050000C948D030C948D030C948D030C948D03E0
:100060000C948D030C948D030C948D030C948D03D0
:1000700000000000005C00000C000C007C287C28C4
:1000800058DC68002410480028542840000C000068
:10009000007884008478000054385400107C1000EC
:1000A00080400000101010000040000060100C00A4
:1000B00038543800487C40004864580044542C00B0
:1000C0001C107C005C5424003854240064140C0080
:1000D00068542C0048543800004800008048000054
:1000E0001028440028282800442810000454080040
:1000F00038445C00781478007C5428003844280088
:100100007C4438007C5444007C140400384474005F
:100110007C107C00447C440020403C007C106C003F
:100120007C4040007C187C0078103C00384438004B
:100130007C1408003844B8007C146800485424003B
:10014000047C04007C407C003C603C007C307C00F3
:100150006C106C000C700C0064544C00007C44006B
:100160000C106000447C00000804080080808000BF
:1001700000040800304878007C48300030484800CF
:1001800030487C00306850001078140090A8780047
:100190007C08700050744000808074007C106800FF
:1001A000447C4000781078007808700030483000B7
:1001B000F82810003048F80078100800505828003F
:1001C000083C4800384078003840380078207800F3
:1001D0004830480098A0780048685800107884009B
:1001E000007C00008478100008040804000000006F
:1001F0000000005F00000007000700147F147F1458
:10020000242A7F2A1223130864623649552250009B
:1002100005030000001C2241000041221C00082AA6
:100220001C2A0808083E080800503000000808088A
:100230000808006060000020100804023E51494593
:100240003E00427F400042615149462141454B31C9
:100250001814127F1027454545393C4A4949300159
:10026000710905033649494936064949291E0036B0
:100270003600000056360000000814224114141401
:10028000141441221408000201510906324979412F
:100290003E7E1111117E7F494949363E414141223E
:1002A0007F4141221C7F494949417F090901013EA3
:1002B000414151327F0808087F00417F41002040C2
:1002C000413F017F081422417F404040407F0204AB
:1002D000027F7F0408107F3E4141413E7F090909AA
:1002E000063E4151215E7F09192946464949493157
:1002F00001017F01013F4040403F1F2040201F7F00
:100300002018207F631408146303047804036151E8
:1003100049454300007F4141020408102041417FCC
:100320000000040201020440404040400001020479
:100330000020545454787F4844443838444444207E
:10034000384444487F3854545418087E0901020840
:100350001454543C7F0804047800447D400020403D
:10036000443D00007F10284400417F40007C041879
:1003700004787C0804047838444444387C14141409
:1003800008081414187C7C080404084854545420A9
:10039000043F4440203C4040207C1C2040201C3C2A
:1003A0004030403C44281028440C5050503C446499
:1003B000544C44000836410000007F0000004136E4
:1003C000080002010302010000000000000000001C
:1003D000065F5F0600000000070700070700001423
:1003E0007F7F147F7F1400242E6B6B3A120000462F
:1003F0006630180C666200307A4F5D377A48000428
:1004000007030000000000001C3E634100000000E4
:1004100041633E1C000000082A3E1C1C3E2A0808BE
:10042000083E3E0808000000A0E060000000000850
:100430000808080808000000006060000000006074
:1004400030180C060301003E7F594D7F3E000042EC
:10045000427F7F40400000627359496F660000226E
:100460006349497F360000181C16137F7F10002750
:100470006745457D3900003C7E4B497930000003DB
:100480006371190F070000367F49497F3600000667
:100490004F49693F1E000000006C6C000000000026
:1004A000A0EC6C00000000081C3663410000001442
:1004B00014141414140000004163361C08000002D8
:1004C0000351590F0600003E7F415D5D1F1E007CF9
:1004D0007E13137E7C0000417F7F49497F36001CDC
:1004E0003E634141632200417F7F41637F1C0041A5
:1004F0007F7F495D416300417F7F491D0103001CEF
:100500003E6341517372007F7F08087F7F000000C7
:10051000417F7F41000000307040417F3F0100413A
:100520007F7F081C776300417F7F41406070007FC0
:100530007F060C067F7F007F7F060C187F7F001CE4
:100540003E6341633E1C00417F7F49090F06001E48
:100550003F21717F5E0000417F7F19396F46002681
:10056000674D597B32000003417F7F410300007FCC
:100570007F40407F7F00001F3F60603F1F00007F83
:100580007F3018307F7F0063771C081C776300077B
:100590004F78784F0700006773594D47637100002B
:1005A0007F7F41410000000103060C18306000000D
:1005B00041417F7F000000080C0603060C08008004
:1005C000808080808080800000030704000000207D
:1005D0007454543C784000413F7F44447C38003898
:1005E0007C44446C280000307848493F7F40003804
:1005F0007C54545C180000487E7F49030200009838
:10060000BCA4A4F87C0400417F7F08047C7800002F
:10061000447D7D4000000040C484FD7D0000004119
:100620007F7F10386C440000417F7F400000007CD9
:100630007C0C180C7C78007C7C04047C78000038EE
:100640007C44447C38000084FCF8A4243C18001846
:100650003C24A4F8FC8400447C78441C1800004826
:100660005C54547424000000043E7F442400003C89
:100670007C40403C7C40001C3C60603C1C00003CDA
:100680007C6030607C3C00446C3810386C44009CCA
:10069000BCA0A0FC7C00004C64745C4C64000008AE
:1006A000083E7741410000000000777700000041DC
:1006B00041773E0808000002030103020301000025
:1006C00004067F7F0604000010307F7F3010001882
:1006D0003C7E1818181800181818187E3C180000CE
:1006E00011241FBECFEFD4E0DEBFCDBF13E0A0E0EA
:1006F000B1E0EEE6FAE202C005900D92A236B10733
:10070000D9F723E0A2E6B3E001C01D92A43AB207F4
:10071000E1F70E9490030C9435150C94480D089550
:10072000CF93DF9300D0CDB7DEB72FE382E49FE015
:10073000215080409040E1F700C000000E94340644
:100740000E9403060E94AF070E94BF080E94930CFC
:100750008FE893E00E94970B0E94F70D0E94500DC6
:1007600088EE93E09A83898308EE13E005C08981BF
:100770009A8101979A8389830E94A20C0E949D0806
:1007800089819A81892B99F71A830983F0CF009781
:1007900069F081309105E1F08230910559F18330A3
:1007A0009105D1F1049709F449C00895E09112012F
:1007B000F09113012081318181E090E002C0880F27
:1007C000991F6A95E2F7822B932B9183808308957A
:1007D000E0911001F09111012081318181E090E0E0
:1007E00002C0880F991F6A95E2F7822B932B9183A1
:1007F00080830895E0910E01F0910F0120813181F5
:1008000081E090E002C0880F991F6A95E2F7822B81
:10081000932B918380830895E0910C01F0910D0159
:100820002081318181E090E002C0880F991F6A9594
:10083000E2F7822B932B918380830895E0910A0144
:10084000F0910B012081318181E090E002C0880F9E
:10085000991F6A95E2F7822B932B91838083A5CF12
:10086000009741F5452B91F0E0911C01F0911D019D
:100870002081318181E090E002C0880F991F6A9544
:10088000E2F7822B932B918380830895E0911C01E2
:10089000F0911D012081318181E090E002C0880F3C
:1008A000991F6A95E2F7809590958223932391830F
:1008B000808308958130910559F08230910581F14E
:1008C0008330910509F454C0049709F479C0089560
:1008D000452B91F0E0911A01F0911B0120813181AB
:1008E00081E090E002C0880F991F6A95E2F7822BA1
:1008F000932B918380830895E0911A01F0911B015D
:100900002081318181E090E002C0880F991F6A95B3
:10091000E2F78095909582239323918380830895B5
:10092000452B91F0E0911801F0911901208131815E
:1009300081E090E002C0880F991F6A95E2F7822B50
:10094000932B918380830895E0911801F091190110
:100950002081318181E090E002C0880F991F6A9563
:10096000E2F7809590958223932391838083089565
:10097000452B91F0E0911601F09117012081318112
:1009800081E090E002C0880F991F6A95E2F7822B00
:10099000932B918380830895E0911601F0911701C4
:1009A0002081318181E090E002C0880F991F6A9513
:1009B000E2F7809590958223932391838083089515
:1009C000452BA1F4E0911401F091150120813181B2
:1009D00081E090E002C0880F991F6A95E2F7809548
:1009E0009095822393239183808371CFE0911401AA
:1009F000F09115012081318181E090E002C0880FE3
:100A0000991F6A95E2F7822B932B91838083089537
:100A1000009719F181309105C9F18230910509F4EF
:100A20004AC08330910509F45BC08430910549F5D3
:100A3000E0910A01F0910B014081518121E030E009
:100A4000062E02C0220F331F0A94E2F7209530953C
:100A5000242335233183208314C0E0911201F091C7
:100A600013014081518121E030E0062E02C0220FA7
:100A7000331F0A94E2F720953095242335233183E0
:100A8000208341E050E00E9430040895E09110017D
:100A9000F09111014081518121E030E0062E02C029
:100AA000220F331F0A94E2F7209530952423352333
:100AB00031832083E6CFE0910E01F0910F01408158
:100AC000518121E030E0062E02C0220F331F0A942C
:100AD000E2F7209530952423352331832083D1CF2D
:100AE000E0910C01F0910D014081518121E030E055
:100AF000062E02C0220F331F0A94E2F7209530958C
:100B00002423352331832083BCCF009771F08130BB
:100B1000910509F182309105A1F18330910509F425
:100B200046C0049709F459C00895E0910801F09176
:100B300009012081318181E090E0062E02C0880FFA
:100B4000991F0A94E2F78223932302C09595879513
:100B50006A95E2F70895E0910601F091070120817E
:100B6000318181E090E0062E02C0880F991F0A941F
:100B7000E2F78223932302C0959587956A95E2F761
:100B80000895E0910401F09105012081318181E017
:100B900090E0062E02C0880F991F0A94E2F7822384
:100BA000932302C0959587956A95E2F70895E091A1
:100BB0000201F09103012081318181E090E0062E55
:100BC00002C0880F991F0A94E2F78223932302C080
:100BD000959587956A95E2F70895E0910001F09167
:100BE00001012081318181E090E0062E02C0880F52
:100BF000991F0A94E2F78223932302C09595879563
:100C00006A95E2F70895E0912A01F0912B01808125
:100C100021E030E0A9010090260102C0440F551FD9
:100C20000A94E2F7842B8083E0912401F09125015E
:100C3000408183E090E00090220102C0880F991F5C
:100C40000A94E2F7809584238083E0912401F09157
:100C50002501808100901E0102C0220F331F0A94DB
:100C6000E2F7282B2083089561E070E083E090E0B4
:100C70000E94C70370E060E083E090E00E940805F6
:100C8000E0914401F09145011082E0914201F09120
:100C900043018FE18083E0914801F091490181E0B7
:100CA00090E09C010090580102C0220F331F0A946B
:100CB000E2F7AC0100905A0102C0440F551F0A949C
:100CC000E2F7242B2083E0914601F09147019C013B
:100CD00000904C0102C0220F331F0A94E2F70090EB
:100CE0004E0102C0880F991F0A94E2F7822B23E07D
:100CF00030E00090500102C0220F331F0A94E2F747
:100D0000822B808367EC76E088EA96E00E94891067
:100D10000895E0914A01F0914B01208181E090E03B
:100D20000090560102C0880F991F0A94E2F730E044
:100D3000822393230895CF93C82F0E948906892B7D
:100D400029F0E0914001F0914101C083CF910895D5
:100D5000CF93C82F0E948906892BE1F3E0914001CF
:100D6000F0914101C083CF910895E0914A01F09143
:100D70004B01208181E090E00090520102C0880F79
:100D8000991F0A94E2F730E08223932308950E948A
:100D9000B506892B31F0E0914001F091410180814D
:100DA000089580E008950F931F93CF93DF93CDB7FD
:100DB000DEB728970FB6F894DEBF0FBECDBFE09127
:100DC0006903F0E00091680310E090916B0380915B
:100DD0006703891708F040C020916B038091670377
:100DE0006091640370916503281B330B44E6429FB6
:100DF000C001439F900D11240E9452109B019091BD
:100E00006A03809166038917B0F180916A0360914B
:100E1000660344E6849FC001112470E00E945210D2
:100E2000645671093A8329837C836B83FE83ED8347
:100E300018870F833A81462F5C816E2F7E81802F29
:100E4000988528960FB6F894DEBF0FBECDBFDF9110
:100E5000CF911F910F91089580916B03609167036B
:100E600024E6829FC001112470E00E9452109B0171
:100E700024563109C4CF40916A0380916603609182
:100E8000620370916303481B550BA4E6A49FC00145
:100E9000A59F900D11240E945210C4CFCF93DF93D1
:100EA000CDB7DEB728970FB6F894DEBF0FBECDBF23
:100EB00029833A834B835C8389819A812B813C818E
:100EC000BC019923BCF0A9013323CCF04617570786
:100ED000DCF4833391051CF58E3C9F4F1CF190E0B0
:100EE00080E028960FB6F894DEBF0FBECDBFDF912D
:100EF000CF91089566277727681B790BE4CF4427A5
:100F00005527421B530BE2CF81E090E0233331059C
:100F100044F72E3C3F4F4CF090E080E0E2CF84E07D
:100F200090E0DFCF83E090E0DCCF82E090E0D9CFAB
:100F3000E0913A01F0913B0110820895E0913A016D
:100F4000F0913B01808180936A03808180936B03E1
:100F500080818093690380818093680308950F9353
:100F60001F93CF93DF9300D0CDB7DEB761E070E081
:100F700081E090E00E94080562E070E081E090E08E
:100F80000E94080565E070E083E090E00E9408059B
:100F90008FB58E7F8FBD8FB582688FBD8EB588610E
:100FA0008EBD1BBC81E08ABD15BC83E084BD8EB5BF
:100FB0008A7F8EBD8EB582608EBD65E070E083E075
:100FC00090E00E94C7038FEF9FEF9A838983E0919F
:100FD0003A01F0913B01108289EF90E00197F1F71F
:100FE00000C000000AE010E009C01A83098389816B
:100FF0009A8101979A838983892BC9F765E070E00C
:1010000083E090E00E948505892B79F3E0913A0115
:10101000F0913B0180818093660380818093670318
:101020008081809369038081809368038091670346
:1010300080936B038091660380936A03209167031A
:101040008FEF90E0AC01421B510950936503409330
:10105000640320916603821B91099093630380933C
:1010600062030F900F90DF91CF911F910F91089520
:1010700020916C0330916D03F901EE0FFF1FE259CF
:10108000FC4F918380832F5F3F4F30936D032093FC
:101090006C030895E0916201F091630180830895EB
:1010A000E0916001F0916101808308955695542F7D
:1010B000442757954795640F751F40915E015091E5
:1010C0005F01640F751FFB018083089508950F93DE
:1010D0001F93CF93DF938C01D0E0C0E0A801BE0145
:1010E00080E00E9456082196C038D105B9F7DF91FB
:1010F000CF911F910F910895CF93DF93D0E0C0E07F
:10110000CE010E9467082196C830D105C9F7DF914A
:10111000CF91089580915E0190915F0120915C01D3
:1011200030915D0130935F0120935E0190935D01EA
:1011300080935C010E947C0808950F931F93CF93C6
:10114000DF9380916C0390916D03892B89F00EE6FB
:1011500013E0D0E0C0E0D801ED91FD918D0109953B
:10116000219680916C0390916D03C817D90798F36D
:101170000E948A08DF91CF911F910F910895E0910D
:101180006201F09163018EEA8083E0916201F09147
:10119000630181EA8083E0916201F09163018AED4D
:1011A0008083E0916201F091630182E18083E091AC
:1011B0006201F091630188EC8083E0916201F0911B
:1011C000630188EA8083E0916201F09163018FE31B
:1011D0008083E0916201F091630185ED8083E0916D
:1011E0006201F091630180E88083E0916201F091F7
:1011F000630181E88083E0916201F091630180E501
:101200008083E0916201F091630189ED8083E09138
:101210006201F091630181E28083E0916201F091CB
:10122000630180E28083E0916201F091630182E0DA
:101230008083E0916201F09163018BED8083E09106
:101240006201F091630180E38083E0916201F0919B
:1012500063018DEA8083E0916201F0916301108265
:10126000E0916201F091630184EA8083E091620180
:10127000F091630186EA8083E0916201F09163015D
:101280008FEA80830E947C080895CF92DF92EF92CC
:10129000FF920F931F93CF93DF9384309105ECF46B
:1012A0007A018C01000F111F000F111F000F111F79
:1012B0006B0188E0C80ED11CEB01061B170B015413
:1012C000194FF801EC0FFD1F8491A701BE010E9488
:1012D00056082196CC15DD05A1F7DF91CF911F911E
:1012E0000F91FF90EF90DF90CF9008956F927F92D3
:1012F0008F929F92AF92BF92CF92DF92EF92FF9226
:101300000F931F93CF93DF93FC017B018A018081B0
:10131000882309F45BC05F012FEFA21AB20A0F2ED7
:10132000F7EC8F2EF3E09F2EF02D3F016094709428
:1013300021C00730110509F45BC00F5F1F4F15C0B6
:10134000E701C07EA096A801B70180E00E94560880
:101350003FEFE31AF30ACE15DF05A9F706C0C30174
:101360008A0D9B1D809774F57E01F50181915F01C7
:10137000882361F18D30C9F18A30D9F2893001F3C7
:1013800080528F3590F790E0880F991F880F991F32
:10139000880F991F6701E8E0CE0ED11CE701940188
:1013A0002E193F097901E80EF91EF701EC0FFD1F18
:1013B0008491A801BE010E9456082196CC15DD0536
:1013C000A1F7CDCF82E792E00E94EA10DF91CF91A2
:1013D0001F910F91FF90EF90DF90CF90BF90AF9053
:1013E0009F908F907F906F900895F12CE12CBDCF4E
:1013F00010E000E0BACF9B0122953295307F322772
:10140000207F322720783F77820F931FE0915E0183
:10141000F0915F01E80FF91F80816770772721E065
:1014200030E002C0220F331F6A95E2F7822B8083DF
:1014300008958F929F92AF92BF92CF92DF92EF92D8
:10144000FF920F931F93CF93DF938C01EB014A011F
:1014500079015A01A81AB90A6901C61AD70AA11452
:10146000B10499F4C114D10469F0D4F1EC16FD066D
:101470001CF1BE01C8010E94FB092196EC16FD0675
:10148000C4F71AC00E94FB0917C0BB2014F18016D4
:10149000910694F0F12CE12CC701B5010E94521085
:1014A0006C0F7D1FC8010E94FB090F5F1F4FEC0CE2
:1014B000FD1C8016910684F7DF91CF911F910F914B
:1014C000FF90EF90DF90CF90BF90AF909F908F9064
:1014D0000895E901982F812F8A01892E982ED7CF60
:1014E0008D2FE901E62EF82E8A01C0CF4F925F9230
:1014F0006F927F928F929F92AF92BF92CF92DF9224
:10150000EF92FF920F931F93CF93DF938A01081BF3
:10151000190B6A01C80ED91E7901E61AF70A59019A
:10152000A60EB71E2A01461A570A4A01860E971EB2
:101530003901681A790AEC01C20FD31FB501C6013F
:101540000E94FB09B501C8010E94FB09B701C60151
:101550000E94FB09B701C8010E94FB09BE01C4013A
:101560000E94FB09BE01C2010E94FB09B301C40134
:101570000E94FB09B301C2010E94FB09DF91CF91D8
:101580001F910F91FF90EF90DF90CF90BF90AF90A1
:101590009F908F907F906F905F904F900895AF9243
:1015A000BF92CF92DF92EF92FF920F931F93CF9350
:1015B000DF93262F372F8A0141E050E07A01E01AAD
:1015C000F10AD62EC72EB82EA92E482F592F70E01B
:1015D00060E0C8010E94760A1016110674F5D0E08A
:1015E000C0E016C0CE01880F991FE80EF91E2FEF3C
:1015F000E21AF20A0C171D0704F12D2D3C2D4B2D7C
:101600005A2DBE01C8010E94760AC017D107ACF45A
:1016100021961E141F0434F701501109CE01880FC2
:10162000991F8E0D9F1D9801220F331F821B930B54
:101630007C012FEFE21AF20ADDCFDF91CF911F91EB
:101640000F91FF90EF90DF90CF90BF90AF900895F3
:10165000E0916201F09163011082E0916201F091EA
:10166000630180E1808390E080E030EBE0916201F3
:10167000F09163013083AC0140585F4FE0915C0111
:10168000F0915D01E80FF91F2081E0916001F09178
:101690006101208301964817590781F73F5F383B66
:1016A00029F7089542E150E06CE270E084E690E0B2
:1016B0000E94CF0A27E330E045E550E06EE370E09A
:1016C00084E690E00E94190A21E230E045E550E00E
:1016D00067E370E085E590E00E94190A2AE130E0B6
:1016E00044E650E061E270E085E590E00E94190A6E
:1016F00021E230E043E750E06AE170E084E690E008
:101700000E94190A27E330E043E750E061E270E00D
:1017100083E790E00E94190A2EE330E044E650E0AF
:1017200067E370E083E790E00E94190A08959093C0
:1017300091038093900308950F931F93CF93DF93AA
:10174000CDB7DEB728970FB6F894DEBF0FBECDBF7A
:1017500000919403109195030E94D3060E944E07B6
:1017600020919603309197032817390799F081301B
:10177000910501F18230910569F420919403309133
:1017800095032730310559F12F5F3F4F3093950373
:10179000209394039093970380939603C80128960F
:1017A0000FB6F894DEBF0FBECDBFDF91CF911F9172
:1017B0000F910895209194033091950321153105DF
:1017C00039F0215031093093950320939403E2CFEF
:1017D00027E030E03093950320939403DBCF109201
:1017E000950310929403D6CFCF92DF92EF92FF929F
:1017F0000F931F93CF93DF93CDB7DEB72C970FB620
:10180000F894DEBF0FBECDBF61E070E081E090E0F4
:101810000E948505AC0121E090E04115510509F0D9
:1018200020E0C22ED92E8091640190916501892B10
:1018300011F0452B99F4C0926401D09265012C9669
:101840000FB6F894DEBF0FBECDBFDF91CF911F91D1
:101850000F91FF90EF90DF90CF900895FE013396A7
:101860008AE0DF011D928A95E9F783E0E82EF12CEA
:101870000B811C812D813E814F81588569857A8538
:101880008B859C850E941F0ED6CF0F931F93CF93FD
:10189000DF938C010E5F1F4FD0E0C0E0AE0168E027
:1018A00070E0C8010E9476092196005F1F4FC83082
:1018B000D105A1F7DF91CF911F910F91089540912C
:1018C00094035091950370E060E083E090E00E9403
:1018D0004509089580EF91E00E94450C0E949C0B01
:1018E0000E945F0C45E050E060E270E090E080E034
:1018F0000E94450945E050E068E270E081E090E038
:101900000E94450945E050E060E370E082E090E02D
:101910000E94450945E050E068E370E083E090E014
:101920000E944509089561E070E081E090E00E9426
:1019300008058AE69CE00E94380882E59BE00E9448
:10194000380808950E94F40B08951F920F920FB665
:101950000F921124EF92FF920F931F932F933F93B7
:101960004F935F936F937F938F939F93AF93BF93A7
:10197000EF93FF93CF93DF93CDB7DEB76497DEBFCE
:10198000CDBFF8940E949E070E94D30629834B8303
:101990006D838F830E944E07198A1A8A1B8A1C8ABC
:1019A00094E0E92E29813B814D815F81F12C05E096
:1019B000182F60E07A898B899C890E941F0E64969B
:1019C0000FB6F894DEBF0FBECDBFDF91CF91FF9170
:1019D000EF91BF91AF919F918F917F916F915F91A7
:1019E0004F913F912F911F910F91FF90EF900F908A
:1019F0000FBE0F901F9018951F920F920FB60F9267
:101A000011242F933F934F935F936F937F938F9303
:101A10009F93AF93BF93EF93FF93F8940E94C40EEC
:101A2000FF91EF91BF91AF919F918F917F916F91B6
:101A30005F914F913F912F910F900FBE0F901F908C
:101A400018951F920F920FB60F9211242F933F9368
:101A50004F935F936F937F938F939F93AF93BF93B6
:101A6000EF93FF93F8940E9498070E94280BFF9130
:101A7000EF91BF91AF919F918F917F916F915F9106
:101A80004F913F912F910F900FBE0F901F9018957F
:101A90001F920F920FB60F92112481E28CB9FECFE4
:101AA00004B600FC32C004B601FC34C004B602FC2B
:101AB00036C004B603FC38C004B604FC3AC014BEF9
:101AC000EBE8F0E080818064808380818C7F80837C
:101AD000EAE8F0E080818F7E808380818860808367
:101AE00081E0809387001092860080818D7F8083C3
:101AF00080818560808385B78B6085BF80EC8BBFDC
:101B000080E180937D007894089580E992E00E94BE
:101B1000EA10C9CF81EA92E00E94EA10C7CF82EBB7
:101B200092E00E94EA10C5CF83EC92E00E94EA1096
:101B3000C3CF84ED92E00E94EA10C1CF64E070E070
:101B400081E090E00E94C70365E070E081E090E0F2
:101B50000E94C70366E070E081E090E00E94080503
:101B600067E070E081E090E00E94C70381E58DB9F5
:101B700008958FB9779BFECF089580E00E94B90D3C
:101B80008FB108950F931F93CF93DF93CDB7DEB737
:101B9000A0970FB6F894DEBF0FBECDBF809198031B
:101BA000909199039F938F9381EE92E09F938F93EF
:101BB0008E010F5F1F4F1F930F930E94151143E07B
:101BC00050E068E070E0C8010E9476090F900F9025
:101BD0000F900F900F900F90A0960FB6F894DEBF65
:101BE0000FBECDBFDF91CF911F910F9108950E943D
:101BF0004B1060E88FE00E94860F65E088E20E944B
:101C0000860F6AEE89E20E94860F61EC8AE20E94EA
:101C1000860F60E08FE00E94860F4FEF61E08BE25D
:101C20000E94B00F60E080E20E94860F60E081E2D7
:101C30000E94860F82EC9DE00E9438080895DF9292
:101C4000EF92FF920F931F93CF93DF93CDB7DEB741
:101C50002C970FB6F894DEBF0FBECDBFE982FA8293
:101C6000D02E0B831C832D833E834F835887698737
:101C70007A878B879C870BEE12E015C08CE10E945F
:101C8000740FF82E8DE10E94740F1F928F931F9294
:101C9000FF921F930F930E94D4100F900F900F90FC
:101CA0000F900F900F900E9446108111E7CF89810D
:101CB0009A810E94D20F6C858D2D0E94F40FDD2039
:101CC00071F07E0184E0E80EF11C10E0F7016191F3
:101CD0007F01812F0E94F00F1F5FD112F7CF0E946A
:101CE0009A0F2C960FB6F894DEBF0FBECDBFDF91D2
:101CF000CF911F910F91FF90EF90DF900895CF92B9
:101D0000DF92EF92FF920F931F93CF93DF93CDB7A4
:101D1000DEB72C970FB6F894DEBF0FBECDBF8C0197
:101D2000CE0101967C018CE0F70111928A95E9F7CA
:101D30000E941E106C010E94FD0F960137703A83BD
:101D40002983682F6F706B83CE0104960E94021066
:101D50008D2D881F8827881F8C878CE0F701D8017C
:101D600001900D928A95E1F7C8012C960FB6F89470
:101D7000DEBF0FBECDBFDF91CF911F910F91FF90BE
:101D8000EF90DF90CF9008951F93CF93DF93CDB75F
:101D9000DEB72C970FB6F894DEBF0FBECDBF60C084
:101DA000CE0101960E947F0E89819A81059731F0BC
:101DB00040E061E08CE20E94B00F5AC0809198032D
:101DC0009091990301969093990380939803409181
:101DD0009803509199039A01ADECBCEC0E946610F7
:101DE0009C01369527953695279536952795C901F7
:101DF000880F991F880F991F820F931F880F991FB3
:101E00009A01281B390B3093990320939803D0CF64
:101E10008DE093E00E94EA1040E062E08CE20E94D4
:101E2000B00F28C040E064E08CE20E94B00F24C0F4
:101E300040E068E08CE20E94B00F20C040E060E12A
:101E40008CE20E94B00F1CC082E293E00E94EA1074
:101E500040E060E28CE20E94B00F14C01123F4F065
:101E60008CE20E94740F182F882311F110FD98CF77
:101E700011FDCECF12FDD6CF13FDDACF14FDDECF8C
:101E800015FDE2CF16FFEACF87E393E00E94EA1048
:101E900040E060E48CE20E94B00FE0CF8CE493E07D
:101EA0000E94EA1040E060E88CE20E94B00FD8CFB8
:101EB0002C960FB6F894DEBF0FBECDBFDF91CF9149
:101EC0001F91089550E040E064E070E081E090E010
:101ED0000E943004089541E050E064E070E081E049
:101EE00090E00E9430040895CF93C82F0E94620FA3
:101EF00083E00E94B90D8C2F0E94B90D0E94BD0D88
:101F0000C82F0E946B0F8C2FCF910895CF93DF9332
:101F1000D82FC62F0E94620F82E00E94B90D8D2F2C
:101F20000E94B90D8C2F0E94B90D0E946B0FDF919A
:101F3000CF9108950E94620F81E80E94B90D0E941E
:101F40006B0F0895CF930E94620F80EA0E94B90D33
:101F50000E94BD0DC82F0E946B0F8C2FCF9108954A
:101F60001F93CF93DF93182FD62FC42F0E94620F99
:101F700085E00E94B90D812F0E94B90D8D2F0E941E
:101F8000B90D8C2F0E94B90D0E946B0FDF91CF917C
:101F90001F9108950E94620F80EC0E94B90D0E946B
:101FA0006B0F0895CF93DF93EC01BC017695679595
:101FB000769567957695679581E30E94860FBE01B9
:101FC000660F771F62957295707F7627607F762700
:101FD000607E7F7182E30E94860FDF91CF9108952A
:101FE0008A5C0E94860F08956295660F660F607C7A
:101FF000680F85E30E94860F089585E60E94740F9E
:102000008F740895EF92FF920F931F93CF936623DF
:1020100079F07C018C01E60EF11CC6E68C2F0E9443
:10202000740FF80181938F01CF5FEE15FF05B1F7B3
:10203000CF911F910F91FF90EF900895CF9381E67C
:102040000E94740FC82F82E60E94740F282F30E080
:102050008C2F90E0880F991F880F991F880F991F68
:10206000A90156954795529542954F7045275F7047
:102070004527840F951F322F2227330F330F330F3D
:1020800022273078820F931FCF91089580E30E941A
:10209000740F887008950E949E0D0E946B0F0E941D
:1020A000CA0F089597FB072E16F4009407D077FD0A
:1020B00009D00E94751007FC05D03EF490958195DB
:1020C0009F4F0895709561957F4F0895A29FB0012D
:1020D000B39FC001A39F700D811D1124911DB29F5C
:1020E000700D811D1124911D0895AA1BBB1B51E188
:1020F00007C0AA1FBB1FA617B70710F0A61BB70B78
:10210000881F991F5A95A9F780959095BC01CD011C
:1021100008950F931F93CF93DF93009759F46115A0
:10212000710541F4F0E0E0E0CF01DF91CF911F9124
:102130000F9108958B01EC016EE070E081E090E07A
:102140000E941213FC01892B69F380E88383011537
:10215000110571F01387028781E8838380919A03C8
:1021600090919B03892B21F4F0939B03E0939A03B6
:102170002097D1F2D187C087838182608383809149
:102180009C0390919D03892B79F6F0939D03E09336
:102190009C0380919E0390919F03892B29F6F093D5
:1021A0009F03E0939E03C0CFB0E0A0E0EAEDF0E132
:1021B0000C940E15AE014B5F5F4FFA016191719166
:1021C000AF0180919C0390919D030E943811E2E041
:1021D0000C942A150F931F93CF93DF93E0919C03E8
:1021E000F0919D032381EC0110E000E021FD08C087
:1021F0000FEF1FEF14C00995892B11F00FEF1FEFA0
:10220000899160919C0370919D03DB011896ED917B
:10221000FC918111F0CF8AE00995892B49F7C8011B
:10222000DF91CF911F910F910895AEE0B0E0EBE107
:10223000F1E10C940C150D891E8986E08C831A83BC
:1022400009838FEF9FE79E838D83AE01475E5F4FCB
:102250006F89788DCE0101960E9438112F813885C3
:10226000020F131FF80110822E96E4E00C9428153B
:10227000ABE0B0E0EEE3F1E10C94FE147C013B0135
:102280008A01FC0117821682838181FFC8C1CE01B9
:1022900001965C01F7019381F30193FD859193FF12
:1022A00081913F01882309F453C1853239F493FDAC
:1022B000859193FF81913F01853229F4B70190E028
:1022C0000E947014E7CF912C212C312CFFE1F315E3
:1022D00038F08B3211F190F4803209F1833229F118
:1022E00037FC3CC020ED280F2A3050F536FE20C0C8
:1022F0008AE0989E200D1124922E06C08D3291F016
:10230000803371F7689430F8F30193FD859193FF62
:1023100081913F018111DACF21C0689431F868942E
:1023200032F8F2CF689433F8EFCF689434F8ECCFFA
:10233000EAE02E9E200D1124222E689435F8E4CF79
:102340008E3229F436FC04C1689436F8DDCF8C3621
:1023500019F4689437F8D8CF8836B1F2982F9F7D5A
:1023600095549330E0F08336A1F18337C1F1833582
:1023700009F063C02801F2E04F0E511CF801C08043
:10238000D180692D70E036FC02C06FEF7FEFC6018F
:102390000E9453144C01689437F882010AC00C5F04
:1023A0001F4FFFE3F98388248394912C6501E894FF
:1023B00037F833FE2DC0522C8114910471F555204D
:1023C00009F468CFB70180E290E00E9470145A943B
:1023D000F6CFF801808189830E5F1F4FE4CF28017B
:1023E000F2E04F0E511CF801C080D180692D70E0E1
:1023F00036FC02C06FEF7FEFC6010E9465144C01EE
:102400008201D5CFB70180E290E00E9470142A9437
:102410002814190409F0B0F7CECFF60137FC8591E6
:1024200037FE81916F01B70190E00E947014511046
:102430005A94F1E08F1A9108BFCF843619F089368B
:1024400009F077C0F80137FE6BC06081718182812D
:1024500093810C5F1F4FF32DFF763F2E97FF09C02E
:1024600090958095709561957F4F8F4F9F4F6894A1
:1024700037F82AE030E0A5010E94A014C82ECA183F
:102480008C2C432C36FE0CC0E89440F8C91440F460
:1024900034FE05C032FC03C0F32DFE7E4F2E892C86
:1024A00044FE95C0FE01EC0DF11D8081803309F0E2
:1024B00087C0242D297E422E842D8870582E43FCFF
:1024C00095C040FE8FC09C2C821418F42C0C922CCA
:1024D000981844FE91C0B70180E390E00E94701408
:1024E00042FE09C088E790E041FE02C088E590E026
:1024F000B7010E947014C91408F48AC0CA94D12C80
:102500009FEFC91AD90ACA0CDB1CF60182916F0130
:10251000B70190E00E947014AC14BD04B1F74FCF26
:1025200060817181072E000C880B990B0E5F1F4F85
:1025300092CFD32CE894D4F82AE030E0853739F1F3
:10254000232D297FD22E8F3601F148F48835A9F04A
:10255000F701868197812B96E2E10C941A1580375A
:1025600049F08837A9F7D4FE02C06894D2F820E178
:1025700030E00DC06894D4F8F6CF34FE03C0822F4B
:102580008660D82E20E132E002C028E030E0F80179
:10259000D7FE0FC060817181828193810C5F1F4FD4
:1025A000A5010E94A014C82ECA183D2CE89437F843
:1025B00067CF6081718190E080E00E5F1F4FF0CFA8
:1025C00042FC02C0839478CF8394839475CF842D8A
:1025D000867809F471CFF6CFB70180E290E00E94CF
:1025E000701483948214C0F3512C73CF522C58185A
:1025F000821408F46ECFF8CF842D867809F47BCF4F
:102600008BE241FE80E247FC8DE2B70190E071CFA2
:10261000B70180E390E00E9470149A946CCF8FEF22
:102620009FEF99CF0F931F93CF93DF93869F8001E6
:10263000879F100D969F100D1124C8010E942E1324
:10264000EC01009729F0A80170E060E00E945E14A0
:10265000CE01DF91CF911F910F9108950F931F939A
:10266000CF93DF938230910510F482E090E0E09107
:10267000A203F091A30330E020E0B0E0A0E03097A7
:1026800099F42115310509F44AC0281B390B24306F
:102690003105D8F58A819B816115710589F1FB01AE
:1026A00093838283FE0111C0408151810281138195
:1026B00048175907E0F04817590799F4109761F047
:1026C00012960C93129713961C933296CF01DF91BA
:1026D000CF911F910F9108950093A2031093A3032C
:1026E000F4CF2115310551F04217530738F0A901F5
:1026F000DB019A01BD01DF01F801C1CFEF01F9CF84
:102700009093A3038093A203CDCFFE01E20FF31FAA
:10271000819391932250310939832883D7CF209117
:10272000A0033091A103232B41F420916801309143
:1027300069013093A1032093A00320916601309199
:1027400067012115310541F42DB73EB740916A016B
:1027500050916B01241B350BE091A003F091A10374
:10276000E217F307A0F42E1B3F0B2817390778F068
:10277000AC014E5F5F4F2417350748F04E0F5F1FC7
:102780005093A1034093A003819391939FCFF0E0D6
:10279000E0E09CCFCF93DF930097E9F0FC01329704
:1027A00013821282A091A203B091A303ED0130E045
:1027B00020E01097A1F420813181820F931F209196
:1027C000A0033091A1032817390709F061C0F093E5
:1027D000A103E093A003DF91CF910895EA01CE1702
:1027E000DF07E8F54A815B819E0141155105B1F78C
:1027F000E901FB83EA8349915991C40FD51FEC1776
:10280000FD0761F4808191810296840F951FE90193
:1028100099838883828193819B838A83F0E0E0E0BF
:1028200012968D919C9113970097B9F52D913C913B
:102830001197CD010296820F931F2091A003309132
:10284000A1032817390739F6309751F51092A303E1
:102850001092A203B093A103A093A003BCCFD38393
:10286000C28340815181840F951FC817D90761F435
:102870004E5F5F4F88819981480F591F5183408374
:102880008A819B81938382832115310509F0B0CF22
:10289000F093A303E093A2039ECFFD01DC01C0CF20
:1028A00013821282D7CFFC01059061507040011055
:1028B000D8F7809590958E0F9F1F0895DC0101C079
:1028C0006D9341505040E0F70895FC016150704015
:1028D00001900110D8F7809590958E0F9F1F089555
:1028E0000F931F93CF93DF93182F092FEB018B8149
:1028F00081FD09C01FEF0FEF812F902FDF91CF9146
:102900001F910F91089582FF14C02E813F818C8109
:102910009D81281739073CF4E881F981CF010196A0
:102920009983888310838E819F8101969F838E83F4
:10293000E3CFE885F985812F0995892BA1F3DACFBB
:10294000FA01AA27283051F1203181F1E8946F93E0
:102950006E7F6E5F7F4F8F4F9F4FAF4FB1E03ED086
:10296000B4E03CD0670F781F891F9A1FA11D680F24
:10297000791F8A1F911DA11D6A0F711D811D911D57
:10298000A11D20D009F468943F912AE0269F1124CC
:102990003019305D3193DEF6CF010895462F477030
:1029A000405D4193B3E00FD0C9F7F6CF462F4F708B
:1029B000405D4A3318F0495D31FD4052419302D0E9
:1029C000A9F7EACFB4E0A69597958795779567958F
:1029D000BA95C9F700976105710508959B01AC018F
:1029E0000A2E06945795479537952795BA95C9F7B6
:1029F000620F731F841F951FA01D08952F923F9291
:102A00004F925F926F927F928F929F92AF92BF92FE
:102A1000CF92DF92EF92FF920F931F93CF93DF93AA
:102A2000CDB7DEB7CA1BDB0B0FB6F894DEBF0FBE07
:102A3000CDBF09942A88398848885F846E847D8454
:102A40008C849B84AA84B984C884DF80EE80FD8056
:102A50000C811B81AA81B981CE0FD11D0FB6F894CC
:0E2A6000DEBF0FBECDBFED010895F894FFCF8D
:102A6E0025003000330036003900260031003400D6
:102A7E0037003A0027003200350038003B000500D1
:102A8E000400030050000700060055000700060072
:102A9E00050004000100560000180014002000106C
:102AAE002C002900400040002A002B0007000300E4
:102ABE000100070006000500040003000018001CBA
:102ACE000022002001000000A40320000700E703FD
:102ADE0000000000000000000000000000000000E8
:102AEE0000000000000000000000000000000000D8
:102AFE0000000000000000000000000000000000C8
:102B0E0000000000000000000000000000000000B7
:102B1E0000000000000000000000000000000000A7
:102B2E000000000000000000000000000000000097
:102B3E000000000000000000000000000000000087
:102B4E000000000000000000000000000000000077
:102B5E000000456E6A6F79207468652067616D6547
:102B6E002100000000000000000000000000000036
:102B7E000000000000000000000000000000000047
:102B8E000000000000000000000000000000000037
:102B9E000000000000000000000000000000000027
:102BAE000000000000000000000000000000000017
:102BBE000000000000000000000000000000000007
:102BCE0000000000000000000000000000000000F7
:102BDE0000005352414D206F7665726C6F61642018
:102BEE00696E207072696E745F6F6C6564210D0082
:102BFE00506F7765722D6F6E2072657365742E0D32
:102C0E000045787465726E616C2072657365742E02
:102C1E000D0042726F776E6F7574207265736574F6
:102C2E002E0D005761746368646F6720726573655B
:102C3E00742E0D004A5441472072657365742E0D33
:102C4E000053636F72653A2025750057726974657B
:102C5E00206572726F723A2025752C205265616460
:102C6E00206572726F723A2025750D0A0052583126
:102C7E00494620626C6520616B7469766572743F9B
:102C8E000D00455252494620626C6520616B746995
:102C9E00766572743F0D0057414B494620626C6554
:102CAE0020616B7469766572743F0D004D4552520A
:102CBE004620626C6520616B7469766572743F0D97
:022CCE00000004
:00000001FF
