:100000000C9438000C9481030C9455000C9455000A
:100010000C9455000C9455000C9455000C94D3038B
:100020000C9455000C9455000C9455000C945500FC
:100030000C9455000C9455000C9455000C945500EC
:100040000C9455000C9455000C9455000C945500DC
:100050000C9455000C9455000C9455000C945500CC
:100060000C9455000C9455000C9455000C945500BC
:1000700011241FBECFEFD4E0DEBFCDBF11E0A0E062
:10008000B1E0E6EDF1E102C005900D92AE3BB107A3
:10009000D9F721E0AEEBB1E001C01D92AC3CB20754
:1000A000E1F70E9457000C94E9080C94E803CF9301
:1000B000DF9300D0CDB7DEB70E94B1020E94F003FB
:1000C0000E9450031A82198220EA36E805C089810D
:1000D0009A8101979A83898389819A8189819A81FA
:1000E000892BA9F73A832983F2CF009769F08130F1
:1000F0009105E1F08230910559F183309105D1F1FC
:10010000049709F449C00895E0911201F091130198
:100110002081318181E090E002C0880F991F6A95AB
:10012000E2F7822B932B918380830895E091100155
:10013000F09111012081318181E090E002C0880FAF
:10014000991F6A95E2F7822B932B91838083089500
:10015000E0910E01F0910F012081318181E090E06A
:1001600002C0880F991F6A95E2F7822B932B918327
:1001700080830895E0910C01F0910D01208131817F
:1001800081E090E002C0880F991F6A95E2F7822B08
:10019000932B918380830895E0910A01F0910B01E4
:1001A0002081318181E090E002C0880F991F6A951B
:1001B000E2F7822B932B91838083A5CF009741F5A3
:1001C000452B91F0E0911C01F0911D0120813181BE
:1001D00081E090E002C0880F991F6A95E2F7822BB8
:1001E000932B918380830895E0911C01F0911D0170
:1001F0002081318181E090E002C0880F991F6A95CB
:10020000E2F78095909582239323918380830895CC
:100210008130910559F08230910581F1833091054B
:1002200009F454C0049709F479C00895452B91F05E
:10023000E0911A01F0911B012081318181E090E071
:1002400002C0880F991F6A95E2F7822B932B918346
:1002500080830895E0911A01F0911B012081318182
:1002600081E090E002C0880F991F6A95E2F78095BF
:10027000909582239323918380830895452B91F059
:10028000E0911801F09119012081318181E090E025
:1002900002C0880F991F6A95E2F7822B932B9183F6
:1002A00080830895E0911801F09119012081318136
:1002B00081E090E002C0880F991F6A95E2F780956F
:1002C000909582239323918380830895452B91F009
:1002D000E0911601F09117012081318181E090E0D9
:1002E00002C0880F991F6A95E2F7822B932B9183A6
:1002F00080830895E0911601F091170120813181EA
:1003000081E090E002C0880F991F6A95E2F780951E
:10031000909582239323918380830895452BA1F4A4
:10032000E0911401F09115012081318181E090E08C
:1003300002C0880F991F6A95E2F7809590958223F5
:1003400093239183808371CFE0911401F091150183
:100350002081318181E090E002C0880F991F6A9569
:10036000E2F7822B932B918380830895009719F1F4
:1003700081309105C9F18230910509F44AC083307A
:10038000910509F45BC08430910549F5E0910A01BB
:10039000F0910B014081518121E030E0062E02C036
:1003A000220F331F0A94E2F720953095242335233A
:1003B0003183208314C0E0911201F0911301408138
:1003C000518121E030E0062E02C0220F331F0A9433
:1003D000E2F720953095242335233183208341E0B3
:1003E00050E00E94DE000895E0911001F0911101AB
:1003F0004081518121E030E0062E02C0220F331FE0
:100400000A94E2F720953095242335233183208305
:10041000E6CFE0910E01F0910F014081518121E082
:1004200030E0062E02C0220F331F0A94E2F7209517
:1004300030952423352331832083D1CFE0910C01E3
:10044000F0910D014081518121E030E0062E02C083
:10045000220F331F0A94E2F7209530952423352389
:1004600031832083BCCF009771F08130910509F171
:1004700082309105A1F18330910509F446C00497BB
:1004800009F459C00895E0910801F0910901208113
:10049000318181E090E0062E02C0880F991F0A94F6
:1004A000E2F78223932302C0959587956A95E2F738
:1004B0000895E0910601F09107012081318181E0EA
:1004C00090E0062E02C0880F991F0A94E2F782235B
:1004D000932302C0959587956A95E2F70895E09178
:1004E0000401F09105012081318181E090E0062E28
:1004F00002C0880F991F0A94E2F78223932302C057
:10050000959587956A95E2F70895E0910201F0913B
:1005100003012081318181E090E0062E02C0880F26
:10052000991F0A94E2F78223932302C09595879539
:100530006A95E2F70895E0910001F09101012081B0
:10054000318181E090E0062E02C0880F991F0A9445
:10055000E2F78223932302C0959587956A95E2F787
:10056000089561E070E083E090E00E94750070E023
:1005700060E083E090E00E94B601E0912201F091FA
:1005800023011082E0912001F09121018FE180830D
:10059000E0912601F091270181E090E09C0100901C
:1005A000360102C0220F331F0A94E2F7AC0100901B
:1005B000380102C0440F551F0A94E2F7242B208310
:1005C000E0912401F09125019C0100902A0102C0D4
:1005D000220F331F0A94E2F700902C0102C0880F0B
:1005E000991F0A94E2F7822B23E030E000902E015D
:1005F00002C0220F331F0A94E2F7822B808364E447
:1006000073E085E293E00E9460040895E091280180
:10061000F0912901208181E090E00090340102C036
:10062000880F991F0A94E2F730E0822393230895FC
:10063000CF93C82F0E940603892B29F0E0911E0159
:10064000F0911F01C083CF910895CF93C82F0E94CE
:100650000603892BE1F3E0911E01F0911F01C08395
:10066000CF910895E0912801F0912901208181E046
:1006700090E00090300102C0880F991F0A94E2F7C1
:1006800030E08223932308950E943203892B31F0B6
:10069000E0911E01F0911F018081089580E008958E
:1006A000E0914401F0914501808121E030E0A90111
:1006B0000090420102C0440F551F0A94E2F7842BB8
:1006C0008083E0914001F0914101408183E090E01E
:1006D00000903E0102C0880F991F0A94E2F78095AE
:1006E00084238083E0914001F0914101808100905A
:1006F0003A0102C0220F331F0A94E2F7282B20830D
:1007000008951F920F920FB60F9211242F933F93CB
:100710004F935F936F937F938F939F93AF93BF9309
:10072000EF93FF93F894E0914801F09149018081A3
:100730008093C00180818093C10180818093BF013B
:1007400080818093BE013091BE012091BF019091C4
:10075000C0018091C1011F923F931F922F931F925E
:100760009F931F928F9384E591E09F938F930E94B4
:10077000AB041ABE8DB79EB70A960FB6F8949EBF0B
:100780000FBE8DBFFF91EF91BF91AF919F918F9160
:100790007F916F915F914F913F912F910F900FBE7D
:1007A0000F901F9018951F920F920FB60F92112461
:1007B000EF93FF93F894E0914801F0914901108282
:1007C00019BEFF91EF910F900FBE0F901F901895DB
:1007D0001F920F920FB60F92112481E28CB9FECFB7
:1007E00004B600FC54C004B601FC56C004B602FCBA
:1007F00058C004B603FC5AC004B604FC5CC014BE66
:1008000065E070E083E090E00E94B6018FB58E7FD6
:100810008FBD8FB582688FBD8EB588618EBD1BBCC4
:1008200081E08ABD15BC83E084BD8EB58A7F8EBD14
:100830008EB582608EBD65E070E083E090E00E943E
:100840007500EBE8F0E080818064808380818C7F9C
:100850008083EAE8F0E080818F7E808380818860F9
:10086000808384E08093870080E580938600808188
:100870008D7F808380818560808385B7836085BF1D
:1008800080E48BBF80E180937D007894089582E7B7
:1008900091E00E94C104A7CF82E891E00E94C104C8
:1008A000A5CF82E991E00E94C104A3CF82EA91E042
:1008B0000E94C104A1CF82EB91E00E94C1049FCFAE
:1008C0000F931F93CF93DF93009759F46115710530
:1008D00041F4F0E0E0E0CF01DF91CF911F910F9163
:1008E00008958B01EC016EE070E081E090E00E94E1
:1008F000C606FC01892B69F380E883830115110585
:1009000071F01387028781E883838091C2019091FF
:10091000C301892B21F4F093C301E093C201209716
:10092000D1F2D187C0878381826083838091C401A3
:100930009091C501892B79F6F093C501E093C4012C
:100940008091C6019091C701892B29F6F093C701C8
:10095000E093C601C0CFB0E0A0E0E1EBF4E00C947E
:10096000C208AE014B5F5F4FFA0161917191AF0117
:100970008091C4019091C5010E94EC04E2E00C94C6
:10098000DE080F931F93CF93DF93E091C401F091A2
:10099000C5012381EC0110E000E021FD08C00FEF4C
:1009A0001FEF14C00995892B11F00FEF1FEF8991EC
:1009B0006091C4017091C501DB011896ED91FC9125
:1009C0008111F0CF8AE00995892B49F7C801DF91A1
:1009D000CF911F910F910895ABE0B0E0E2EFF4E00A
:1009E0000C94B2087C013B018A01FC01178216823B
:1009F000838181FFC8C1CE0101965C01F70193811B
:100A0000F30193FD859193FF81913F01882309F4C0
:100A100053C1853239F493FD859193FF81913F0154
:100A2000853229F4B70190E00E942408E7CF912C89
:100A3000212C312CFFE1F31538F08B3211F190F4B9
:100A4000803209F1833229F137FC3CC020ED280FB8
:100A50002A3050F536FE20C08AE0989E200D1124E1
:100A6000922E06C08D3291F0803371F7689430F881
:100A7000F30193FD859193FF81913F018111DACFBD
:100A800021C0689431F8689432F8F2CF689433F852
:100A9000EFCF689434F8ECCFEAE02E9E200D1124BD
:100AA000222E689435F8E4CF8E3229F436FC04C146
:100AB000689436F8DDCF8C3619F4689437F8D8CFBF
:100AC0008836B1F2982F9F7D95549330E0F08336AD
:100AD000A1F18337C1F1833509F063C02801F2E049
:100AE0004F0E511CF801C080D180692D70E036FC9A
:100AF00002C06FEF7FEFC6010E9407084C016894A7
:100B000037F882010AC00C5F1F4FFFE3F983882486
:100B10008394912C6501E89437F833FE2DC0522C54
:100B20008114910471F5552009F468CFB70180E272
:100B300090E00E9424085A94F6CFF80180818983BE
:100B40000E5F1F4FE4CF2801F2E04F0E511CF80159
:100B5000C080D180692D70E036FC02C06FEF7FEF5E
:100B6000C6010E9419084C018201D5CFB70180E26D
:100B700090E00E9424082A942814190409F0B0F780
:100B8000CECFF60137FC859137FE81916F01B70119
:100B900090E00E94240851105A94F1E08F1A9108B5
:100BA000BFCF843619F0893609F077C0F80137FED7
:100BB0006BC060817181828193810C5F1F4FF32D27
:100BC000FF763F2E97FF09C09095809570956195AF
:100BD0007F4F8F4F9F4F689437F82AE030E0A50190
:100BE0000E945408C82ECA188C2C432C36FE0CC008
:100BF000E89440F8C91440F434FE05C032FC03C048
:100C0000F32DFE7E4F2E892C44FE95C0FE01EC0D87
:100C1000F11D8081803309F087C0242D297E422E6A
:100C2000842D8870582E43FC95C040FE8FC09C2CAC
:100C3000821418F42C0C922C981844FE91C0B70121
:100C400080E390E00E94240842FE09C088E790E01B
:100C500041FE02C088E590E0B7010E942408C91453
:100C600008F48AC0CA94D12C9FEFC91AD90ACA0CB9
:100C7000DB1CF60182916F01B70190E00E9424080D
:100C8000AC14BD04B1F74FCF60817181072E000C09
:100C9000880B990B0E5F1F4F92CFD32CE894D4F89A
:100CA0002AE030E0853739F1232D297FD22E8F3687
:100CB00001F148F48835A9F0F701868197812B96D8
:100CC000E2E10C94CE08803749F08837A9F7D4FECA
:100CD00002C06894D2F820E130E00DC06894D4F8E6
:100CE000F6CF34FE03C0822F8660D82E20E132E09A
:100CF00002C028E030E0F801D7FE0FC060817181AA
:100D0000828193810C5F1F4FA5010E945408C82E59
:100D1000CA183D2CE89437F867CF6081718190E064
:100D200080E00E5F1F4FF0CF42FC02C0839478CF6B
:100D30008394839475CF842D867809F471CFF6CF90
:100D4000B70180E290E00E94240883948214C0F3EB
:100D5000512C73CF522C5818821408F46ECFF8CF50
:100D6000842D867809F47BCF8BE241FE80E247FC3C
:100D70008DE2B70190E071CFB70180E390E00E946F
:100D800024089A946CCF8FEF9FEF99CF0F931F9306
:100D9000CF93DF93869F8001879F100D969F100D44
:100DA0001124C8010E94E206EC01009729F0A80175
:100DB00070E060E00E941208CE01DF91CF911F9198
:100DC0000F9108950F931F93CF93DF938230910576
:100DD00010F482E090E0E091CA01F091CB0130E0A4
:100DE00020E0B0E0A0E0309799F42115310509F436
:100DF0004AC0281B390B24303105D8F58A819B81E4
:100E00006115710589F1FB0193838283FE0111C095
:100E1000408151810281138148175907E0F048173A
:100E2000590799F4109761F012960C931297139644
:100E30001C933296CF01DF91CF911F910F910895AE
:100E40000093CA011093CB01F4CF2115310551F065
:100E50004217530738F0A901DB019A01BD01DF01F8
:100E6000F801C1CFEF01F9CF9093CB018093CA0174
:100E7000CDCFFE01E20FF31F8193919322503109F0
:100E800039832883D7CF2091C8013091C901232B02
:100E900041F420915001309151013093C9012093C8
:100EA000C80120914E0130914F012115310541F4C7
:100EB0002DB73EB74091520150915301241B350B81
:100EC000E091C801F091C901E217F307A0F42E1BCD
:100ED0003F0B2817390778F0AC014E5F5F4F24179E
:100EE000350748F04E0F5F1F5093C9014093C8016A
:100EF000819391939FCFF0E0E0E09CCFCF93DF937D
:100F00000097E9F0FC01329713821282A091CA0186
:100F1000B091CB01ED0130E020E01097A1F42081E9
:100F20003181820F931F2091C8013091C901281788
:100F3000390709F061C0F093C901E093C801DF915E
:100F4000CF910895EA01CE17DF07E8F54A815B816A
:100F50009E0141155105B1F7E901FB83EA834991EF
:100F60005991C40FD51FEC17FD0761F48081918161
:100F70000296840F951FE90199838883828193816A
:100F80009B838A83F0E0E0E012968D919C91139709
:100F90000097B9F52D913C911197CD010296820FE2
:100FA000931F2091C8013091C9012817390739F6DC
:100FB000309751F51092CB011092CA01B093C9013C
:100FC000A093C801BCCFD383C28340815181840FD9
:100FD000951FC817D90761F44E5F5F4F88819981CB
:100FE000480F591F518340838A819B819383828359
:100FF0002115310509F0B0CFF093CB01E093CA0180
:101000009ECFFD01DC01C0CF13821282D7CFFC013D
:101010000590615070400110D8F7809590958E0F23
:101020009F1F0895DC0101C06D9341505040E0F7CF
:101030000895FC016150704001900110D8F780952F
:1010400090958E0F9F1F08950F931F93CF93DF935B
:10105000182F092FEB018B8181FD09C01FEF0FEFC6
:10106000812F902FDF91CF911F910F91089582FFD3
:1010700014C02E813F818C819D81281739073CF453
:10108000E881F981CF0101969983888310838E814D
:101090009F8101969F838E83E3CFE885F985812F19
:1010A0000995892BA1F3DACFFA01AA27283051F14B
:1010B000203181F1E8946F936E7F6E5F7F4F8F4F89
:1010C0009F4FAF4FB1E03ED0B4E03CD0670F781FE8
:1010D000891F9A1FA11D680F791F8A1F911DA11DCD
:1010E0006A0F711D811D911DA11D20D009F4689406
:1010F0003F912AE0269F11243019305D3193DEF6AE
:10110000CF010895462F4770405D4193B3E00FD063
:10111000C9F7F6CF462F4F70405D4A3318F0495D4E
:1011200031FD4052419302D0A9F7EACFB4E0A69531
:101130009795879577956795BA95C9F70097610553
:10114000710508959B01AC010A2E069457954795A9
:1011500037952795BA95C9F7620F731F841F951F9E
:10116000A01D08952F923F924F925F926F927F92AF
:101170008F929F92AF92BF92CF92DF92EF92FF92A7
:101180000F931F93CF93DF93CDB7DEB7CA1BDB0B53
:101190000FB6F894DEBF0FBECDBF09942A883988F8
:1011A00048885F846E847D848C849B84AA84B984FF
:1011B000C884DF80EE80FD800C811B81AA81B9810B
:1011C000CE0FD11D0FB6F894DEBF0FBECDBFED011F
:0611D0000895F894FFCF22
:1011D6002500300033003600390026003100340087
:1011E60037003A0027003200350038003B002C005B
:1011F6002900400040002A002B00070003000100E0
:1012060007000600050004000300050004000300B3
:1012160050000700550000180014001000100000D0
:10122600CC012000783A2025752C20793A202575A6
:101236002C20613A2025752C20623A202575200D38
:101246000A00506F7765722D6F6E20726573657434
:101256002E0045787465726E616C207265736574D4
:10126600210042726F776E6F7574207265736574B4
:1012760021005761746368646F67207265736574D3
:0E12860021004A5441472072657365742100AF
:00000001FF
