:100000000C9460030C9496070C947D030C947D0370
:100010000C947D030C947D030C947D030C940208D6
:100020000C947D030C947D030C947D030C947D0350
:100030000C947D030C947D030C947D030C947D0340
:100040000C947D030C947D030C947D030C947D0330
:100050000C947D030C947D030C947D030C947D0320
:100060000C947D030C947D030C947D030C947D0310
:1000700000000000005C00000C000C007C287C28C4
:1000800058DC68002410480028542840000C000068
:10009000007884008478000054385400107C1000EC
:1000A00080400000101010000040000060100C00A4
:1000B00038543800487C40004864580044542C00B0
:1000C0001C107C005C5424003854240064140C0080
:1000D00068542C0048543800004800008048000054
:1000E0001028440028282800442810000454080040
:1000F00038445C00781478007C5428003844280088
:100100007C4438007C5444007C140400384474005F
:100110007C107C00447C440020403C007C106C003F
:100120007C4040007C187C0078103C00384438004B
:100130007C1408003844B8007C146800485424003B
:10014000047C04007C407C003C603C007C307C00F3
:100150006C106C000C700C0064544C00007C44006B
:100160000C106000447C00000804080080808000BF
:1001700000040800304878007C48300030484800CF
:1001800030487C00306850001078140090A8780047
:100190007C08700050744000808074007C106800FF
:1001A000447C4000781078007808700030483000B7
:1001B000F82810003048F80078100800505828003F
:1001C000083C4800384078003840380078207800F3
:1001D0004830480098A0780048685800107884009B
:1001E000007C00008478100008040804000000006F
:1001F0000000005F00000007000700147F147F1458
:10020000242A7F2A1223130864623649552250009B
:1002100005030000001C2241000041221C00082AA6
:100220001C2A0808083E080800503000000808088A
:100230000808006060000020100804023E51494593
:100240003E00427F400042615149462141454B31C9
:100250001814127F1027454545393C4A4949300159
:10026000710905033649494936064949291E0036B0
:100270003600000056360000000814224114141401
:10028000141441221408000201510906324979412F
:100290003E7E1111117E7F494949363E414141223E
:1002A0007F4141221C7F494949417F090901013EA3
:1002B000414151327F0808087F00417F41002040C2
:1002C000413F017F081422417F404040407F0204AB
:1002D000027F7F0408107F3E4141413E7F090909AA
:1002E000063E4151215E7F09192946464949493157
:1002F00001017F01013F4040403F1F2040201F7F00
:100300002018207F631408146303047804036151E8
:1003100049454300007F4141020408102041417FCC
:100320000000040201020440404040400001020479
:100330000020545454787F4844443838444444207E
:10034000384444487F3854545418087E0901020840
:100350001454543C7F0804047800447D400020403D
:10036000443D00007F10284400417F40007C041879
:1003700004787C0804047838444444387C14141409
:1003800008081414187C7C080404084854545420A9
:10039000043F4440203C4040207C1C2040201C3C2A
:1003A0004030403C44281028440C5050503C446499
:1003B000544C44000836410000007F0000004136E4
:1003C000080002010302010000000000000000001C
:1003D000065F5F0600000000070700070700001423
:1003E0007F7F147F7F1400242E6B6B3A120000462F
:1003F0006630180C666200307A4F5D377A48000428
:1004000007030000000000001C3E634100000000E4
:1004100041633E1C000000082A3E1C1C3E2A0808BE
:10042000083E3E0808000000A0E060000000000850
:100430000808080808000000006060000000006074
:1004400030180C060301003E7F594D7F3E000042EC
:10045000427F7F40400000627359496F660000226E
:100460006349497F360000181C16137F7F10002750
:100470006745457D3900003C7E4B497930000003DB
:100480006371190F070000367F49497F3600000667
:100490004F49693F1E000000006C6C000000000026
:1004A000A0EC6C00000000081C3663410000001442
:1004B00014141414140000004163361C08000002D8
:1004C0000351590F0600003E7F415D5D1F1E007CF9
:1004D0007E13137E7C0000417F7F49497F36001CDC
:1004E0003E634141632200417F7F41637F1C0041A5
:1004F0007F7F495D416300417F7F491D0103001CEF
:100500003E6341517372007F7F08087F7F000000C7
:10051000417F7F41000000307040417F3F0100413A
:100520007F7F081C776300417F7F41406070007FC0
:100530007F060C067F7F007F7F060C187F7F001CE4
:100540003E6341633E1C00417F7F49090F06001E48
:100550003F21717F5E0000417F7F19396F46002681
:10056000674D597B32000003417F7F410300007FCC
:100570007F40407F7F00001F3F60603F1F00007F83
:100580007F3018307F7F0063771C081C776300077B
:100590004F78784F0700006773594D47637100002B
:1005A0007F7F41410000000103060C18306000000D
:1005B00041417F7F000000080C0603060C08008004
:1005C000808080808080800000030704000000207D
:1005D0007454543C784000413F7F44447C38003898
:1005E0007C44446C280000307848493F7F40003804
:1005F0007C54545C180000487E7F49030200009838
:10060000BCA4A4F87C0400417F7F08047C7800002F
:10061000447D7D4000000040C484FD7D0000004119
:100620007F7F10386C440000417F7F400000007CD9
:100630007C0C180C7C78007C7C04047C78000038EE
:100640007C44447C38000084FCF8A4243C18001846
:100650003C24A4F8FC8400447C78441C1800004826
:100660005C54547424000000043E7F442400003C89
:100670007C40403C7C40001C3C60603C1C00003CDA
:100680007C6030607C3C00446C3810386C44009CCA
:10069000BCA0A0FC7C00004C64745C4C64000008AE
:1006A000083E7741410000000000777700000041DC
:1006B00041773E0808000002030103020301000025
:1006C00011241FBECFEFD4E0DEBFCDBF11E0A0E00C
:1006D000B1E0ECE0FDE102C005900D92AC3DB10748
:1006E000D9F721E0ACEDB1E001C01D92A03FB20707
:1006F000E1F70E947F030C94840E0C941708CF93AB
:10070000DF9300D0CDB7DEB70E9401060E94A0069D
:100710000E941F0861E070E081E090E00E94060501
:1007200062E070E081E090E00E94060563E070E026
:1007300081E090E00E9406058FEF9FEF9A83898306
:100740000E94D7080E949F0900EA16E80AC00E948A
:1007500094060E94B30909C089819A8101979A83FE
:1007600089830E948206892B91F782E090E00E94A3
:100770005C0981E40E94B30989819A8189819A8107
:10078000892B51F71A830983E7CF009769F08130ED
:100790009105E1F08230910559F183309105D1F155
:1007A000049709F449C00895E0911201F0911301F2
:1007B0002081318181E090E002C0880F991F6A9505
:1007C000E2F7822B932B918380830895E0911001AF
:1007D000F09111012081318181E090E002C0880F09
:1007E000991F6A95E2F7822B932B9183808308955A
:1007F000E0910E01F0910F012081318181E090E0C4
:1008000002C0880F991F6A95E2F7822B932B918380
:1008100080830895E0910C01F0910D0120813181D8
:1008200081E090E002C0880F991F6A95E2F7822B61
:10083000932B918380830895E0910A01F0910B013D
:100840002081318181E090E002C0880F991F6A9574
:10085000E2F7822B932B91838083A5CF009741F5FC
:10086000452B91F0E0911C01F0911D012081318117
:1008700081E090E002C0880F991F6A95E2F7822B11
:10088000932B918380830895E0911C01F0911D01C9
:100890002081318181E090E002C0880F991F6A9524
:1008A000E2F7809590958223932391838083089526
:1008B0008130910559F08230910581F183309105A5
:1008C00009F454C0049709F479C00895452B91F0B8
:1008D000E0911A01F0911B012081318181E090E0CB
:1008E00002C0880F991F6A95E2F7822B932B9183A0
:1008F00080830895E0911A01F0911B0120813181DC
:1009000081E090E002C0880F991F6A95E2F7809518
:10091000909582239323918380830895452B91F0B2
:10092000E0911801F09119012081318181E090E07E
:1009300002C0880F991F6A95E2F7822B932B91834F
:1009400080830895E0911801F0911901208131818F
:1009500081E090E002C0880F991F6A95E2F78095C8
:10096000909582239323918380830895452B91F062
:10097000E0911601F09117012081318181E090E032
:1009800002C0880F991F6A95E2F7822B932B9183FF
:1009900080830895E0911601F09117012081318143
:1009A00081E090E002C0880F991F6A95E2F7809578
:1009B000909582239323918380830895452BA1F4FE
:1009C000E0911401F09115012081318181E090E0E6
:1009D00002C0880F991F6A95E2F78095909582234F
:1009E00093239183808371CFE0911401F0911501DD
:1009F0002081318181E090E002C0880F991F6A95C3
:100A0000E2F7822B932B918380830895009719F14D
:100A100081309105C9F18230910509F44AC08330D3
:100A2000910509F45BC08430910549F5E0910A0114
:100A3000F0910B014081518121E030E0062E02C08F
:100A4000220F331F0A94E2F7209530952423352393
:100A50003183208314C0E0911201F0911301408191
:100A6000518121E030E0062E02C0220F331F0A948C
:100A7000E2F720953095242335233183208341E00C
:100A800050E00E942E040895E0911001F0911101B0
:100A90004081518121E030E0062E02C0220F331F39
:100AA0000A94E2F72095309524233523318320835F
:100AB000E6CFE0910E01F0910F014081518121E0DC
:100AC00030E0062E02C0220F331F0A94E2F7209571
:100AD00030952423352331832083D1CFE0910C013D
:100AE000F0910D014081518121E030E0062E02C0DD
:100AF000220F331F0A94E2F72095309524233523E3
:100B000031832083BCCF009771F08130910509F1CA
:100B100082309105A1F18330910509F446C0049714
:100B200009F459C00895E0910801F091090120816C
:100B3000318181E090E0062E02C0880F991F0A944F
:100B4000E2F78223932302C0959587956A95E2F791
:100B50000895E0910601F09107012081318181E043
:100B600090E0062E02C0880F991F0A94E2F78223B4
:100B7000932302C0959587956A95E2F70895E091D1
:100B80000401F09105012081318181E090E0062E81
:100B900002C0880F991F0A94E2F78223932302C0B0
:100BA000959587956A95E2F70895E0910201F09195
:100BB00003012081318181E090E0062E02C0880F80
:100BC000991F0A94E2F78223932302C09595879593
:100BD0006A95E2F70895E0910001F091010120810A
:100BE000318181E090E0062E02C0880F991F0A949F
:100BF000E2F78223932302C0959587956A95E2F7E1
:100C0000089561E070E083E090E00E94C50370E029
:100C100060E083E090E00E940605E0912201F091FF
:100C200023011082E0912001F09121018FE1808366
:100C3000E0912601F091270181E090E09C01009075
:100C4000360102C0220F331F0A94E2F7AC01009074
:100C5000380102C0440F551F0A94E2F7242B208369
:100C6000E0912401F09125019C0100902A0102C02D
:100C7000220F331F0A94E2F700902C0102C0880F64
:100C8000991F0A94E2F7822B23E030E000902E01B6
:100C900002C0220F331F0A94E2F7822B808364E99B
:100CA00076E085E796E00E94F4090895E091280136
:100CB000F0912901208181E090E00090340102C090
:100CC000880F991F0A94E2F730E082239323089556
:100CD000CF93C82F0E945606892B29F0E0911E0160
:100CE000F0911F01C083CF910895CF93C82F0E9428
:100CF0005606892BE1F3E0911E01F0911F01C0839C
:100D0000CF910895E0912801F0912901208181E09F
:100D100090E00090300102C0880F991F0A94E2F71A
:100D200030E08223932308950E948206892B31F0BC
:100D3000E0911E01F0911F018081089580E00895E7
:100D4000E0914601F0914701808121E030E0A90166
:100D50000090420102C0440F551F0A94E2F7842B11
:100D60008083E0914001F0914101408183E090E077
:100D700000903E0102C0880F991F0A94E2F7809507
:100D800084238083E0914001F091410180810090B3
:100D90003A0102C0220F331F0A94E2F7282B208366
:100DA00008950F931F93CF93DF93CDB7DEB72897A6
:100DB0000FB6F894DEBF0FBECDBFE091E301F0E0C7
:100DC0000091E20110E09091E5018091E101891725
:100DD00008F040C02091E5018091E1016091DE01C1
:100DE0007091DF01281B330B44E6429FC001439FF3
:100DF000900D11240E94CC099B019091E4018091F7
:100E0000E0018917B0F18091E4016091E00144E6CE
:100E1000849FC001112470E00E94CC0964567109BE
:100E20003A8329837C836B83FE83ED8318870F834A
:100E30003A81462F5C816E2F7E81802F988528967F
:100E40000FB6F894DEBF0FBECDBFDF91CF911F91DB
:100E50000F9108958091E5016091E10124E6829F60
:100E6000C001112470E00E94CC099B012456310975
:100E7000C4CF4091E4018091E0016091DC01709168
:100E8000DD01481B550BA4E6A49FC001A59F900D52
:100E900011240E94CC09C4CFCF93DF93CDB7DEB726
:100EA00028970FB6F894DEBF0FBECDBF29833A83D3
:100EB0004B835C8389819A812B813C81BC0199237E
:100EC000BCF0A9013323CCF046175707DCF4853179
:100ED00091051CF58C3E9F4F1CF190E080E0289618
:100EE0000FB6F894DEBF0FBECDBFDF91CF9108954E
:100EF00066277727681B790BE4CF44275527421BC9
:100F0000530BE2CF81E090E02531310544F72C3ED0
:100F10003F4F4CF090E080E0E2CF84E090E0DFCF04
:100F200083E090E0DCCF82E090E0D9CF1F920F9277
:100F30000FB60F9211242F933F934F935F936F93AC
:100F40007F938F939F93AF93BF93EF93FF93CF9331
:100F5000DF93CDB7DEB72897DEBFCDBFF894E09121
:100F60005601F091570180818093E4018081809344
:100F7000E50180818093E30180818093E2010E94FA
:100F8000D10629833A834B835C836D837E838F8371
:100F900098870E944C073091E2012091E3019F93D2
:100FA0008F931F923F931F922F938C818F938B81EE
:100FB0008F938A818F9389818F9386E691E09F93A7
:100FC0008F930E943F0A1ABE0FB6F894DEBF0FBE81
:100FD000CDBF28960FB6F894DEBF0FBECDBFDF9110
:100FE000CF91FF91EF91BF91AF919F918F917F91A1
:100FF0006F915F914F913F912F910F900FBE0F9086
:101000001F9018951F920F920FB60F921124EF9315
:10101000FF93F894E0915601F0915701108219BEA8
:10102000FF91EF910F900FBE0F901F9018951F9298
:101030000F920FB60F92112481E28CB9FECF1F934D
:10104000CF93DF931F92CDB7DEB704B600FC35C057
:1010500004B601FC37C004B602FC39C004B603FC78
:101060003BC004B604FC3DC014BE65E070E083E004
:1010700090E00E9406058FB58E7F8FBD8FB5826888
:101080008FBD8EB588618EBD1BBC81E08ABD15BC4D
:1010900083E084BD8EB58A7F8EBD8EB582608EBDA5
:1010A00065E070E083E090E00E94C503E0915601A6
:1010B000F091570110821AE01FC08BE891E00E9466
:1010C0005C0AC6CF8CE991E00E945C0AC4CF8DEA2D
:1010D00091E00E945C0AC2CF8EEB91E00E945C0A14
:1010E000C0CF8FEC91E00E945C0ABECF198389814A
:1010F000815089838111FBCF65E070E083E090E04F
:101100000E948305892B91F3E0915601F0915701DC
:1011100080818093E00180818093E1012091E10151
:101120008FEF90E0AC01421B51095093DF014093D7
:10113000DE012091E001821B91099093DD018093F3
:10114000DC01EBE8F0E080818064808380818C7F2B
:101150008083EAE8F0E080818F7E808380818860F0
:10116000808384E08093870080E58093860080817F
:101170008D7F808380818560808385B7836085BF14
:1011800080E48BBF80E180937D0078940F90DF91A5
:10119000CF911F910895E0915E01F0915F018083EE
:1011A0000895E0915C01F0915D0180830895E091E4
:1011B0005E01F0915F018EEA8083E0915E01F09123
:1011C0005F0181EA8083E0915E01F0915F018AED29
:1011D0008083E0915E01F0915F0182E18083E09184
:1011E0005E01F0915F0188EC8083E0915E01F091F7
:1011F0005F0188EA8083E0915E01F0915F018FE3F7
:101200008083E0915E01F0915F0185ED8083E09144
:101210005E01F0915F0180E88083E0915E01F091D2
:101220005F0181E88083E0915E01F0915F0180E5DC
:101230008083E0915E01F0915F0189ED8083E09110
:101240005E01F0915F0181E28083E0915E01F091A7
:101250005F0180E28083E0915E01F0915F0182E0B6
:101260008083E0915E01F0915F018BED8083E091DE
:101270005E01F0915F0180E38083E0915E01F09177
:101280005F018DEA8083E0915E01F0915F01108241
:10129000E0915E01F0915F0184EA8083E0915E015C
:1012A000F0915F0186EA8083E0915E01F0915F0139
:1012B0008FEA8083089508958830910528F081E2AF
:1012C00090E00E94550A08958055E0915E01F091EA
:1012D0005F01808308958038910528F081E290E0D5
:1012E0000E94550A0895282F207F929582958F702D
:1012F00089279F7089278F70805FE0915E01F09150
:101300005F012083E0915E01F0915F018083089589
:101310000E945C0980E890E0E0915C01F0915D0141
:1013200010820197C9F70895CF93DF93EB010E94D4
:101330005C09CE010E946B09DF91CF910895CF9394
:10134000DF93D0E0C0E0CE010E9488092196C8302A
:10135000D105C9F770E060E090E080E00E94940958
:10136000DF91CF9108958052282F30E0220F331F54
:10137000220F331F220F331FF901E953FC4F215372
:101380003C4F8491A0915C01B0915D018C933196AA
:10139000E217F307B1F7089597FB072E16F40094B0
:1013A00007D077FD09D00E94E00907FC05D03EF484
:1013B000909581959F4F0895709561957F4F089501
:1013C000AA1BBB1B51E107C0AA1FBB1FA617B7076B
:1013D00010F0A61BB70B881F991F5A95A9F7809587
:1013E0009095BC01CD0108950F931F93CF93DF9388
:1013F000009759F46115710541F4F0E0E0E0CF0188
:10140000DF91CF911F910F9108958B01EC016EE058
:1014100070E081E090E00E94610CFC01892B69F38F
:1014200080E883830115110571F01387028781E835
:1014300083838091E6019091E701892B21F4F09359
:10144000E701E093E6012097D1F2D187C08783813D
:10145000826083838091E8019091E901892B79F67C
:10146000F093E901E093E8018091EA019091EB01AA
:10147000892B29F6F093EB01E093EA01C0CFB0E0AD
:10148000A0E0E5E4FAE00C945D0EAE014B5F5F4F27
:10149000FA0161917191AF018091E8019091E901A8
:1014A0000E94870AE2E00C94790E6091E801709145
:1014B000E9010E94BF0D08950F931F93CF93DF930F
:1014C000E091E801F091E9012381EC0110E000E0F6
:1014D00021FD08C00FEF1FEF14C00995892B11F0F3
:1014E0000FEF1FEF89916091E8017091E901DB0135
:1014F0001896ED91FC918111F0CF8AE00995892B26
:1015000049F7C801DF91CF911F910F910895ABE08A
:10151000B0E0EDE8FAE00C944D0E7C013B018A014D
:10152000FC0117821682838181FFC8C1CE0101961A
:101530005C01F7019381F30193FD859193FF819104
:101540003F01882309F453C1853239F493FD859115
:1015500093FF81913F01853229F4B70190E00E9409
:10156000BF0DE7CF912C212C312CFFE1F31538F082
:101570008B3211F190F4803209F1833229F137FC7A
:101580003CC020ED280F2A3050F536FE20C08AE0FE
:10159000989E200D1124922E06C08D3291F080333A
:1015A00071F7689430F8F30193FD859193FF819171
:1015B0003F018111DACF21C0689431F8689432F884
:1015C000F2CF689433F8EFCF689434F8ECCFEAE0C8
:1015D0002E9E200D1124222E689435F8E4CF8E32F1
:1015E00029F436FC04C1689436F8DDCF8C3619F442
:1015F000689437F8D8CF8836B1F2982F9F7D9554EC
:101600009330E0F08336A1F18337C1F1833509F0DF
:1016100063C02801F2E04F0E511CF801C080D18058
:10162000692D70E036FC02C06FEF7FEFC6010E94AB
:10163000A20D4C01689437F882010AC00C5F1F4F5D
:10164000FFE3F98388248394912C6501E89437F8AB
:1016500033FE2DC0522C8114910471F5552009F4EC
:1016600068CFB70180E290E00E94BF0D5A94F6CF98
:10167000F801808189830E5F1F4FE4CF2801F2E0DB
:101680004F0E511CF801C080D180692D70E036FCEE
:1016900002C06FEF7FEFC6010E94B40D4C018201C2
:1016A000D5CFB70180E290E00E94BF0D2A942814A4
:1016B000190409F0B0F7CECFF60137FC859137FE5B
:1016C00081916F01B70190E00E94BF0D51105A94B3
:1016D000F1E08F1A9108BFCF843619F0893609F0EE
:1016E00077C0F80137FE6BC0608171818281938180
:1016F0000C5F1F4FF32DFF763F2E97FF09C090958B
:101700008095709561957F4F8F4F9F4F689437F804
:101710002AE030E0A5010E94EF0DC82ECA188C2CDB
:10172000432C36FE0CC0E89440F8C91440F434FE53
:1017300005C032FC03C0F32DFE7E4F2E892C44FEE3
:1017400095C0FE01EC0DF11D8081803309F087C04A
:10175000242D297E422E842D8870582E43FC95C05E
:1017600040FE8FC09C2C821418F42C0C922C9818DC
:1017700044FE91C0B70180E390E00E94BF0D42FE9D
:1017800009C088E790E041FE02C088E590E0B7011B
:101790000E94BF0DC91408F48AC0CA94D12C9FEFCF
:1017A000C91AD90ACA0CDB1CF60182916F01B70174
:1017B00090E00E94BF0DAC14BD04B1F74FCF608123
:1017C0007181072E000C880B990B0E5F1F4F92CF73
:1017D000D32CE894D4F82AE030E0853739F1232D72
:1017E000297FD22E8F3601F148F48835A9F0F70110
:1017F000868197812B96E2E10C94690E803749F03F
:101800008837A9F7D4FE02C06894D2F820E130E00E
:101810000DC06894D4F8F6CF34FE03C0822F8660E2
:10182000D82E20E132E002C028E030E0F801D7FEF7
:101830000FC060817181828193810C5F1F4FA50170
:101840000E94EF0DC82ECA183D2CE89437F867CFD8
:101850006081718190E080E00E5F1F4FF0CF42FC0D
:1018600002C0839478CF8394839475CF842D867837
:1018700009F471CFF6CFB70180E290E00E94BF0D6E
:1018800083948214C0F3512C73CF522C58188214B5
:1018900008F46ECFF8CF842D867809F47BCF8BE2E5
:1018A00041FE80E247FC8DE2B70190E071CFB701C5
:1018B00080E390E00E94BF0D9A946CCF8FEF9FEF72
:1018C00099CF0F931F93CF93DF93869F8001879FBC
:1018D000100D969F100D1124C8010E947D0CEC0183
:1018E000009729F0A80170E060E00E94AD0DCE01E4
:1018F000DF91CF911F910F9108950F931F93CF9375
:10190000DF938230910510F482E090E0E091EE01E7
:10191000F091EF0130E020E0B0E0A0E0309799F4E2
:101920002115310509F44AC0281B390B2430310533
:10193000D8F58A819B816115710589F1FB0193833B
:101940008283FE0111C040815181028113814817B9
:101950005907E0F04817590799F4109761F012966B
:101960000C93129713961C933296CF01DF91CF916F
:101970001F910F9108950093EE011093EF01F4CFA2
:101980002115310551F04217530738F0A901DB0149
:101990009A01BD01DF01F801C1CFEF01F9CF9093AA
:1019A000EF018093EE01CDCFFE01E20FF31F819393
:1019B00091932250310939832883D7CF2091EC01AC
:1019C0003091ED01232B41F42091620130916301AC
:1019D0003093ED012093EC01209160013091610181
:1019E0002115310541F42DB73EB740916401509166
:1019F0006501241B350BE091EC01F091ED01E2173C
:101A0000F307A0F42E1B3F0B2817390778F0AC0121
:101A10004E5F5F4F2417350748F04E0F5F1F5093FE
:101A2000ED014093EC01819391939FCFF0E0E0E0D2
:101A30009CCFCF93DF930097E9F0FC01329713829C
:101A40001282A091EE01B091EF01ED0130E020E0B3
:101A50001097A1F420813181820F931F2091EC0116
:101A60003091ED012817390709F061C0F093ED01BD
:101A7000E093EC01DF91CF910895EA01CE17DF07E3
:101A8000E8F54A815B819E0141155105B1F7E901F5
:101A9000FB83EA8349915991C40FD51FEC17FD07C9
:101AA00061F4808191810296840F951FE9019983E9
:101AB0008883828193819B838A83F0E0E0E01296A1
:101AC0008D919C9113970097B9F52D913C911197A9
:101AD000CD010296820F931F2091EC013091ED0110
:101AE0002817390739F6309751F51092EF01109207
:101AF000EE01B093ED01A093EC01BCCFD383C28380
:101B000040815181840F951FC817D90761F44E5F3A
:101B10005F4F88819981480F591F518340838A8183
:101B20009B81938382832115310509F0B0CFF09317
:101B3000EF01E093EE019ECFFD01DC01C0CF1382E7
:101B40001282D7CFFC010590615070400110D8F788
:101B5000809590958E0F9F1F0895DC0101C06D93B5
:101B600041505040E0F70895FC01615070400190F1
:101B70000110D8F7809590958E0F9F1F08950F93B1
:101B80001F93CF93DF93182F092FEB018B8181FDDA
:101B900009C01FEF0FEF812F902FDF91CF911F9181
:101BA0000F91089582FF14C02E813F818C819D8109
:101BB000281739073CF4E881F981CF010196998310
:101BC000888310838E819F8101969F838E83E3CFCC
:101BD000E885F985812F0995892BA1F3DACFFA01E0
:101BE000AA27283051F1203181F1E8946F936E7F5C
:101BF0006E5F7F4F8F4F9F4FAF4FB1E03ED0B4E04D
:101C00003CD0670F781F891F9A1FA11D680F791F8D
:101C10008A1F911DA11D6A0F711D811D911DA11D9E
:101C200020D009F468943F912AE0269F11243019AE
:101C3000305D3193DEF6CF010895462F4770405D49
:101C40004193B3E00FD0C9F7F6CF462F4F70405DF8
:101C50004A3318F0495D31FD4052419302D0A9F753
:101C6000EACFB4E0A6959795879577956795BA954D
:101C7000C9F700976105710508959B01AC010A2E13
:101C800006945795479537952795BA95C9F7620FEA
:101C9000731F841F951FA01D08952F923F924F928E
:101CA0005F926F927F928F929F92AF92BF92CF92EC
:101CB000DF92EF92FF920F931F93CF93DF93CDB7F5
:101CC000DEB7CA1BDB0B0FB6F894DEBF0FBECDBF6D
:101CD00009942A88398848885F846E847D848C843E
:101CE0009B84AA84B984C884DF80EE80FD800C8147
:101CF0001B81AA81B981CE0FD11D0FB6F894DEBF2A
:0C1D00000FBECDBFED010895F894FFCF99
:101D0C002500300033003600390026003100340045
:101D1C0037003A0027003200350038003B002C0019
:101D2C002900400040002A002B000700030001009E
:101D3C000700060005000400030005000400030072
:101D4C0050000700060055000700060005000400BF
:101D5C000100560000180014002000100022002082
:101D6C000000F0012000783A2025642C20793A20DC
:101D7C0025642C20613A2025752C20623A2025758B
:101D8C002C20643A202564200D0A00506F77657270
:101D9C002D6F6E2072657365742E0D004578746519
:101DAC00726E616C207265736574210D0042726FE6
:101DBC00776E6F7574207265736574210D005761B1
:101DCC00746368646F67207265736574210D004AD3
:0C1DDC00544147207265736574210D00AE
:00000001FF
