:100000000C9438000C944D000C944D000C944D0051
:100010000C944D000C944D000C944D000C944D002C
:100020000C944D000C944D000C944D000C944D001C
:100030000C944D000C944D000C944D000C944D000C
:100040000C944D000C944D000C944D000C944D00FC
:100050000C944D000C944D000C944D000C944D00EC
:100060000C944D000C944D000C944D000C944D00DC
:1000700011241FBECFEFD4E0DEBFCDBF11E0A0E062
:10008000B1E0ECEDF6E002C005900D92AA33B107A5
:10009000D9F70E944F000C946C030C940000CF938E
:1000A000DF9300D0CDB7DEB70E94E00260E070E0E1
:1000B00080E090E00E94250161E070E080E090E047
:1000C0000E94250162E070E080E090E00E9425013E
:1000D0001A82198201E010E0DD24D3940F2EF0E1A2
:1000E000EF2EF7E2FF2EF02DC12C0E944E03892B3C
:1000F00081F00E942F03892B61F00E9460030E940F
:100100004103A80162E070E080E090E00E948C0171
:1001100012C00E942F03892B71F089819A81892B4B
:1001200051F481E60E944103A80161E070E080E0A3
:1001300090E00E948C0189819A81892B79F4A80131
:1001400060E070E080E090E00E948C018D2D012B3A
:1001500009F08C2D082F10E0FA82E98289819A81BA
:1001600001979A838983C1CF0097A1F4E09112018E
:10017000F09113012081318181E090E002C0880F6D
:10018000991F6A95E2F78095909582239323918336
:100190008083089581309105A1F4E0911001F091E0
:1001A00011012081318181E090E002C0880F991F08
:1001B0006A95E2F7809590958223932391838083BB
:1001C000089582309105A1F4E0910E01F0910F01A4
:1001D0002081318181E090E002C0880F991F6A95EB
:1001E000E2F78095909582239323918380830895ED
:1001F00083309105A1F4E0910C01F0910D01208173
:10020000318181E090E002C0880F991F6A95E2F782
:1002100080959095822393239183808308950497FA
:1002200099F4E0910A01F0910B012081318181E084
:1002300090E002C0880F991F6A95E2F7809590952B
:1002400082239323918380830895009791F4E09112
:100250001201F09113012081318181E090E002C010
:10026000880F991F6A95E2F7822B932B91838083E5
:1002700008958130910591F4E0911001F091110100
:100280002081318181E090E002C0880F991F6A953A
:10029000E2F7822B932B918380830895823091051E
:1002A00091F4E0910E01F0910F012081318181E004
:1002B00090E002C0880F991F6A95E2F7822B932B7A
:1002C0009183808308958330910591F4E0910C012E
:1002D000F0910D012081318181E090E002C0880F12
:1002E000991F6A95E2F7822B932B9183808308955F
:1002F000049789F4E0910A01F0910B01208131818A
:1003000081E090E002C0880F991F6A95E2F7822B86
:10031000932B918380830895009741F5452B91F0AD
:10032000E0911C01F0911D012081318181E090E07C
:1003300002C0880F991F6A95E2F7822B932B918355
:1003400080830895E0911C01F0911D01208131818D
:1003500081E090E002C0880F991F6A95E2F78095CE
:100360009095822393239183808308958130910512
:1003700041F5452B91F0E0911A01F0911B0120818C
:10038000318181E090E002C0880F991F6A95E2F701
:10039000822B932B918380830895E0911A01F09131
:1003A0001B012081318181E090E002C0880F991FFC
:1003B0006A95E2F7809590958223932391838083B9
:1003C00008958230910541F5452B91F0E091180197
:1003D000F09119012081318181E090E002C0880F05
:1003E000991F6A95E2F7822B932B9183808308955E
:1003F000E0911801F09119012081318181E090E0B4
:1004000002C0880F991F6A95E2F780959095822324
:1004100093239183808308958330910541F5452B83
:1004200091F0E0911601F09117012081318181E076
:1004300090E002C0880F991F6A95E2F7822B932BF8
:10044000918380830895E0911601F0911701208136
:10045000318181E090E002C0880F991F6A95E2F730
:1004600080959095822393239183808308950497A8
:1004700039F5452B91F0E0911401F091150120819F
:10048000318181E090E002C0880F991F6A95E2F700
:10049000822B932B918380830895E0911401F09136
:1004A00015012081318181E090E002C0880F991F01
:1004B0006A95E2F7809590958223932391838083B8
:1004C00008950097B1F4E0910801F091090180814D
:1004D000918121E030E0062E02C0220F331F0A94E2
:1004E000E2F72823392302C0359527956A95E2F76C
:1004F00064C081309105B1F4E0910601F0910701EB
:100500008081918121E030E0062E02C0220F331F4E
:100510000A94E2F72823392302C0359527956A9576
:10052000E2F74BC082309105B1F4E0910401F09103
:1005300005018081918121E030E0062E02C0220F6A
:10054000331F0A94E2F72823392302C035952795F3
:100550006A95E2F732C083309105B1F4E09102016F
:10056000F09103018081918121E030E0062E02C0EC
:10057000220F331F0A94E2F72823392302C035954E
:1005800027956A95E2F719C00497B1F4E09100014C
:10059000F09101018081918121E030E0062E02C0BE
:1005A000220F331F0A94E2F72823392302C035951E
:1005B00027956A95E2F701C00895822F932F089539
:1005C00061E070E083E090E00E94250160E070E06F
:1005D00083E090E00E94B400E0912201F0912301B9
:1005E0001082E0912001F09121018FEF8083E09152
:1005F0002601F091270181E090E0AC0100903601E6
:1006000002C0440F551F0A94E2F79C010090380184
:1006100002C0220F331F0A94E2F7242B2083E091BB
:100620002401F09125019C0100902A0102C0220FB3
:10063000331F0A94E2F700902C0102C0880F991F23
:100640000A94E2F7822B23E030E000902E0102C0F2
:10065000220F331F0A94E2F7822B80830895E091E2
:100660002801F0912901208181E090E0009034017F
:1006700002C0880F991F0A94E2F730E08223932387
:100680000895CF93C82F0E942F03892B29F0E09162
:100690001E01F0911F01C083CF910895E0912801C0
:1006A000F0912901208181E090E00090300102C0AA
:1006B000880F991F0A94E2F730E08223932308956C
:1006C0000E944E03892B31F0E0911E01F0911F0131
:0C06D0008081089580E00895F894FFCF29
:1006DC00250030003300360039002600310034008C
:1006EC0037003A0027003200350038003B002C0060
:1006FC002900400040002A002B00070003000100E5
:0A070C0007000600050004000300CA
:00000001FF
