:100000000C9438000C9455000C9455000C94550039
:100010000C9455000C9455000C9455000C9455000C
:100020000C9455000C9455000C9455000C945500FC
:100030000C9455000C9455000C9455000C945500EC
:100040000C9455000C9455000C9455000C945500DC
:100050000C9455000C9455000C9455000C945500CC
:100060000C9455000C9455000C9455000C945500BC
:1000700011241FBECFEFD4E0DEBFCDBF11E0A0E062
:10008000B1E0E2ECF0E102C005900D92A636B107B6
:10009000D9F721E0A6E6B1E001C01D92A037B20772
:1000A000E1F70E9457000C945F080C940000CF9376
:1000B000DF9300D0CDB7DEB70E940F030E94A203EA
:1000C0001A82198210E000E00F2EF8E86F2EF3E19B
:1000D0007F2EF02D0F2EFCE4CF2EF1E0DF2EF02D41
:1000E0000F2EF0E18F2EF7E29F2EF02D0F2EF7E569
:1000F000EF2EF1E0FF2EF02DAA24A394B12C12C014
:1001000089819A819F938F93DF92CF920E944C04B2
:100110000F900F900F900F900CC089819A810197DA
:100120009A83898389819A81B3010E94D903892B9B
:1001300039F389819A81892B81F79A8289821F9369
:100140000F93FF92EF920E944C04C501002E02C053
:10015000880F991F0A94E2F7E0914401F09145015C
:10016000E80FF91F10820F5F1F4F077010780F9074
:100170000F900F900F90112384F601501109086F12
:100180001F6F0F5F1F4FC9CF009769F08130910536
:10019000E1F08230910559F183309105D1F1049756
:1001A00009F449C00895E0911201F09113012081F2
:1001B000318181E090E002C0880F991F6A95E2F7D3
:1001C000822B932B918380830895E0911001F0910D
:1001D00011012081318181E090E002C0880F991FD8
:1001E0006A95E2F7822B932B918380830895E091A7
:1001F0000E01F0910F012081318181E090E002C079
:10020000880F991F6A95E2F7822B932B9183808345
:100210000895E0910C01F0910D012081318181E080
:1002200090E002C0880F991F6A95E2F7822B932B0A
:10023000918380830895E0910A01F0910B01208160
:10024000318181E090E002C0880F991F6A95E2F742
:10025000822B932B91838083A5CFCF930097B1F509
:10026000452BA9F4E0911C01F0911D012081318101
:1002700081E090E002C0880F991F6A95E2F78095AF
:1002800090958223932391838083CF910895C62FE5
:1002900061E070E083E090E00E94C40070E060E004
:1002A00083E090E00E941402E0911C01F0911D0196
:1002B0002081318181E090E002C0880F991FCA95AA
:1002C000E2F7822B932B91838083DFCF81309105DE
:1002D00009F18230910509F445C08330910509F494
:1002E00069C0049791F6452B09F08CC0E091140188
:1002F000F09115012081318181E090E002C0880FEA
:10030000991F6A95E2F780959095822393239183B4
:100310008083BBCF452B91F0E0911A01F0911B0136
:100320002081318181E090E002C0880F991F6A9599
:10033000E2F7822B932B91838083A7CFE0911A0160
:10034000F0911B012081318181E090E002C0880F93
:10035000991F6A95E2F78095909582239323918364
:10036000808393CF452B91F0E0911801F091190112
:100370002081318181E090E002C0880F991F6A9549
:10038000E2F7822B932B918380837FCFE09118013A
:10039000F09119012081318181E090E002C0880F45
:1003A000991F6A95E2F78095909582239323918314
:1003B00080836BCF452B91F0E0911601F0911701EE
:1003C0002081318181E090E002C0880F991F6A95F9
:1003D000E2F7822B932B9183808357CFE091160114
:1003E000F09117012081318181E090E002C0880FF7
:1003F000991F6A95E2F780959095822393239183C4
:10040000808343CFE0911401F09115012081318167
:1004100081E090E002C0880F991F6A95E2F7822B75
:10042000932B9183808331CF009719F1813091050F
:10043000C9F18230910509F44AC08330910509F46D
:100440005BC08430910549F5E0910A01F0910B0100
:100450004081518121E030E0062E02C0220F331F7F
:100460000A94E2F7209530952423352331832083A5
:1004700014C0E0911201F09113014081518121E0FB
:1004800030E0062E02C0220F331F0A94E2F72095B7
:100490003095242335233183208341E050E00E94AE
:1004A0002D010895E0911001F091110140815181D9
:1004B00021E030E0062E02C0220F331F0A94E2F73B
:1004C000209530952423352331832083E6CFE09196
:1004D0000E01F0910F014081518121E030E0062EA4
:1004E00002C0220F331F0A94E2F72095309524238F
:1004F000352331832083D1CFE0910C01F0910D01A0
:100500004081518121E030E0062E02C0220F331FCE
:100510000A94E2F7209530952423352331832083F4
:10052000BCCF009771F08130910509F182309105BF
:10053000A1F18330910509F446C0049709F459C02C
:100540000895E0910801F09109012081318181E055
:1005500090E0062E02C0880F991F0A94E2F78223CA
:10056000932302C0959587956A95E2F70895E091E7
:100570000601F09107012081318181E090E0062E93
:1005800002C0880F991F0A94E2F78223932302C0C6
:10059000959587956A95E2F70895E0910401F091A9
:1005A00005012081318181E090E0062E02C0880F94
:1005B000991F0A94E2F78223932302C095958795A9
:1005C0006A95E2F70895E0910201F091030120811C
:1005D000318181E090E0062E02C0880F991F0A94B5
:1005E000E2F78223932302C0959587956A95E2F7F7
:1005F0000895E0910001F09101012081318181E0B5
:1006000090E0062E02C0880F991F0A94E2F7822319
:10061000932302C0959587956A95E2F70895E09136
:100620002201F09123011082E0912001F09121013B
:100630008FE18083E0912601F091270181E090E035
:100640009C010090360102C0220F331F0A94E2F78A
:10065000AC010090380102C0440F551F0A94E2F724
:10066000242B2083E0912401F09125019C0100902E
:100670002A0102C0220F331F0A94E2F700902C01D6
:1006800002C0880F991F0A94E2F7822B23E030E022
:1006900000902E0102C0220F331F0A94E2F7822B32
:1006A000808366E973E087E793E00E940104089580
:1006B000E0912801F0912901208181E090E00090F3
:1006C000340102C0880F991F0A94E2F730E08223B8
:1006D00093230895CF93C82F0E945803892B29F0A4
:1006E000E0911E01F0911F01C083CF910895CF9337
:1006F000C82F0E945803892BE1F3E0911E01F0916D
:100700001F01C083CF910895E0912801F091290144
:10071000208181E090E00090300102C0880F991F95
:100720000A94E2F730E08223932308950E94840321
:10073000892B31F0E0911E01F0911F018081089515
:1007400080E00895CF93DF93D0E0C0E0BE0190E059
:1007500080E00E94C40050E040E0BE0190E080E0F4
:100760000E942D012196C830D10581F7E0913C010E
:10077000F0913D01808124E030E000903A0102C018
:10078000220F331F0A94E2F7822B8083E09140010D
:10079000F0914101808121E030E000903E0102C0F3
:1007A000220F331F0A94E2F7822B8083DF91CF91CF
:1007B000089597FB072E16F4009407D077FD09D013
:1007C0000E94ED0307FC05D03EF4909581959F4F64
:1007D0000895709561957F4F0895AA1BBB1B51E149
:1007E00007C0AA1FBB1FA617B70710F0A61BB70BA1
:1007F000881F991F5A95A9F780959095BC01CD0146
:1008000008950F931F93CF93DF93009759F46115C9
:10081000710541F4F0E0E0E0CF01DF91CF911F914D
:100820000F9108958B01EC016EE070E081E090E0A3
:100830000E943C06FC01892B69F380E88383011543
:10084000110571F01387028781E883838091660127
:1008500090916701892B21F4F0936701E093660181
:100860002097D1F2D187C087838182608383809172
:10087000680190916901892B79F6F0936901E09301
:10088000680180916A0190916B01892B29F6F093A0
:100890006B01E0936A01C0CFB0E0A0E0E2E5F4E0D4
:1008A0000C943808AE014B5F5F4FFA016191719172
:1008B000AF0180916801909169010E946204E2E0B9
:1008C0000C945408ABE0B0E0E8E6F4E00C9428089F
:1008D0007C013B018A01FC0117821682838181FF22
:1008E000C8C1CE0101965C01F7019381F30193FD2C
:1008F000859193FF81913F01882309F453C185328B
:1009000039F493FD859193FF81913F01853229F45C
:10091000B70190E00E949A07E7CF912C212C312C4F
:10092000FFE1F31538F08B3211F190F4803209F1C8
:10093000833229F137FC3CC020ED280F2A3050F5D6
:1009400036FE20C08AE0989E200D1124922E06C00B
:100950008D3291F0803371F7689430F8F30193FD94
:10096000859193FF81913F018111DACF21C0689475
:1009700031F8689432F8F2CF689433F8EFCF689486
:1009800034F8ECCFEAE02E9E200D1124222E68943C
:1009900035F8E4CF8E3229F436FC04C1689436F879
:1009A000DDCF8C3619F4689437F8D8CF8836B1F299
:1009B000982F9F7D95549330E0F08336A1F18337D3
:1009C000C1F1833509F063C02801F2E04F0E511CDC
:1009D000F801C080D180692D70E036FC02C06FEF55
:1009E0007FEFC6010E947D074C01689437F88201B1
:1009F0000AC00C5F1F4FFFE3F98388248394912C76
:100A00006501E89437F833FE2DC0522C811491040F
:100A100071F5552009F468CFB70180E290E00E949B
:100A20009A075A94F6CFF801808189830E5F1F4F91
:100A3000E4CF2801F2E04F0E511CF801C080D180B4
:100A4000692D70E036FC02C06FEF7FEFC6010E9497
:100A50008F074C018201D5CFB70180E290E00E9460
:100A60009A072A942814190409F0B0F7CECFF6019A
:100A700037FC859137FE81916F01B70190E00E94AC
:100A80009A0751105A94F1E08F1A9108BFCF84361B
:100A900019F0893609F077C0F80137FE6BC0608124
:100AA0007181828193810C5F1F4FF32DFF763F2E62
:100AB00097FF09C090958095709561957F4F8F4FF6
:100AC0009F4F689437F82AE030E0A5010E94CA07DA
:100AD000C82ECA188C2C432C36FE0CC0E89440F863
:100AE000C91440F434FE05C032FC03C0F32DFE7E71
:100AF0004F2E892C44FE95C0FE01EC0DF11D808126
:100B0000803309F087C0242D297E422E842D8870E1
:100B1000582E43FC95C040FE8FC09C2C821418F4C4
:100B20002C0C922C981844FE91C0B70180E390E001
:100B30000E949A0742FE09C088E790E041FE02C089
:100B400088E590E0B7010E949A07C91408F48AC0AA
:100B5000CA94D12C9FEFC91AD90ACA0CDB1CF60122
:100B600082916F01B70190E00E949A07AC14BD0416
:100B7000B1F74FCF60817181072E000C880B990B64
:100B80000E5F1F4F92CFD32CE894D4F82AE030E0C8
:100B9000853739F1232D297FD22E8F3601F148F484
:100BA0008835A9F0F701868197812B96E2E10C94B4
:100BB0004408803749F08837A9F7D4FE02C068940A
:100BC000D2F820E130E00DC06894D4F8F6CF34FEBE
:100BD00003C0822F8660D82E20E132E002C028E0D8
:100BE00030E0F801D7FE0FC060817181828193816E
:100BF0000C5F1F4FA5010E94CA07C82ECA183D2CC2
:100C0000E89437F867CF6081718190E080E00E5FF3
:100C10001F4FF0CF42FC02C0839478CF839483941B
:100C200075CF842D867809F471CFF6CFB70180E2B5
:100C300090E00E949A0783948214C0F3512C73CFE2
:100C4000522C5818821408F46ECFF8CF842D867871
:100C500009F47BCF8BE241FE80E247FC8DE2B701D5
:100C600090E071CFB70180E390E00E949A079A94D8
:100C70006CCF8FEF9FEF99CF0F931F93CF93DF939D
:100C8000869F8001879F100D969F100D1124C8012B
:100C90000E945806EC01009729F0A80170E060E07E
:100CA0000E948807CE01DF91CF911F910F91089587
:100CB0000F931F93CF93DF938230910510F482E05E
:100CC00090E0E0916E01F0916F0130E020E0B0E043
:100CD000A0E0309799F42115310509F44AC0281B8A
:100CE000390B24303105D8F58A819B816115710556
:100CF00089F1FB0193838283FE0111C04081518100
:100D00000281138148175907E0F04817590799F4F1
:100D1000109761F012960C93129713961C933296CB
:100D2000CF01DF91CF911F910F91089500936E0134
:100D300010936F01F4CF2115310551F0421753077D
:100D400038F0A901DB019A01BD01DF01F801C1CF33
:100D5000EF01F9CF90936F0180936E01CDCFFE012B
:100D6000E20FF31F81939193225031093983288335
:100D7000D7CF20916C0130916D01232B41F420914C
:100D800048013091490130936D0120936C0120910D
:100D90004601309147012115310541F42DB73EB789
:100DA00040914A0150914B01241B350BE0916C019D
:100DB000F0916D01E217F307A0F42E1B3F0B2817EB
:100DC000390778F0AC014E5F5F4F2417350748F0C4
:100DD0004E0F5F1F50936D0140936C01819391936F
:100DE0009FCFF0E0E0E09CCFCF93DF930097E9F056
:100DF000FC01329713821282A0916E01B0916F01B3
:100E0000ED0130E020E01097A1F420813181820FC4
:100E1000931F20916C0130916D012817390709F05B
:100E200061C0F0936D01E0936C01DF91CF91089563
:100E3000EA01CE17DF07E8F54A815B819E01411583
:100E40005105B1F7E901FB83EA8349915991C40F38
:100E5000D51FEC17FD0761F4808191810296840F04
:100E6000951FE90199838883828193819B838A837B
:100E7000F0E0E0E012968D919C9113970097B9F500
:100E80002D913C911197CD010296820F931F2091D5
:100E90006C0130916D012817390739F6309751F5FB
:100EA00010926F0110926E01B0936D01A0936C01CE
:100EB000BCCFD383C28340815181840F951FC81753
:100EC000D90761F44E5F5F4F88819981480F591FA0
:100ED000518340838A819B819383828321153105CD
:100EE00009F0B0CFF0936F01E0936E019ECFFD014A
:100EF000DC01C0CF13821282D7CFFC010590615074
:100F000070400110D8F7809590958E0F9F1F08951F
:100F1000DC0101C06D9341505040E0F70895FC01A1
:100F20006150704001900110D8F7809590958E0F18
:100F30009F1F08950F931F93CF93DF93182F092FAF
:100F4000EB018B8181FD09C01FEF0FEF812F902FE7
:100F5000DF91CF911F910F91089582FF14C02E81D0
:100F60003F818C819D81281739073CF4E881F98104
:100F7000CF0101969983888310838E819F8101968A
:100F80009F838E83E3CFE885F985812F0995892B8F
:100F9000A1F3DACFFA01AA27283051F1203181F1EB
:100FA000E8946F936E7F6E5F7F4F8F4F9F4FAF4F71
:100FB000B1E03ED0B4E03CD0670F781F891F9A1F84
:100FC000A11D680F791F8A1F911DA11D6A0F711D38
:100FD000811D911DA11D20D009F468943F912AE044
:100FE000269F11243019305D3193DEF6CF0108952C
:100FF000462F4770405D4193B3E00FD0C9F7F6CF5D
:10100000462F4F70405D4A3318F0495D31FD405224
:10101000419302D0A9F7EACFB4E0A69597958795BA
:1010200077956795BA95C9F7009761057105089599
:101030009B01AC010A2E0694579547953795279545
:10104000BA95C9F7620F731F841F951FA01D0895DD
:101050002F923F924F925F926F927F928F929F92C8
:10106000AF92BF92CF92DF92EF92FF920F931F93B6
:10107000CF93DF93CDB7DEB7CA1BDB0B0FB6F89467
:10108000DEBF0FBECDBF09942A88398848885F84A7
:101090006E847D848C849B84AA84B984C884DF8018
:1010A000EE80FD800C811B81AA81B981CE0FD11DFC
:1010B0000FB6F894DEBF0FBECDBFED010895F894D2
:0210C000FFCF60
:1010C200250030003300360039002600310034009C
:1010D20037003A0027003200350038003B002C0070
:1010E2002900400040002A002B00070003000100F5
:1010F200070006000500040003000300500007007B
:10110200550056000010000070012000536C656508
:10111200703A2025640A004C617463682070696E1D
:061122002025640A000014
:00000001FF
