:100000000C9438000C9455000C9455000C94550039
:100010000C9455000C9455000C9455000C9455000C
:100020000C9455000C9455000C9455000C945500FC
:100030000C9455000C9455000C9455000C945500EC
:100040000C9455000C9455000C9455000C945500DC
:100050000C9455000C9455000C9455000C945500CC
:100060000C9455000C9455000C9455000C945500BC
:1000700011241FBECFEFD4E0DEBFCDBF12E0A0E061
:10008000B1E0E4E3F3E102C005900D92AA34B107B8
:10009000D9F722E0AAE4B2E001C01D92A435B2076C
:1000A000E1F70E94E0000C9498090C940000CF92B4
:1000B000DF92EF92FF920F931F93CF93DF9382E52E
:1000C00091E00E940D050E949C046C010E94A10415
:1000D000D0E0C0E010E000E00F2EF9E6EF2EF1E0F6
:1000E000FF2EF02D05C02196C11598E0D907F1F03B
:1000F0000E949C04FE01F85E80832081281799F3FA
:1001000099279F938F931F922F93DF93CF93FF9203
:10011000EF920E94F7040F5F1F4F8DB79EB70896AE
:100120000FB6F8949EBF0FBE8DBFDDCFC6010E94F3
:10013000A104D0E0C0E0F12CE12C0F2EF3EACF2E89
:10014000F1E0DF2EF02D05C02196C11598E0D9070A
:10015000F1F00E949C04FE01F85E20812817A1F3B3
:1001600099279F938F931F922F93DF93CF93DF92C3
:10017000CF920E94F7048FEFE81AF80A8DB79EB766
:1001800008960FB6F8949EBF0FBE8DBFDDCFFF92CD
:10019000EF921F930F9381EE91E09F938F930E94B4
:1001A000F7040F900F900F900F900F900F90DF912A
:1001B000CF911F910F91FF90EF90DF90CF90089516
:1001C000CF93DF9300D0CDB7DEB70E9458030E94D3
:1001D000F7031A82198208E813E10F2EFEE3EF2ECF
:1001E000F2E0FF2EF02D0F2EF0E1CF2EF7E2DF2E02
:1001F000F02D12C089819A819F938F93FF92EF9285
:100200000E94F7040F900F900F900F900CC08981FF
:100210009A8101979A83898389819A81B8010E9482
:100220002804892B39F389819A81892B81F7DA8215
:10023000C9820E945700EBCF009769F08130910589
:10024000E1F08230910559F183309105D1F10497A5
:1002500009F449C00895E0911201F0911301208141
:10026000318181E090E002C0880F991F6A95E2F722
:10027000822B932B918380830895E0911001F0915C
:1002800011012081318181E090E002C0880F991F27
:100290006A95E2F7822B932B918380830895E091F6
:1002A0000E01F0910F012081318181E090E002C0C8
:1002B000880F991F6A95E2F7822B932B9183808395
:1002C0000895E0910C01F0910D012081318181E0D0
:1002D00090E002C0880F991F6A95E2F7822B932B5A
:1002E000918380830895E0910A01F0910B012081B0
:1002F000318181E090E002C0880F991F6A95E2F792
:10030000822B932B91838083A5CF009741F5452BBA
:1003100091F0E0911C01F0911D012081318181E07B
:1003200090E002C0880F991F6A95E2F7822B932B09
:10033000918380830895E0911C01F0911D0120813B
:10034000318181E090E002C0880F991F6A95E2F741
:1003500080959095822393239183808308958130A3
:10036000910559F08230910581F18330910509F4AE
:1003700054C0049709F479C00895452B91F0E09199
:100380001A01F0911B012081318181E090E002C0CF
:10039000880F991F6A95E2F7822B932B91838083B4
:1003A0000895E0911A01F0911B012081318181E0D3
:1003B00090E002C0880F991F6A95E2F780959095AA
:1003C00082239323918380830895452B91F0E091BC
:1003D0001801F09119012081318181E090E002C083
:1003E000880F991F6A95E2F7822B932B9183808364
:1003F0000895E0911801F09119012081318181E087
:1004000090E002C0880F991F6A95E2F78095909559
:1004100082239323918380830895452B91F0E0916B
:100420001601F09117012081318181E090E002C036
:10043000880F991F6A95E2F7822B932B9183808313
:100440000895E0911601F09117012081318181E03A
:1004500090E002C0880F991F6A95E2F78095909509
:1004600082239323918380830895452BA1F4E09107
:100470001401F09115012081318181E090E002C0EA
:10048000880F991F6A95E2F78095909582239323B0
:100490009183808371CFE0911401F0911501208147
:1004A000318181E090E002C0880F991F6A95E2F7E0
:1004B000822B932B918380830895009719F18130CB
:1004C0009105C9F18230910509F44AC08330910544
:1004D00009F45BC08430910549F5E0910A01F0917F
:1004E0000B014081518121E030E0062E02C0220F35
:1004F000331F0A94E2F72095309524233523318366
:10050000208314C0E0911201F091130140815181C8
:1005100021E030E0062E02C0220F331F0A94E2F7DA
:1005200020953095242335233183208341E050E00A
:100530000E9485010895E0911001F0911101408120
:10054000518121E030E0062E02C0220F331F0A94B1
:10055000E2F7209530952423352331832083E6CF9D
:10056000E0910E01F0910F014081518121E030E0D6
:10057000062E02C0220F331F0A94E2F72095309511
:100580002423352331832083D1CFE0910C01F091D6
:100590000D014081518121E030E0062E02C0220F82
:1005A000331F0A94E2F720953095242335233183B5
:1005B0002083BCCF009771F08130910509F1823022
:1005C0009105A1F18330910509F446C0049709F41F
:1005D00059C00895E0910801F0910901208131810D
:1005E00081E090E0062E02C0880F991F0A94E2F77E
:1005F0008223932302C0959587956A95E2F7089523
:10060000E0910601F09107012081318181E090E0C5
:10061000062E02C0880F991F0A94E2F782239323C3
:1006200002C0959587956A95E2F70895E0910401D7
:10063000F09105012081318181E090E0062E02C019
:10064000880F991F0A94E2F78223932302C095959D
:1006500087956A95E2F70895E0910201F091030110
:100660002081318181E090E0062E02C0880F991F21
:100670000A94E2F78223932302C0959587956A95A1
:10068000E2F70895E0910001F091010120813181AC
:1006900081E090E0062E02C0880F991F0A94E2F7CD
:1006A0008223932302C0959587956A95E2F7089572
:1006B00061E070E083E090E00E941C0170E060E087
:1006C00083E090E00E945D02E0912201F09123011D
:1006D0001082E0912001F09121018FE18083E0916F
:1006E0002601F091270181E090E09C010090360105
:1006F00002C0220F331F0A94E2F7AC0100903801C8
:1007000002C0440F551F0A94E2F7242B2083E09186
:100710002401F09125019C0100902A0102C0220FC2
:10072000331F0A94E2F700902C0102C0880F991F32
:100730000A94E2F7822B23E030E000902E0102C001
:10074000220F331F0A94E2F7822B80836BEE73E053
:100750008CEC93E00E94AC040895E0912801F091A4
:100760002901208181E090E00090340102C0880FCF
:10077000991F0A94E2F730E0822393230895CF93E0
:10078000C82F0E94AD03892B29F0E0911E01F09142
:100790001F01C083CF910895CF93C82F0E94AD034E
:1007A000892BE1F3E0911E01F0911F01C083CF91ED
:1007B0000895E0912801F0912901208181E090E0E5
:1007C0000090300102C0880F991F0A94E2F730E0D0
:1007D0008223932308950E94D903892B31F0E0915D
:1007E0001E01F0911F018081089580E00895E0913D
:1007F0004401F0914501808121E030E0A9010090A1
:10080000420102C0440F551F0A94E2F7842B8083F3
:10081000E0914001F0914101408183E090E000903F
:100820003E0102C0880F991F0A94E2F78095842345
:100830008083E0914001F0914101808100903A0174
:1008400002C0220F331F0A94E2F7282B2083089559
:1008500097FB072E16F4009407D077FD09D00E946D
:100860003C0407FC05D03EF4909581959F4F089578
:10087000709561957F4F0895AA1BBB1B51E107C07E
:10088000AA1FBB1FA617B70710F0A61BB70B881F20
:10089000991F5A95A9F780959095BC01CD010895AF
:1008A0008F929F92AF92BF92CF92DF92EF92FF9280
:1008B000CF93DF93EC01688179818A819B816115F7
:1008C00071058105910521F464E279ED8BE597E0EE
:1008D0002DE133EF41E050E00E94FE0849015A014A
:1008E0009B01AC01A7EAB1E40E941D096B017C01E8
:1008F000ACEEB4EFA50194010E942B09DC01CB0101
:100900008C0D9D1DAE1DBF1DB7FF03C00197A10932
:10091000B04888839983AA83BB839F77DF91CF9167
:10092000FF90EF90DF90CF90BF90AF909F908F900F
:1009300008950E945004089588E491E00E945004B4
:100940000895B0E0A0E08093480190934901A093FE
:100950004A01B0934B0108950F931F93CF93DF93F8
:10096000009759F46115710541F4F0E0E0E0CF0122
:10097000DF91CF911F910F9108958B01EC016EE0F3
:1009800070E081E090E00E941207FC01892B69F37E
:1009900080E883830115110571F01387028781E8D0
:1009A000838380914A0290914B02892B21F4F0932A
:1009B0004B02E0934A022097D1F2D187C08783810E
:1009C0008260838380914C0290914D02892B79F64D
:1009D000F0934D02E0934C0280914E0290914F02B1
:1009E000892B29F6F0934F02E0934E02C0CFB0E07E
:1009F000A0E0EDEFF4E00C944009AE014B5F5F4FD7
:100A0000FA0161917191AF0180914C0290914D0278
:100A10000E943805E2E00C945C090F931F93CF937A
:100A2000DF93E0914C02F0914D022381EC0110E044
:100A300000E021FD08C00FEF1FEF14C00995892BBE
:100A400011F00FEF1FEF899160914C0270914D02F0
:100A5000DB011896ED91FC918111F0CF8AE00995A8
:100A6000892B49F7C801DF91CF911F910F9108950C
:100A7000ABE0B0E0EEE3F5E00C9430097C013B0123
:100A80008A01FC0117821682838181FFC8C1CE01D1
:100A900001965C01F7019381F30193FD859193FF2A
:100AA00081913F01882309F453C1853239F493FDC4
:100AB000859193FF81913F01853229F4B70190E040
:100AC0000E947008E7CF912C212C312CFFE1F31507
:100AD00038F08B3211F190F4803209F1833229F130
:100AE00037FC3CC020ED280F2A3050F536FE20C0E0
:100AF0008AE0989E200D1124922E06C08D3291F02E
:100B0000803371F7689430F8F30193FD859193FF7A
:100B100081913F018111DACF21C0689431F8689446
:100B200032F8F2CF689433F8EFCF689434F8ECCF12
:100B3000EAE02E9E200D1124222E689435F8E4CF91
:100B40008E3229F436FC04C1689436F8DDCF8C3639
:100B500019F4689437F8D8CF8836B1F2982F9F7D72
:100B600095549330E0F08336A1F18337C1F183359A
:100B700009F063C02801F2E04F0E511CF801C0805B
:100B8000D180692D70E036FC02C06FEF7FEFC601A7
:100B90000E9453084C01689437F882010AC00C5F28
:100BA0001F4FFFE3F98388248394912C6501E89417
:100BB00037F833FE2DC0522C8114910471F5552065
:100BC00009F468CFB70180E290E00E9470085A945F
:100BD000F6CFF801808189830E5F1F4FE4CF280193
:100BE000F2E04F0E511CF801C080D180692D70E0F9
:100BF00036FC02C06FEF7FEFC6010E9465084C0112
:100C00008201D5CFB70180E290E00E9470082A945B
:100C10002814190409F0B0F7CECFF60137FC8591FE
:100C200037FE81916F01B70190E00E94700851106A
:100C30005A94F1E08F1A9108BFCF843619F08936A3
:100C400009F077C0F80137FE6BC060817181828145
:100C500093810C5F1F4FF32DFF763F2E97FF09C046
:100C600090958095709561957F4F8F4F9F4F6894B9
:100C700037F82AE030E0A5010E94A008C82ECA1863
:100C80008C2C432C36FE0CC0E89440F8C91440F478
:100C900034FE05C032FC03C0F32DFE7E4F2E892C9E
:100CA00044FE95C0FE01EC0DF11D8081803309F0FA
:100CB00087C0242D297E422E842D8870582E43FC17
:100CC00095C040FE8FC09C2C821418F42C0C922CE2
:100CD000981844FE91C0B70180E390E00E9470082C
:100CE00042FE09C088E790E041FE02C088E590E03E
:100CF000B7010E947008C91408F48AC0CA94D12CA4
:100D00009FEFC91AD90ACA0CDB1CF60182916F0148
:100D1000B70190E00E947008AC14BD04B1F74FCF4A
:100D200060817181072E000C880B990B0E5F1F4F9D
:100D300092CFD32CE894D4F82AE030E0853739F10B
:100D4000232D297FD22E8F3601F148F48835A9F062
:100D5000F701868197812B96E2E10C944C0980374C
:100D600049F08837A9F7D4FE02C06894D2F820E190
:100D700030E00DC06894D4F8F6CF34FE03C0822F63
:100D80008660D82E20E132E002C028E030E0F80191
:100D9000D7FE0FC060817181828193810C5F1F4FEC
:100DA000A5010E94A008C82ECA183D2CE89437F867
:100DB00067CF6081718190E080E00E5F1F4FF0CFC0
:100DC00042FC02C0839478CF8394839475CF842DA2
:100DD000867809F471CFF6CFB70180E290E00E94E7
:100DE000700883948214C0F3512C73CF522C58187E
:100DF000821408F46ECFF8CF842D867809F47BCF67
:100E00008BE241FE80E247FC8DE2B70190E071CFBA
:100E1000B70180E390E00E9470089A946CCF8FEF46
:100E20009FEF99CF0F931F93CF93DF93869F8001FE
:100E3000879F100D969F100D1124C8010E942E0748
:100E4000EC01009729F0A80170E060E00E945E08C4
:100E5000CE01DF91CF911F910F9108950F931F93B2
:100E6000CF93DF938230910510F482E090E0E0911F
:100E70005202F091530230E020E0B0E0A0E0309761
:100E800099F42115310509F44AC0281B390B243087
:100E90003105D8F58A819B816115710589F1FB01C6
:100EA00093838283FE0111C04081518102811381AD
:100EB00048175907E0F04817590799F4109761F05F
:100EC00012960C93129713961C933296CF01DF91D2
:100ED000CF911F910F9108950093520210935302E6
:100EE000F4CF2115310551F04217530738F0A9010D
:100EF000DB019A01BD01DF01F801C1CFEF01F9CF9C
:100F00009093530280935202CDCFFE01E20FF31F64
:100F1000819391932250310939832883D7CF20912F
:100F2000500230915102232B41F420914E01309117
:100F30004F01309351022093500220914C01309187
:100F40004D012115310541F42DB73EB740915001B7
:100F500050915101241B350BE0915002F091510248
:100F6000E217F307A0F42E1B3F0B2817390778F080
:100F7000AC014E5F5F4F2417350748F04E0F5F1FDF
:100F80005093510240935002819391939FCFF0E090
:100F9000E0E09CCFCF93DF930097E9F0FC0132971C
:100FA00013821282A0915202B0915302ED0130E0FF
:100FB00020E01097A1F420813181820F931F2091AE
:100FC0005002309151022817390709F061C0F0939F
:100FD0005102E0935002DF91CF910895EA01CE17BC
:100FE000DF07E8F54A815B819E0141155105B1F7A4
:100FF000E901FB83EA8349915991C40FD51FEC178E
:10100000FD0761F4808191810296840F951FE901AB
:1010100099838883828193819B838A83F0E0E0E0D7
:1010200012968D919C9113970097B9F52D913C9153
:101030001197CD010296820F931F2091500230919B
:1010400051022817390739F6309751F5109253029B
:1010500010925202B0935102A0935002BCCFD3839E
:10106000C28340815181840F951FC817D90761F44D
:101070004E5F5F4F88819981480F591F518340838C
:101080008A819B81938382832115310509F0B0CF3A
:10109000F0935302E09352029ECFFD01DC01C0CFDA
:1010A00013821282D7CFFC0105906150704001106D
:1010B000D8F7809590958E0F9F1F0895DC0101C091
:1010C0006D9341505040E0F70895FC01615070402D
:1010D00001900110D8F7809590958E0F9F1F08956D
:1010E0000F931F93CF93DF93182F092FEB018B8161
:1010F00081FD09C01FEF0FEF812F902FDF91CF915E
:101100001F910F91089582FF14C02E813F818C8121
:101110009D81281739073CF4E881F981CF010196B8
:101120009983888310838E819F8101969F838E830C
:10113000E3CFE885F985812F0995892BA1F3DACFD3
:10114000FA01AA27283051F1203181F1E8946F93F8
:101150006E7F6E5F7F4F8F4F9F4FAF4FB1E03ED09E
:10116000B4E03CD0670F781F891F9A1FA11D680F3C
:10117000791F8A1F911DA11D6A0F711D811D911D6F
:10118000A11D20D009F468943F912AE0269F1124E4
:101190003019305D3193DEF6CF010895462F477048
:1011A000405D4193B3E00FD0C9F7F6CF462F4F70A3
:1011B000405D4A3318F0495D31FD4052419302D001
:1011C000A9F7EACFB4E0A6959795879577956795A7
:1011D000BA95C9F700976105710508959B01AC01A7
:1011E0000A2E06945795479537952795BA95C9F7CE
:1011F000620F731F841F951FA01D0895052E97FB76
:101200001EF400940E94150957FD07D00E9467093B
:1012100007FC03D04EF40C94150950954095309579
:1012200021953F4F4F4F5F4F089590958095709552
:1012300061957F4F8F4F9F4F08950E948909A59F09
:10124000900DB49F900DA49F800D911D11240895C1
:10125000B7FF0C941D090E941D09821B930B089572
:101260002F923F924F925F926F927F928F929F92B6
:10127000AF92BF92CF92DF92EF92FF920F931F93A4
:10128000CF93DF93CDB7DEB7CA1BDB0B0FB6F89455
:10129000DEBF0FBECDBF09942A88398848885F8495
:1012A0006E847D848C849B84AA84B984C884DF8006
:1012B000EE80FD800C811B81AA81B981CE0FD11DEA
:1012C0000FB6F894DEBF0FBECDBFED010895A1E2C9
:1012D0001A2EAA1BBB1BFD010DC0AA1FBB1FEE1FB0
:1012E000FF1FA217B307E407F50720F0A21BB30BFB
:1012F000E40BF50B661F771F881F991F1A9469F777
:1013000060957095809590959B01AC01BD01CF01D2
:101310000895A29FB001B39FC001A39F700D811DCE
:101320001124911DB29F700D811D1124911D0895EE
:04133000F894FFCF5F
:101334002500300033003600390026003100340027
:1013440037003A0027003200350038003B002C00FB
:101354002900400040002A002B0007000300010080
:101364000700060005000400030005000400030054
:101374005000070055000010010000000000540256
:1013840020005374617274696E67205352414D207A
:10139400746573742E2E2E0D005772697465207057
:1013A40068617365206572726F723A206578745F44
:1013B40072616D5B2534645D203D202530325820F8
:1013C4002873686F756C6420626520253032582953
:1013D4000D0A0052657472696576616C20706861EB
:1013E4007365206572726F723A206578745F7261FA
:1013F4006D5B2534645D203D2025303258202873F0
:10140400686F756C642062652025303258290D0A96
:10141400005352414D207465737420636F6D706C7A
:10142400657465642077697468200D0A2534642026
:101434006572726F727320696E20777269746520A9
:10144400706861736520616E64200D0A2534642020
:101454006572726F727320696E2072657472696549
:1014640076616C2070686173650D0A0D0A00536C17
:0A1474006565703A2025640A000047
:00000001FF
