:100000000C9470030C941E0C0C948D030C948D03B3
:100010000C948D030C948D030C948D030C94440C60
:100020000C948D030C948D030C948D030C948D0310
:100030000C948D030C948D030C948D030C948D0300
:100040000C948D030C948D030C948D030C948D03F0
:100050000C948D030C948D030C948D030C948D03E0
:100060000C948D030C948D030C948D030C948D03D0
:1000700000000000005C00000C000C007C287C28C4
:1000800058DC68002410480028542840000C000068
:10009000007884008478000054385400107C1000EC
:1000A00080400000101010000040000060100C00A4
:1000B00038543800487C40004864580044542C00B0
:1000C0001C107C005C5424003854240064140C0080
:1000D00068542C0048543800004800008048000054
:1000E0001028440028282800442810000454080040
:1000F00038445C00781478007C5428003844280088
:100100007C4438007C5444007C140400384474005F
:100110007C107C00447C440020403C007C106C003F
:100120007C4040007C187C0078103C00384438004B
:100130007C1408003844B8007C146800485424003B
:10014000047C04007C407C003C603C007C307C00F3
:100150006C106C000C700C0064544C00007C44006B
:100160000C106000447C00000804080080808000BF
:1001700000040800304878007C48300030484800CF
:1001800030487C00306850001078140090A8780047
:100190007C08700050744000808074007C106800FF
:1001A000447C4000781078007808700030483000B7
:1001B000F82810003048F80078100800505828003F
:1001C000083C4800384078003840380078207800F3
:1001D0004830480098A0780048685800107884009B
:1001E000007C00008478100008040804000000006F
:1001F0000000005F00000007000700147F147F1458
:10020000242A7F2A1223130864623649552250009B
:1002100005030000001C2241000041221C00082AA6
:100220001C2A0808083E080800503000000808088A
:100230000808006060000020100804023E51494593
:100240003E00427F400042615149462141454B31C9
:100250001814127F1027454545393C4A4949300159
:10026000710905033649494936064949291E0036B0
:100270003600000056360000000814224114141401
:10028000141441221408000201510906324979412F
:100290003E7E1111117E7F494949363E414141223E
:1002A0007F4141221C7F494949417F090901013EA3
:1002B000414151327F0808087F00417F41002040C2
:1002C000413F017F081422417F404040407F0204AB
:1002D000027F7F0408107F3E4141413E7F090909AA
:1002E000063E4151215E7F09192946464949493157
:1002F00001017F01013F4040403F1F2040201F7F00
:100300002018207F631408146303047804036151E8
:1003100049454300007F4141020408102041417FCC
:100320000000040201020440404040400001020479
:100330000020545454787F4844443838444444207E
:10034000384444487F3854545418087E0901020840
:100350001454543C7F0804047800447D400020403D
:10036000443D00007F10284400417F40007C041879
:1003700004787C0804047838444444387C14141409
:1003800008081414187C7C080404084854545420A9
:10039000043F4440203C4040207C1C2040201C3C2A
:1003A0004030403C44281028440C5050503C446499
:1003B000544C44000836410000007F0000004136E4
:1003C000080002010302010000000000000000001C
:1003D000065F5F0600000000070700070700001423
:1003E0007F7F147F7F1400242E6B6B3A120000462F
:1003F0006630180C666200307A4F5D377A48000428
:1004000007030000000000001C3E634100000000E4
:1004100041633E1C000000082A3E1C1C3E2A0808BE
:10042000083E3E0808000000A0E060000000000850
:100430000808080808000000006060000000006074
:1004400030180C060301003E7F594D7F3E000042EC
:10045000427F7F40400000627359496F660000226E
:100460006349497F360000181C16137F7F10002750
:100470006745457D3900003C7E4B497930000003DB
:100480006371190F070000367F49497F3600000667
:100490004F49693F1E000000006C6C000000000026
:1004A000A0EC6C00000000081C3663410000001442
:1004B00014141414140000004163361C08000002D8
:1004C0000351590F0600003E7F415D5D1F1E007CF9
:1004D0007E13137E7C0000417F7F49497F36001CDC
:1004E0003E634141632200417F7F41637F1C0041A5
:1004F0007F7F495D416300417F7F491D0103001CEF
:100500003E6341517372007F7F08087F7F000000C7
:10051000417F7F41000000307040417F3F0100413A
:100520007F7F081C776300417F7F41406070007FC0
:100530007F060C067F7F007F7F060C187F7F001CE4
:100540003E6341633E1C00417F7F49090F06001E48
:100550003F21717F5E0000417F7F19396F46002681
:10056000674D597B32000003417F7F410300007FCC
:100570007F40407F7F00001F3F60603F1F00007F83
:100580007F3018307F7F0063771C081C776300077B
:100590004F78784F0700006773594D47637100002B
:1005A0007F7F41410000000103060C18306000000D
:1005B00041417F7F000000080C0603060C08008004
:1005C000808080808080800000030704000000207D
:1005D0007454543C784000413F7F44447C38003898
:1005E0007C44446C280000307848493F7F40003804
:1005F0007C54545C180000487E7F49030200009838
:10060000BCA4A4F87C0400417F7F08047C7800002F
:10061000447D7D4000000040C484FD7D0000004119
:100620007F7F10386C440000417F7F400000007CD9
:100630007C0C180C7C78007C7C04047C78000038EE
:100640007C44447C38000084FCF8A4243C18001846
:100650003C24A4F8FC8400447C78441C1800004826
:100660005C54547424000000043E7F442400003C89
:100670007C40403C7C40001C3C60603C1C00003CDA
:100680007C6030607C3C00446C3810386C44009CCA
:10069000BCA0A0FC7C00004C64745C4C64000008AE
:1006A000083E7741410000000000777700000041DC
:1006B00041773E0808000002030103020301000025
:1006C00004067F7F0604000010307F7F3010001882
:1006D0003C7E1818181800181818187E3C180000CE
:1006E00011241FBECFEFD4E0DEBFCDBF12E0A0E0EB
:1006F000B1E0E2E2F3E202C005900D92AA3CB1073C
:10070000D9F722E0AAECB2E001C01D92AC3EB207DC
:10071000E1F70E94A0030C948F110C94810C7F933D
:100720006F939F938F9380E692E09F938F930E94A5
:100730004A0D0F900F900F900F900F900F9008950B
:10074000CF93DF9300D0CDB7DEB70E944D060E9455
:10075000E6060E94F30761E070E081E090E00E940D
:10076000520562E070E081E090E00E94520581E075
:1007700090E09A8389830E949F080E9457090E94F3
:10078000C20B8FE893E00E94100B0E94890C6AED67
:1007900076E08BEB96E00E94FF0C28E230E044E626
:1007A00050E070E060E090E080E00E94F3092FE309
:1007B00030E04EE150E070E060E08EE190E00E94B9
:1007C000F3092EE130E04FE750E06EE170E090E099
:1007D00080E00E94F30944E150E06EE170E08EE1B8
:1007E00090E00E948D0A0AE010E00AC00E94DA063A
:1007F0000E948B0909C089819A8101979A83898314
:100800000E94C806892B91F70E94FB0B89819A816F
:1008100089819A81892B79F71A8309830E94E60AD4
:10082000EACF009769F081309105E1F082309105BF
:1008300059F183309105D1F1049709F449C0089525
:10084000E0911201F09113012081318181E090E06B
:1008500002C0880F991F6A95E2F7822B932B918330
:1008600080830895E0911001F09111012081318180
:1008700081E090E002C0880F991F6A95E2F7822B11
:10088000932B918380830895E0910E01F0910F01E5
:100890002081318181E090E002C0880F991F6A9524
:1008A000E2F7822B932B918380830895E0910C01D2
:1008B000F0910D012081318181E090E002C0880F2C
:1008C000991F6A95E2F7822B932B91838083089579
:1008D000E0910A01F0910B012081318181E090E0EB
:1008E00002C0880F991F6A95E2F7822B932B9183A0
:1008F0008083A5CF009741F5452B91F0E0911C0135
:10090000F0911D012081318181E090E002C0880FCB
:10091000991F6A95E2F7822B932B91838083089528
:10092000E0911C01F0911D012081318181E090E076
:1009300002C0880F991F6A95E2F7809590958223EF
:1009400093239183808308958130910559F08230FB
:10095000910581F18330910509F454C0049709F49D
:1009600079C00895452B91F0E0911A01F0911B0197
:100970002081318181E090E002C0880F991F6A9543
:10098000E2F7822B932B918380830895E0911A01E3
:10099000F0911B012081318181E090E002C0880F3D
:1009A000991F6A95E2F7809590958223932391830E
:1009B00080830895452B91F0E0911801F091190181
:1009C0002081318181E090E002C0880F991F6A95F3
:1009D000E2F7822B932B918380830895E091180195
:1009E000F09119012081318181E090E002C0880FEF
:1009F000991F6A95E2F780959095822393239183BE
:100A000080830895452B91F0E0911601F091170134
:100A10002081318181E090E002C0880F991F6A95A2
:100A2000E2F7822B932B918380830895E091160146
:100A3000F09117012081318181E090E002C0880FA0
:100A4000991F6A95E2F7809590958223932391836D
:100A500080830895452BA1F4E0911401F0911501D4
:100A60002081318181E090E002C0880F991F6A9552
:100A7000E2F780959095822393239183808371CFB1
:100A8000E0911401F09115012081318181E090E025
:100A900002C0880F991F6A95E2F7822B932B9183EE
:100AA00080830895009719F181309105C9F1823052
:100AB000910509F44AC08330910509F45BC0843084
:100AC000910549F5E0910A01F0910B0140815181B6
:100AD00021E030E0062E02C0220F331F0A94E2F715
:100AE00020953095242335233183208314C0E09151
:100AF0001201F09113014081518121E030E0062E76
:100B000002C0220F331F0A94E2F720953095242368
:100B100035233183208341E050E00E947A04089518
:100B2000E0911001F09111014081518121E030E00C
:100B3000062E02C0220F331F0A94E2F7209530954B
:100B40002423352331832083E6CFE0910E01F091F9
:100B50000F014081518121E030E0062E02C0220FBA
:100B6000331F0A94E2F720953095242335233183EF
:100B70002083D1CFE0910C01F0910D014081518192
:100B800021E030E0062E02C0220F331F0A94E2F764
:100B9000209530952423352331832083BCCF0097C3
:100BA00071F08130910509F182309105A1F1833016
:100BB000910509F446C0049709F459C00895E091DD
:100BC0000801F09109012081318181E090E0062E39
:100BD00002C0880F991F0A94E2F78223932302C070
:100BE000959587956A95E2F70895E0910601F09151
:100BF00007012081318181E090E0062E02C0880F3C
:100C0000991F0A94E2F78223932302C09595879552
:100C10006A95E2F70895E0910401F09105012081C1
:100C2000318181E090E0062E02C0880F991F0A945E
:100C3000E2F78223932302C0959587956A95E2F7A0
:100C40000895E0910201F09103012081318181E05A
:100C500090E0062E02C0880F991F0A94E2F78223C3
:100C6000932302C0959587956A95E2F70895E091E0
:100C70000001F09101012081318181E090E0062E98
:100C800002C0880F991F0A94E2F78223932302C0BF
:100C9000959587956A95E2F7089561E070E083E0A5
:100CA00090E00E94110470E060E083E090E00E9418
:100CB0005205E0912201F09123011082E091200180
:100CC000F09121018FE18083E0912601F0912701CD
:100CD00081E090E09C010090360102C0220F331F9A
:100CE0000A94E2F7AC010090380102C0440F551F8E
:100CF0000A94E2F7242B2083E0912401F09125014E
:100D00009C0100902A0102C0220F331F0A94E2F7CF
:100D100000902C0102C0880F991F0A94E2F7822BE1
:100D200023E030E000902E0102C0220F331F0A940E
:100D3000E2F7822B80830895E0912801F091290148
:100D4000208181E090E00090340102C0880F991F5B
:100D50000A94E2F730E0822393230895CF93C82FBB
:100D60000E949C06892B29F0E0911E01F0911F0141
:100D7000C083CF910895CF93C82F0E949C06892BE2
:100D8000E1F3E0911E01F0911F01C083CF9108951E
:100D9000E0912801F0912901208181E090E000900C
:100DA000300102C0880F991F0A94E2F730E08223D5
:100DB000932308950E94C806892B31F0E0911E010B
:100DC000F0911F018081089580E00895E09146012F
:100DD000F0914701808121E030E0A90100904201BB
:100DE00002C0440F551F0A94E2F7842B8083E091E0
:100DF0004001F0914101408183E090E000903E018C
:100E000002C0880F991F0A94E2F78095842380839B
:100E1000E0914001F0914101808100903A0102C0CF
:100E2000220F331F0A94E2F7282B208308950F9393
:100E30001F93CF93DF93CDB7DEB728970FB6F89403
:100E4000DEBF0FBECDBFE091D102F0E00091D00235
:100E500010E09091D3028091CF02891708F040C032
:100E60002091D3028091CF026091CC027091CD028B
:100E7000281B330B44E6429FC001439F900D112471
:100E80000E94D70C9B019091D2028091CE028917CB
:100E9000B0F18091D2026091CE0244E6849FC001FD
:100EA000112470E00E94D70C645671093A8329839B
:100EB0007C836B83FE83ED8318870F833A81462FF3
:100EC0005C816E2F7E81802F988528960FB6F894CE
:100ED000DEBF0FBECDBFDF91CF911F910F9108955F
:100EE0008091D3026091CF0224E6829FC001112439
:100EF00070E00E94D70C9B0124563109C4CF409169
:100F0000D2028091CE026091CA027091CB02481B3E
:100F1000550BA4E6A49FC001A59F900D11240E942B
:100F2000D70CC4CFCF93DF93CDB7DEB728970FB6DA
:100F3000F894DEBF0FBECDBF29833A834B835C8319
:100F400089819A812B813C81BC019923BCF0A90144
:100F50003323CCF046175707DCF4833391051CF597
:100F60008E3C9F4F1CF190E080E028960FB6F894DD
:100F7000DEBF0FBECDBFDF91CF91089566277727E3
:100F8000681B790BE4CF44275527421B530BE2CF54
:100F900081E090E02333310544F72E3C3F4F4CF085
:100FA00090E080E0E2CF84E090E0DFCF83E090E06B
:100FB000DCCF82E090E0D9CFE0915601F09157016B
:100FC00010820895E0915601F0915701808180933D
:100FD000D20280818093D30280818093D10280816C
:100FE0008093D00208950F931F93CF93DF9300D087
:100FF000CDB7DEB765E070E083E090E00E94520577
:101000008FB58E7F8FBD8FB582688FBD8EB588619D
:101010008EBD1BBC81E08ABD15BC83E084BD8EB54E
:101020008A7F8EBD8EB582608EBD65E070E083E004
:1010300090E00E9411048FEF9FEF9A838983E091E3
:101040005601F091570110820AE010E009C01A839E
:10105000098389819A8101979A838983892BC9F7AA
:1010600065E070E083E090E00E94CF05892B79F382
:10107000E0915601F091570180818093CE028081EA
:101080008093CF0280818093D10280818093D002AF
:101090008091CF028093D3028091CE028093D202BE
:1010A0002091CF028FEF90E0AC01421B5109509389
:1010B000CD024093CC022091CE02821B91099093E5
:1010C000CB028093CA020F900F90DF91CF911F91B6
:1010D0000F910895E0916001F0916101808308957E
:1010E000E0915E01F0915F01808308952091D60226
:1010F0003091D7023695322F222737952795409188
:10110000D4025091D502240F351F40915C015091BB
:101110005D01240F351FF90180838091D4029091E5
:10112000D50201968038910529F09093D5028093DD
:10113000D40208951092D5021092D4020895E0913D
:101140006001F09161018EEA8083E0916001F0918D
:10115000610181EA8083E0916001F09161018AED93
:101160008083E0916001F091610182E18083E091F0
:101170006001F091610188EC8083E0916001F09161
:10118000610188EA8083E0916001F09161018FE361
:101190008083E0916001F091610185ED8083E091B1
:1011A0006001F091610180E88083E0916001F0913D
:1011B000610181E88083E0916001F091610180E547
:1011C0008083E0916001F091610189ED8083E0917D
:1011D0006001F091610181E28083E0916001F09112
:1011E000610180E28083E0916001F091610182E021
:1011F0008083E0916001F09161018BED8083E0914B
:101200006001F091610180E38083E0916001F091E1
:1012100061018DEA8083E0916001F09161011082AB
:10122000E0916001F091610184EA8083E0916001C6
:10123000F091610186EA8083E0916001F0916101A3
:101240008FEA8083089508958830910528F490935B
:10125000D7028093D602089581E290E00E94600D4B
:1012600008958038910528F49093D5028093D40294
:10127000089581E290E00E94600D0895CF93DF937E
:101280000E942409C0E8D0E080E00E9476082197FF
:10129000D9F7DF91CF910895CF93DF93EB010E94AF
:1012A0002409CE010E943109DF91CF910895CF9397
:1012B000DF93D0E0C0E0CE010E943E092196C83005
:1012C000D105C9F770E060E090E080E00E944C0931
:1012D000DF91CF9108950F931F93CF93DF938430C5
:1012E0009105A4F48C01000F111F000F111F000FB6
:1012F000111FE801C154D94F0953194FFE018491C0
:101300000E9476082196C017D107C1F7DF91CF91CF
:101310001F910F9108950F931F93CF93DF938D30FB
:1013200091F08A30A9F0893019F5C091D402D0919A
:10133000D502CF71DD2780E00E9476082196C03269
:10134000D105C9F72DC090E080E00E94310928C086
:101350008091D6029091D7028730910521F00196B5
:101360000E9424091DC090E080E00E94240918C05A
:1013700080528F35A8F4082F10E0000F111F000FC6
:10138000111F000F111FE801C953DC4F01531C4FFF
:10139000FE0184910E9476082196C017D107C1F7FB
:1013A000DF91CF911F910F9108959B012295329566
:1013B000307F3227207F322720783F77820F931F9C
:1013C000E0915C01F0915D01E80FF91F8081677089
:1013D000772721E030E002C0220F331F6A95E2F741
:1013E000822B808308958F929F92AF92BF92CF926B
:1013F000DF92EF92FF920F931F93CF93DF938C01B5
:10140000EB014A0179015A01A81AB90A6901C61A01
:10141000D70AA114B10499F4C114D10469F0D4F12C
:10142000EC16FD061CF1BE01C8010E94D5092196EB
:10143000EC16FD06C4F71AC00E94D50917C0BB20E0
:1014400014F18016910694F0F12CE12CC701B5013E
:101450000E94D70C6C0F7D1FC8010E94D5090F5F39
:101460001F4FEC0CFD1C8016910684F7DF91CF9185
:101470001F910F91FF90EF90DF90CF90BF90AF90B2
:101480009F908F900895E901982F812F8A01892ECE
:10149000982ED7CF8D2FE901E62EF82E8A01C0CFE6
:1014A000CF92DF92EF92FF920F931F93CF93DF9330
:1014B0006A01C81AD90A8A01080F191F7901E61AA8
:1014C000F70AE901C60FD71FBE01C8010E94D5095E
:1014D000BE01C6010E94D509B701C8010E94D50905
:1014E000B701C6010E94D509B801CE010E94D509F5
:1014F000B801C7010E94D509B601CE010E94D509E5
:10150000B601C7010E94D509DF91CF911F910F91BC
:10151000FF90EF90DF90CF900895AF92BF92CF925F
:10152000DF92EF92FF920F931F93CF93DF93262FBB
:10153000372F8A0141E050E07A01E01AF10AD62EF5
:10154000C72EB82EA92E482F592F70E060E0C80191
:101550000E94500A1016110674F5D0E0C0E016C0C3
:10156000CE01880F991FE80EF91E2FEFE21AF20A3A
:101570000C171D0704F12D2D3C2D4B2D5A2DBE01AE
:10158000C8010E94500AC017D107ACF421961E145E
:101590001F0434F701501109CE01880F991F8E0DD9
:1015A0009F1D9801220F331F821B930B7C012FEF8D
:1015B000E21AF20ADDCFDF91CF911F910F91FF90D8
:1015C000EF90DF90CF90BF90AF900895E0916001D1
:1015D000F09161011082E0916001F091610180E180
:1015E000808390E080E030EBE0916001F091610158
:1015F0003083AC0140585F4FE0915C01F0915D0198
:10160000E80FF91F2081E0915E01F0915F012083D6
:1016100001964817590781F73F5F383B29F708952E
:101620009093D9028093D80208950F931F93CF937C
:10163000DF93CDB7DEB728970FB6F894DEBF0FBEA5
:10164000CDBF0091DC021091DD020E9417070E94BD
:1016500092072091DE023091DF022817390799F0B6
:101660008130910501F18230910569F42091DC020D
:101670003091DD022730310559F12F5F3F4F309314
:10168000DD022093DC029093DF028093DE02C8012A
:1016900028960FB6F894DEBF0FBECDBFDF91CF9175
:1016A0001F910F9108952091DC023091DD022115E8
:1016B000310539F0215031093093DD022093DC02ED
:1016C000E2CF27E030E03093DD022093DC02DBCF75
:1016D0001092DD021092DC02D6CFCF93DF9363E04D
:1016E00070E081E090E00E94CF05EC018091620102
:1016F00090916301892B79F0209769F46091DC0265
:101700007091DD02E091D802F091D9028091DA0265
:101710009091DB020995D0936301C0936201DF9140
:10172000CF910895CF92DF92EF92FF920F931F9384
:10173000CF93DF93CDB7DEB78E01035F1F4FD12C60
:10174000C12C68E070E0C6010E944C0978018FE06E
:10175000E80EF11CF80181918F010E948B090E1592
:101760001F05C1F7FFEFCF1ADF0A88E0C816D104C2
:1017700041F7DF91CF911F910F91FF90EF90DF9094
:10178000CF90089563E070E081E090E00E94520500
:101790008DB79EB78A5791090FB6F8949EBF0FBEBA
:1017A0008DBFADB7BEB711968AE7E6EEF1E00190C6
:1017B0000D928A95E1F70E94920B8DB79EB78658DD
:1017C0009F4F0FB6F8949EBF0FBE8DBF089570E077
:1017D00060E00E944C0980E20E948B0970E060E0AA
:1017E0008091DC029091DD020E944C0983E090E040
:1017F0000E946B090895CF93DF930E94150BEC01B3
:101800000E946D0BCE010E94E70B60E470E084E063
:1018100090E00E944C0990E080E00E946B0981E01A
:1018200090E00E946B0982E090E00E946B0983E0E7
:1018300090E00E946B09DF91CF9108951F920F9263
:101840000FB60F9211242F933F934F935F936F9393
:101850007F938F939F93AF93BF93EF93FF93F894EE
:101860000E94E2071ABEFF91EF91BF91AF919F9145
:101870008F917F916F915F914F913F912F910F9039
:101880000FBE0F901F9018951F920F920FB60F92D8
:1018900011242F933F934F935F936F937F938F9375
:1018A0009F93AF93BF93EF93FF93F8948091E002DF
:1018B0009091E10201969093E1028093E0020E94F0
:1018C000DC078091E0029091E102883E934091F024
:1018D00019BEFF91EF91BF91AF919F918F917F9131
:1018E0006F915F914F913F912F910F900FBE0F908D
:1018F0001F9018950E94E60A1092E1021092E002F1
:10190000E7CF1F920F920FB60F92112481E28CB98C
:10191000FECF04B600FC32C004B601FC34C004B6ED
:1019200002FC36C004B603FC38C004B604FC3AC05E
:1019300014BEEBE8F0E080818064808380818C7F3E
:101940008083EAE8F0E080818F7E808380818860F8
:1019500080831092870080E58093860080818D7F50
:10196000808380818560808385B7836085BF80E4C4
:101970008BBF80E180937D007894089588E792E0A2
:101980000E94670DC9CF89E892E00E94670DC7CF1A
:101990008AE992E00E94670DC5CF8BEA92E00E942F
:1019A000670DC3CF8CEB92E00E94670DC1CF97FB10
:1019B000072E16F4009407D077FD09D00E94EB0C97
:1019C00007FC05D03EF4909581959F4F0895709542
:1019D00061957F4F0895AA1BBB1B51E107C0AA1F49
:1019E000BB1FA617B70710F0A61BB70B881F991FC0
:1019F0005A95A9F780959095BC01CD0108950F9354
:101A00001F93CF93DF93009759F46115710541F44B
:101A1000F0E0E0E0CF01DF91CF911F910F910895A9
:101A20008B01EC016EE070E081E090E00E946C0FB1
:101A3000FC01892B69F380E883830115110571F09E
:101A40001387028781E883838091E2029091E30209
:101A5000892B21F4F093E302E093E2022097D1F284
:101A6000D187C0878381826083838091E4029091D3
:101A7000E502892B79F6F093E502E093E402809188
:101A8000E6029091E702892B29F6F093E702E093B2
:101A9000E602C0CFB0E0A0E0E0E5FDE00C94681104
:101AA000AE014B5F5F4FFA0161917191AF0180917F
:101AB000E4029091E5020E94920DE2E00C94841100
:101AC0006091E4027091E5020E94CA1008950F939C
:101AD0001F93CF93DF93E091E402F091E50223811D
:101AE000EC0110E000E021FD08C00FEF1FEF14C073
:101AF0000995892B11F00FEF1FEF89916091E40296
:101B00007091E502DB011896ED91FC918111F0CF07
:101B10008AE00995892B49F7C801DF91CF911F9180
:101B20000F910895ABE0B0E0E8E9FDE00C945811A6
:101B30007C013B018A01FC0117821682838181FFAF
:101B4000C8C1CE0101965C01F7019381F30193FDB9
:101B5000859193FF81913F01882309F453C1853218
:101B600039F493FD859193FF81913F01853229F4EA
:101B7000B70190E00E94CA10E7CF912C212C312CA4
:101B8000FFE1F31538F08B3211F190F4803209F156
:101B9000833229F137FC3CC020ED280F2A3050F564
:101BA00036FE20C08AE0989E200D1124922E06C099
:101BB0008D3291F0803371F7689430F8F30193FD22
:101BC000859193FF81913F018111DACF21C0689403
:101BD00031F8689432F8F2CF689433F8EFCF689414
:101BE00034F8ECCFEAE02E9E200D1124222E6894CA
:101BF00035F8E4CF8E3229F436FC04C1689436F807
:101C0000DDCF8C3619F4689437F8D8CF8836B1F226
:101C1000982F9F7D95549330E0F08336A1F1833760
:101C2000C1F1833509F063C02801F2E04F0E511C69
:101C3000F801C080D180692D70E036FC02C06FEFE2
:101C40007FEFC6010E94AD104C01689437F8820105
:101C50000AC00C5F1F4FFFE3F98388248394912C03
:101C60006501E89437F833FE2DC0522C811491049D
:101C700071F5552009F468CFB70180E290E00E9429
:101C8000CA105A94F6CFF801808189830E5F1F4FE6
:101C9000E4CF2801F2E04F0E511CF801C080D18042
:101CA000692D70E036FC02C06FEF7FEFC6010E9425
:101CB000BF104C018201D5CFB70180E290E00E94B5
:101CC000CA102A942814190409F0B0F7CECFF601EF
:101CD00037FC859137FE81916F01B70190E00E943A
:101CE000CA1051105A94F1E08F1A9108BFCF843670
:101CF00019F0893609F077C0F80137FE6BC06081B2
:101D00007181828193810C5F1F4FF32DFF763F2EEF
:101D100097FF09C090958095709561957F4F8F4F83
:101D20009F4F689437F82AE030E0A5010E94FA102E
:101D3000C82ECA188C2C432C36FE0CC0E89440F8F0
:101D4000C91440F434FE05C032FC03C0F32DFE7EFE
:101D50004F2E892C44FE95C0FE01EC0DF11D8081B3
:101D6000803309F087C0242D297E422E842D88706F
:101D7000582E43FC95C040FE8FC09C2C821418F452
:101D80002C0C922C981844FE91C0B70180E390E08F
:101D90000E94CA1042FE09C088E790E041FE02C0DE
:101DA00088E590E0B7010E94CA10C91408F48AC0FF
:101DB000CA94D12C9FEFC91AD90ACA0CDB1CF601B0
:101DC00082916F01B70190E00E94CA10AC14BD046B
:101DD000B1F74FCF60817181072E000C880B990BF2
:101DE0000E5F1F4F92CFD32CE894D4F82AE030E056
:101DF000853739F1232D297FD22E8F3601F148F412
:101E00008835A9F0F701868197812B96E2E10C9441
:101E10007411803749F08837A9F7D4FE02C068945E
:101E2000D2F820E130E00DC06894D4F8F6CF34FE4B
:101E300003C0822F8660D82E20E132E002C028E065
:101E400030E0F801D7FE0FC06081718182819381FB
:101E50000C5F1F4FA5010E94FA10C82ECA183D2C16
:101E6000E89437F867CF6081718190E080E00E5F81
:101E70001F4FF0CF42FC02C0839478CF83948394A9
:101E800075CF842D867809F471CFF6CFB70180E243
:101E900090E00E94CA1083948214C0F3512C73CF37
:101EA000522C5818821408F46ECFF8CF842D8678FF
:101EB00009F47BCF8BE241FE80E247FC8DE2B70163
:101EC00090E071CFB70180E390E00E94CA109A942D
:101ED0006CCF8FEF9FEF99CF0F931F93CF93DF932B
:101EE000869F8001879F100D969F100D1124C801B9
:101EF0000E94880FEC01009729F0A80170E060E0D3
:101F00000E94B810CE01DF91CF911F910F910895DB
:101F10000F931F93CF93DF938230910510F482E0EB
:101F200090E0E091EA02F091EB0230E020E0B0E0D6
:101F3000A0E0309799F42115310509F44AC0281B17
:101F4000390B24303105D8F58A819B8161157105E3
:101F500089F1FB0193838283FE0111C0408151818D
:101F60000281138148175907E0F04817590799F47F
:101F7000109761F012960C93129713961C93329659
:101F8000CF01DF91CF911F910F9108950093EA0245
:101F90001093EB02F4CF2115310551F0421753078E
:101FA00038F0A901DB019A01BD01DF01F801C1CFC1
:101FB000EF01F9CF9093EB028093EA02CDCFFE01BF
:101FC000E20FF31F819391932250310939832883C3
:101FD000D7CF2091E8023091E902232B41F42091E0
:101FE0006601309167013093E9022093E802209165
:101FF0006401309165012115310541F42DB73EB7DB
:102000004091680150916901241B350BE091E80271
:10201000F091E902E217F307A0F42E1B3F0B2817FB
:10202000390778F0AC014E5F5F4F2417350748F051
:102030004E0F5F1F5093E9024093E8028193919302
:102040009FCFF0E0E0E09CCFCF93DF930097E9F0E3
:10205000FC01329713821282A091EA02B091EB0246
:10206000ED0130E020E01097A1F420813181820F52
:10207000931F2091E8023091E9022817390709F0EF
:1020800061C0F093E902E093E802DF91CF910895F7
:10209000EA01CE17DF07E8F54A815B819E01411511
:1020A0005105B1F7E901FB83EA8349915991C40FC6
:1020B000D51FEC17FD0761F4808191810296840F92
:1020C000951FE90199838883828193819B838A8309
:1020D000F0E0E0E012968D919C9113970097B9F58E
:1020E0002D913C911197CD010296820F931F209163
:1020F000E8023091E9022817390739F6309751F58F
:102100001092EB021092EA02B093E902A093E80267
:10211000BCCFD383C28340815181840F951FC817E0
:10212000D90761F44E5F5F4F88819981480F591F2D
:10213000518340838A819B8193838283211531055A
:1021400009F0B0CFF093EB02E093EA029ECFFD01DD
:10215000DC01C0CF13821282D7CFFC010590615001
:1021600070400110D8F7809590958E0F9F1F0895AD
:10217000DC0101C06D9341505040E0F70895FC012F
:102180006150704001900110D8F7809590958E0FA6
:102190009F1F08950F931F93CF93DF93182F092F3D
:1021A000EB018B8181FD09C01FEF0FEF812F902F75
:1021B000DF91CF911F910F91089582FF14C02E815E
:1021C0003F818C819D81281739073CF4E881F98192
:1021D000CF0101969983888310838E819F81019618
:1021E0009F838E83E3CFE885F985812F0995892B1D
:1021F000A1F3DACFFA01AA27283051F1203181F179
:10220000E8946F936E7F6E5F7F4F8F4F9F4FAF4FFE
:10221000B1E03ED0B4E03CD0670F781F891F9A1F11
:10222000A11D680F791F8A1F911DA11D6A0F711DC5
:10223000811D911DA11D20D009F468943F912AE0D1
:10224000269F11243019305D3193DEF6CF010895B9
:10225000462F4770405D4193B3E00FD0C9F7F6CFEA
:10226000462F4F70405D4A3318F0495D31FD4052B2
:10227000419302D0A9F7EACFB4E0A6959795879548
:1022800077956795BA95C9F7009761057105089527
:102290009B01AC010A2E06945795479537952795D3
:1022A000BA95C9F7620F731F841F951FA01D08956B
:1022B0002F923F924F925F926F927F928F929F9256
:1022C000AF92BF92CF92DF92EF92FF920F931F9344
:1022D000CF93DF93CDB7DEB7CA1BDB0B0FB6F894F5
:1022E000DEBF0FBECDBF09942A88398848885F8435
:1022F0006E847D848C849B84AA84B984C884DF80A6
:10230000EE80FD800C811B81AA81B981CE0FD11D89
:102310000FB6F894DEBF0FBECDBFED010895F8945F
:02232000FFCFED
:102322002500300033003600390026003100340029
:1023320037003A0027003200350038003B002C00FD
:102342002900400040002A002B0007000300010082
:102352000700060005000400030005000400030056
:1023620050000700060055000700060005000400A3
:10237200010056000018001400200010001C00226A
:10238200002001000000EC0220000700E70300002B
:10239200000000000000000000000000000000003B
:1023A200000000000000000000000000000000002B
:1023B200000000000000000000000000000000001B
:1023C200000000000000000000000000000000000B
:1023D20000000000000000000000000000000000FB
:1023E20000000000000000000000000000000000EB
:1023F20000000000000000000000000000000000DB
:1024020000000000000000005374617274204761F4
:102412006D650000000000456C656D656E742031CD
:10242200000000000000456C656D656E742032008E
:102432000000000000456C656D656E74203300007D
:102442000000000053746F702047616D650000004A
:1024520000000043616C69627261746500000000F3
:10246200000052616E646F6D000000000000000009
:102472000048656C6C6F20576F726C6421203A299A
:102482004D656E752049443A2025642C204C696EB6
:10249200653A2025640D0A00506F7765722D6F6EC4
:1024A2002072657365742E0D0045787465726E61D5
:1024B2006C207265736574210D0042726F776E6FC6
:1024C2007574207265736574210D005761746368B9
:1024D200646F67207265736574210D004A54414729
:0A24E200207265736574210D00007F
:00000001FF
